:020000040800F2
:10000000000001204D5D0008B54C0008B74C000809
:10001000B94C0008BB4C0008BD4C000800000000B3
:10002000000000000000000000000000BF4C0008BD
:10003000C14C000800000000C34C0008C54C00087B
:100040009D5D00089D5D0008C94C00089D5D00088D
:100050009D5D00089D5D00089D5D00089D5D000898
:10006000D54C00089D5D0008DB4C00089D5D000834
:100070009D5D00089D5D00089D5D0008E14C000845
:100080009D5D00089D5D00089D5D00089D5D000868
:100090009D5D00089D5D0008ED4C00089D5D000819
:1000A0009D5D00089D5D00089D5D00089D5D000848
:1000B000054D0008114D00089D5D00089D5D00087C
:1000C0009D5D00089D5D00089D5D00089D5D000828
:1000D0009D5D00081D4D00089D5D00089D5D0008A8
:1000E0009D5D00089D5D0008294D00089D5D00088C
:1000F0009D5D00089D5D00089D5D00089D5D0008F8
:100100009D5D00089D5D0008354D00089D5D00085F
:100110009D5D00089D5D00089D5D00089D5D0008D7
:100120009D5D00089D5D00089D5D00089D5D0008C7
:080130009D5D00089D5D0008C3
:1001400010B5054C237833B9044B13B10448AFF311
:1001500000800123237010BD08B4002000000000BF
:10016000D084010808B5034B1BB103490348AFF322
:10017000008008BD000000000CB40020D0840108FD
:1001800001F0FF01102A2BDB10F0070F08D010F848
:10019000013B013A8B422DD010F0070F42B3F6D14C
:1001A000F0B441EA012141EA014122F007047FF065
:1001B00000070023F0E80256083C85EA010586EABC
:1001C000010685FA47F5A3FA87F586FA47F6A5FAF8
:1001D00087F68EB9EED1F0BC01F0FF0102F0070204
:1001E00032B110F8013B013A83EA010313B1F8D1AF
:1001F0000020704701387047002D06BF3546033890
:10020000073815F0010F07D1013015F4807F02BFC8
:10021000013015F4C03F0130F0BC0138704700BF19
:10022000034613F8012B002AFBD1181A0138704736
:1002300081F0004102E000BF83F0004330B54FEA97
:1002400041044FEA430594EA050F08BF90EA020F04
:100250001FBF54EA000C55EA020C7FEA645C7FEA97
:10026000655C00F0E2804FEA5454D4EB5555B8BFBA
:100270006D420CDD2C4480EA020281EA030382EA2B
:10028000000083EA010180EA020281EA0303362DBD
:1002900088BF30BD11F0004F4FEA01314FF4801C90
:1002A0004CEA113102D0404261EB410113F0004FA2
:1002B0004FEA03334CEA133302D0524263EB430359
:1002C00094EA050F00F0A780A4F10104D5F1200EF7
:1002D0000DDB02FA0EFC22FA05F2801841F1000152
:1002E00003FA0EF2801843FA05F359410EE0A5F126
:1002F00020050EF1200E012A03FA0EFC28BF4CF057
:10030000020C43FA05F3C01851EBE37101F000450C
:1003100007D54FF0000EDCF1000C7EEB00006EEB19
:100320000101B1F5801F1BD3B1F5001F0CD34908A3
:100330005FEA30004FEA3C0C04F101044FEA4452FA
:1003400012F5800F80F09A80BCF1004F08BF5FEA81
:10035000500C50F1000041EB045141EA050130BD61
:100360005FEA4C0C404141EB0101013C28BFB1F573
:10037000801FE9D291F0000F04BF01460020B1FABE
:1003800081F308BF2033A3F10B03B3F120020CDA91
:100390000C3208DD02F1140CC2F10C0201FA0CF06F
:1003A00021FA02F10CE002F11402D8BFC2F1200CD4
:1003B00001FA02F120FA0CFCDCBF41EA0C0190408A
:1003C000E41AA2BF01EB0451294330BD6FEA0404D3
:1003D0001F3C1CDA0C340EDC04F11404C4F12002BE
:1003E00020FA04F001FA02F340EA030021FA04F3D0
:1003F00045EA030130BDC4F10C04C4F1200220FA27
:1004000002F001FA04F340EA0300294630BD21FA64
:1004100004F0294630BD94F0000F83F4801306BF2A
:1004200081F480110134013D4EE77FEA645C18BF1E
:100430007FEA655C29D094EA050F08BF90EA020FB5
:1004400005D054EA000C04BF1946104630BD91EAAD
:10045000030F1EBF0021002030BD5FEA545C05D1B0
:100460004000494128BF41F0004130BD14F58004EF
:100470003CBF01F5801130BD01F0004545F0FE4163
:1004800041F470014FF0000030BD7FEA645C1ABF98
:10049000194610467FEA655C1CBF0B46024650EACF
:1004A000013406BF52EA033591EA030F41F40021FB
:1004B00030BD00BF90F0000F04BF0021704730B581
:1004C0004FF4806404F132044FF000054FF0000156
:1004D00050E700BF90F0000F04BF0021704730B517
:1004E0004FF4806404F1320410F0004548BF4042EC
:1004F0004FF000013EE700BF42004FEAE2014FEA41
:1005000031014FEA02701FBF12F07F4393F07F4F1B
:1005100081F06051704732F07F4208BF704793F01E
:100520007F4F04BF41F40021704730B54FF4607431
:1005300001F0004521F000411CE700BF50EA010234
:1005400008BF704730B54FF000050AE050EA0102DD
:1005500008BF704730B511F0004502D5404261EB4D
:1005600041014FF4806404F132045FEA915C3FF48E
:10057000D8AE4FF003025FEADC0C18BF03325FEA2B
:10058000DC0C18BF033202EBDC02C2F1200300FADC
:1005900003FC20FA02F001FA03FE40EA0E0021FA01
:1005A00002F11444BDE600BF70B54FF0FF0C4CF4EF
:1005B000E06C1CEA11541DBF1CEA135594EA0C0FA1
:1005C00095EA0C0F00F0DEF82C4481EA030621EADC
:1005D0004C5123EA4C5350EA013518BF52EA033517
:1005E00041F4801143F4801338D0A0FB02CE4FF0C9
:1005F0000005E1FB02E506F00042E0FB03E54FF0F9
:100600000006E1FB03569CF0000F18BF4EF0010EF0
:10061000A4F1FF04B6F5007F64F5407404D25FEAEC
:100620004E0E6D4146EB060642EAC62141EA55519F
:100630004FEAC52040EA5E504FEACE2EB4F1FD0CE1
:1006400088BFBCF5E06F1ED8BEF1004F08BF5FEA5F
:10065000500E50F1000041EB045170BD06F0004611
:1006600046EA010140EA020081EA0301B4EB5C04BE
:10067000C2BFD4EB0C0541EA045170BD41F48011B6
:100680004FF0000E013C00F3AB8014F1360FDEBFDB
:10069000002001F0004170BDC4F10004203C35DAB7
:1006A0000C341BDC04F11404C4F1200500FA05F33A
:1006B00020FA04F001FA05F240EA020001F00042DB
:1006C00021F0004110EBD37021FA04F642EB060151
:1006D0005EEA430E08BF20EAD37070BDC4F10C047B
:1006E000C4F1200500FA04F320FA05F001FA04F23F
:1006F00040EA020001F0004110EBD37041F100012B
:100700005EEA430E08BF20EAD37070BDC4F1200535
:1007100000FA05F24EEA020E20FA04F301FA05F29D
:1007200043EA020321FA04F001F0004121FA04F245
:1007300020EA020000EBD3705EEA430E08BF20EA15
:10074000D37070BD94F0000F0FD101F0004640004F
:1007500041EB010111F4801F08BF013CF7D041EAD1
:10076000060195F0000F18BF704703F000465200D5
:1007700043EB030313F4801F08BF013DF7D043EAA6
:100780000603704794EA0C0F0CEA135518BF95EA5C
:100790000C0F0CD050EA410618BF52EA4306D1D1E3
:1007A00081EA030101F000414FF0000070BD50EA02
:1007B000410606BF1046194652EA430619D094EA8C
:1007C0000C0F02D150EA013613D195EA0C0F05D176
:1007D00052EA03361CBF104619460AD181EA0301CA
:1007E00001F0004141F0FE4141F470014FF0000082
:1007F00070BD41F0FE4141F4780170BD70B54FF01D
:10080000FF0C4CF4E06C1CEA11541DBF1CEA13559C
:1008100094EA0C0F95EA0C0F00F0A7F8A4EB05047E
:1008200081EA030E52EA03354FEA013100F0888075
:100830004FEA03334FF0805545EA131343EA12633E
:100840004FEA022245EA111545EA10654FEA0026F3
:100850000EF000419D4208BF964244F1FD0404F5AC
:10086000407402D25B084FEA3202B61A65EB030508
:100870005B084FEA32024FF480104FF4002CB6EBC5
:10088000020E75EB030E22BFB61A754640EA0C0045
:100890005B084FEA3202B6EB020E75EB030E22BF85
:1008A000B61A754640EA5C005B084FEA3202B6EBC6
:1008B000020E75EB030E22BFB61A754640EA9C0085
:1008C0005B084FEA3202B6EB020E75EB030E22BF55
:1008D000B61A754640EADC0055EA060E18D04FEA13
:1008E000051545EA16754FEA06164FEAC30343EAB3
:1008F00052734FEAC2025FEA1C1CC0D111F4801F80
:100900000BD141EA00014FF000004FF0004CB6E778
:1009100011F4801F04BF01430020B4F1FD0C88BF17
:10092000BCF5E06F3FF6AFAEB5EB030C04BFB6EB22
:10093000020C5FEA500C50F1000041EB045170BD15
:100940000EF0004E4EEA113114EB5C04C2BFD4EB42
:100950000C0541EA045170BD41F480114FF0000EC6
:10096000013C90E645EA060E8DE60CEA135594EA42
:100970000C0F08BF95EA0C0F3FF43BAF94EA0C0F45
:100980000AD150EA01347FF434AF95EA0C0F7FF4BA
:1009900025AF104619462CE795EA0C0F06D152EA0E
:1009A00003353FF4FDAE1046194622E750EA4106F2
:1009B00018BF52EA43067FF4C5AE50EA41047FF403
:1009C0000DAF52EA43057FF4EBAE12E74FF0FF3C68
:1009D00006E000BF4FF0010C02E000BF4FF0010C39
:1009E0004DF804CD4FEA410C7FEA6C5C4FEA430CB2
:1009F00018BF7FEA6C5C1BD001B050EA410C0CBF01
:100A000052EA430C91EA030F02BF90EA020F002062
:100A1000704710F1000F91EA030F58BF994208BFC9
:100A200090422CBFD8176FEAE37040F00100704786
:100A30004FEA410C7FEA6C5C02D150EA013C07D1DD
:100A40004FEA430C7FEA6C5CD6D152EA033CD3D028
:100A50005DF8040B704700BF8446104662468C4622
:100A60001946634600E000BF01B5FFF7B7FF002855
:100A700048BF10F1000F01BD4DF808EDFFF7F4FF7E
:100A80000CBF012000205DF808FB00BF4DF808ED09
:100A9000FFF7EAFF34BF012000205DF808FB00BF2C
:100AA0004DF808EDFFF7E0FF94BF012000205DF84E
:100AB00008FB00BF4DF808EDFFF7CEFF94BF012003
:100AC00000205DF808FB00BF4DF808EDFFF7C4FFFC
:100AD00034BF012000205DF808FB00BF4FEA410C45
:100AE0007FEA6C5C02D150EA013C0AD14FEA430C28
:100AF0007FEA6C5C02D152EA033C02D14FF0000065
:100B000070474FF0010070474FEA410212F50012A2
:100B100015D211D56FF47873B3EB625212D94FEA44
:100B2000C12343F0004343EA505311F0004F23FA2E
:100B300002F018BF404270474FF00000704750EA83
:100B4000013005D111F0004008BF6FF00040704740
:100B50004FF00000704700BF4FEA4102B2F1E0439E
:100B600024BFB3F5001CDCF1FE5C0DD901F0004C94
:100B70004FEAC0024CEA5070B2F1004F40EB8300E4
:100B800008BF20F00100704711F0804F21D113F110
:100B90003872BCBF01F00040704741F480114FEA49
:100BA0005252C2F11802C2F1200C10FA0CF320FAD2
:100BB00002F018BF40F001004FEAC1234FEAD323EF
:100BC00003FA0CFC40EA0C0023FA02F34FEA430359
:100BD000CCE77FEA625307D150EA01331EBF4FF0E2
:100BE000FE4040F44000704701F0004040F0FE40FD
:100BF00040F40000704700BF80F0004002E000BFFA
:100C000081F0004142001FBF5FEA410392EA030FF7
:100C10007FEA226C7FEA236C6AD04FEA1262D2EB41
:100C20001363C1BFD218414048404140B8BF5B4246
:100C3000192B88BF704710F0004F40F4000020F0DF
:100C40007F4018BF404211F0004F41F4000121F0F5
:100C50007F4118BF494292EA030F3FD0A2F101023F
:100C600041FA03FC10EB0C00C3F1200301FA03F17D
:100C700000F0004302D5494260EB4000B0F5000FA0
:100C800013D3B0F1807F06D340084FEA310102F15F
:100C90000102FE2A51D2B1F1004F40EBC25008BF11
:100CA00020F0010040EA03007047490040EB0000DB
:100CB000013A28BFB0F5000FEDD2B0FA80FCACF1DC
:100CC000080CB2EB0C0200FA0CF0AABF00EBC25009
:100CD00052421843BCBFD0401843704792F0000FF7
:100CE00081F4000106BF80F400000132013BB5E74A
:100CF0004FEA41037FEA226C18BF7FEA236C21D0C0
:100D000092EA030F04D092F0000F08BF0846704724
:100D100090EA010F1CBF0020704712F07F4F04D1F2
:100D2000400028BF40F00040704712F100723CBF05
:100D300000F50000704700F0004343F0FE4040F42F
:100D4000000070477FEA226216BF08467FEA2363ED
:100D50000146420206BF5FEA412390EA010F40F4D8
:100D6000800070474FF0000304E000BF10F0004324
:100D700048BF40425FEA000C08BF704743F096430B
:100D800001464FF000001CE050EA010208BF704726
:100D90004FF000030AE000BF50EA010208BF7047AD
:100DA00011F0004302D5404261EB41015FEA010CC2
:100DB00002BF84460146002043F0B64308BFA3F1BA
:100DC0008053A3F50003BCFA8CF2083AA3EBC2539C
:100DD00010DB01FA02FC634400FA02FCC2F12002BB
:100DE000BCF1004F20FA02F243EB020008BF20F0F2
:100DF0000100704702F1200201FA02FCC2F1200258
:100E000050EA4C0021FA02F243EB020008BF20EA4C
:100E1000DC7070474FF0FF0C1CEAD0521EBF1CEA7A
:100E2000D15392EA0C0F93EA0C0F6FD01A4480EA68
:100E3000010C400218BF5FEA41211ED04FF0006351
:100E400043EA501043EA5111A0FB01310CF000407D
:100E5000B1F5000F3EBF490041EAD3715B0040EAA3
:100E6000010062F17F02FD2A1DD8B3F1004F40EB73
:100E7000C25008BF20F00100704790F0000F0CF046
:100E8000004C08BF49024CEA502040EA51207F3A0A
:100E9000C2BFD2F1FF0340EAC250704740F40000E5
:100EA0004FF00003013A5DDC12F1190FDCBF00F0D6
:100EB00000407047C2F10002410021FA02F1C2F184
:100EC000200200FA02FC5FEA310040F1000053EA20
:100ED0004C0308BF20EADC70704792F0000F00F06E
:100EE000004C02BF400010F4000F013AF9D040EA74
:100EF0000C0093F0000F01F0004C02BF490011F408
:100F0000000F013BF9D041EA0C018FE70CEAD15305
:100F100092EA0C0F18BF93EA0C0F0AD030F0004C85
:100F200018BF31F0004CD8D180EA010000F0004039
:100F3000704790F0000F17BF90F0004F084691F0F7
:100F4000000F91F0004F14D092EA0C0F01D1420231
:100F50000FD193EA0C0F03D14B0218BF084608D1FA
:100F600080EA010000F0004040F0FE4040F4000044
:100F7000704740F0FE4040F4400070474FF0FF0CD7
:100F80001CEAD0521EBF1CEAD15392EA0C0F93EA1E
:100F90000C0F69D0A2EB030280EA010C49024FEA70
:100FA000402037D04FF0805343EA111143EA101329
:100FB0000CF000408B4238BF5B0042F17D024FF4E1
:100FC000000C8B4224BF5B1A40EA0C00B3EB510FBC
:100FD00024BFA3EB510340EA5C00B3EB910F24BFA5
:100FE000A3EB910340EA9C00B3EBD10F24BFA3EB2A
:100FF000D10340EADC001B0118BF5FEA1C1CE0D1F2
:10100000FD2A3FF650AF8B4240EBC25008BF20F0A4
:10101000010070470CF0004C4CEA50207F32C2BFF8
:10102000D2F1FF0340EAC250704740F400004FF095
:101030000003013A37E792F0000F00F0004C02BFC6
:10104000400010F4000F013AF9D040EA0C0093F090
:10105000000F01F0004C02BF490011F4000F013BEA
:10106000F9D041EA0C0195E70CEAD15392EA0C0F52
:1010700008D142027FF47DAF93EA0C0F7FF470AF8A
:10108000084676E793EA0C0F04D14B023FF44CAFCD
:1010900008466EE730F0004C18BF31F0004CCAD162
:1010A00030F000427FF45CAF31F000437FF43CAF9E
:1010B0005FE700BF4FF0FF3C06E000BF4FF0010CC0
:1010C00002E000BF4FF0010C4DF804CD4FEA4002A2
:1010D0004FEA41037FEA226C18BF7FEA236C11D0EC
:1010E00001B052EA530C18BF90EA010F58BFB2EB9F
:1010F000030088BFC81738BF6FEAE17018BF40F01F
:10110000010070477FEA226C02D15FEA402C05D1D2
:101110007FEA236CE4D15FEA412CE1D05DF8040B57
:10112000704700BF844608466146FFE70FB5FFF7EA
:10113000C9FF002848BF10F1000F0FBD4DF808EDA2
:10114000FFF7F4FF0CBF012000205DF808FB00BF93
:101150004DF808EDFFF7EAFF34BF012000205DF8ED
:1011600008FB00BF4DF808EDFFF7E0FF94BF01203A
:1011700000205DF808FB00BF4DF808EDFFF7D2FF37
:1011800094BF012000205DF808FB00BF4DF808ED7A
:10119000FFF7C8FF34BF012000205DF808FB00BF47
:1011A0004FEA40024FEA41037FEA226C02D15FEA34
:1011B000402C08D17FEA236C02D15FEA412C02D196
:1011C0004FF0000070474FF0010070474FEA4002B7
:1011D000B2F1FE4F0FD34FF09E03B3EB12620DD965
:1011E0004FEA002343F0004310F0004F23FA02F0CF
:1011F00018BF404270474FF00000704712F1610F76
:1012000001D1420205D110F0004008BF6FF000404C
:1012100070474FF00000704742000ED2B2F1FE4F0F
:101220000BD34FF09E03B3EB126209D44FEA0023B5
:1012300043F0004323FA02F070474FF0000070477C
:1012400012F1610F01D1420202D14FF0FF3070471D
:101250004FF00000704700BF53B94AB9002908BFDA
:1012600000281CBF4FF0FF314FF0FF3000F06AB98B
:10127000ADF1080C6DE904CE00F006F8DDF804E0ED
:10128000DDE9022304B070472DE9F047089D0C46C4
:10129000002B4ED194468C458646B2FA82F262D932
:1012A0004AB1C2F12003914020FA03F30CFA02FC88
:1012B000194300FA02FE4FEA1C471FFA8CF6B1FBF5
:1012C000F7F44FEA1E4307FB141143EA014304FB02
:1012D00006F199420AD91CEB030304F1FF3080F0B8
:1012E0001281994240F20F81023C6344591A1FFA5D
:1012F0008EF3B1FBF7F007FB101143EA014300FB4B
:1013000006F69E420AD91CEB030300F1FF3180F080
:10131000FC809E4240F2F980634402389B1B40EA05
:10132000044000211DB1D3400022C5E90032BDE8D0
:10133000F0878B4205D90DB1C5E9000100210846AF
:10134000F5E7B3FA83F1002946D1A34202D39042D4
:10135000C0F0F080861A64EB03030120002DE6D074
:10136000C5E90063E3E7002A40F09080A1EB0C049C
:101370004FEA1C481FFA8CF70121B4FBF8F64FEA3C
:101380001E4308FB164443EA044307FB06F0984259
:1013900008D91CEB030306F1FF3402D2984200F295
:1013A000CD8026461C1A1FFA8EF3B4FBF8F008FB1A
:1013B000104443EA044300FB07F79F4208D91CEBA3
:1013C000030300F1FF3402D29F4200F2B0802046B6
:1013D000DB1B40EA0640A5E7C1F120068B4022FA5C
:1013E00006F71F4320FA06FC04FA01F343EA0C0354
:1013F000F44000FA01F8380C4FEA1349B4FBF0FE50
:101400001FFA87FC00FB1E4449EA04440EFB0CF95A
:10141000A14502FA01F20AD93C190EF1FF3A80F017
:101420008480A14540F28180AEF1020E3C44A4EBE1
:1014300009041FFA83F9B4FBF0F300FB134449EAF3
:10144000044403FB0CFCA44507D93C1903F1FF300D
:1014500067D2A44565D9023B3C4443EA0E40A0FB59
:101460000293A4EB0C049C42CE469C4651D34ED032
:1014700055B1B8EB0E0364EB0C0404FA06F6CB404E
:101480001E43CC40C5E90064002150E7C2F12003AF
:1014900020FA03F10CFA02FC24FA03F394400C4303
:1014A0004FEA1C4800FA02FE1FFA8CF7B3FBF8F073
:1014B00008FB1031230C43EA014300FB07F199427A
:1014C00008D91CEB030300F1FF362CD299422AD92C
:1014D000023863445B1AA4B2B3FBF8F108FB113382
:1014E00044EA034401FB07F3A34208D91CEB0404BC
:1014F00001F1FF3613D2A34211D902396444E41A30
:1015000041EA004139E70446F0E6084606E7C845E7
:10151000AED2B9EB020E63EB070C0138A8E73146F7
:10152000EDE7034699E73046D4E7D6467FE76344C4
:1015300002384DE70646234608460FE7023E63445D
:1015400030E700BF704700BF0121402012F0B8BD56
:10155000F8B5154E154C338801339BB2B3F57A7F3D
:10156000338004D9E388A3800123E38033800025FE
:101570002F462278EBB29A4200D8F8BD637002334E
:1015800054F823309A8801329A803288B2F57A7FF3
:1015900024BFDA885A801A6928BFDF8012B11B7A0B
:1015A00003B190470135E4E726B4002028B40020B9
:1015B00073B500242246224B009441F28831214821
:1015C000214E12F0FBFE2246204B009440F6B8312B
:1015D0001F4812F0F3FE224621461E4B022012F055
:1015E0005DFC00F07CFD00F0D7FD1B491B4A1C4B45
:1015F000126E01254D63284691F8301000F082FAF2
:1016000001F0FAF8174B00942A464FF4FA6130467D
:1016100012F0D4FE304612F07DFF134A21464020DE
:1016200012F018FE2946402012F04AFD0F4B2246C8
:101630002146022002B0BDE8704012F02FBC00BF6E
:10164000A920000888B4002058B40020E520000834
:1016500070B40020598501086CB600203CB700200A
:101660008121000879430008491500087A8501089E
:101670000B4B0C4A196812780A441A601B68033332
:101680000CD9BFF34F8F0849084BCA6802F4E062D7
:101690001343CB60BFF34F8F00BFFDE7FFF758BF89
:1016A000CCD60020A4B1002000ED00E00400FA0533
:1016B00003680B4A934201D101F06AB9094A934287
:1016C0000DD1094A138801339BB2B3F57A7F138099
:1016D00005D3064BD98B59830021D98311807047DC
:1016E000004801400044014024B400206CB00020B8
:1016F000042802D0102802D0704702F089BE00F002
:10170000EFBC00002DE9F043012891B005460E46DC
:1017100040F0948000230A93D5238DF82C304A4B57
:1017200008934A4B4A4C09934A4B0D934A4B0C93EE
:1017300008A94A4B0E93204605F05EF828B14FF0F9
:10174000FF39484611B0BDE8F0830DF10301204692
:1017500004F02BFE0028F2D19DF803306B2BEED164
:1017600001A9204604F00EFC9DF806309DF80410F7
:101770009DF80520DFF8E8803A4FC8F804409B0048
:1017800043EA4103384913434B60F007374B7B6012
:1017900009D5012A07D1364A36491B68D16020464F
:1017A00098470028CBD1B10726D47207C7D47B68ED
:1017B000D8F80400DB6808A998478146002840D182
:1017C0009DF82040631E5C425C419DF82130012B56
:1017D0009DF822304FEA440408BF44F00104012B75
:1017E00008BF44F00404032735EA060313D0013F81
:1017F0004FEA4505F8D1A4E79DF80430012BD4D178
:101800001B4B1D4A1A617B68D8F804001B68984777
:101810000028CAD093E735EA0403E8D1174B144AED
:1018200053F82530D8F80400033352F823301B68EE
:1018300098470028DBD06FF0040982E76FF00109B8
:101840007FE76FF006097CE7B55E0008A15D000840
:10185000A0B40020255E0008F15D0008595E000874
:1018600000B50020E0B40020D8B400206CB1002006
:10187000E8B4002024B1002048B100209C85010874
:1018800001280B4610B5114619D80E4A52F82020EF
:1018900003EA0204934312D10B4A52F8242000EBCE
:1018A00040031344094A52F82330094A1B6A52F88C
:1018B00020009847002818BF6FF0040010BD6FF09B
:1018C0000100FBE7D8B400209C850108E8B40020A3
:1018D00000B50020012808B508D1064B586804F06F
:1018E00070FF002818BF6FF0040008BD6FF0010002
:1018F000FBE700BF00B50020012808B508D1064B62
:10190000586804F068FF002818BF6FF0040008BD95
:101910006FF00100FBE700BF00B500202DE9F043A8
:101920000F4691B0002878D17F238DF82C303E4BA4
:1019300008933E4B3E4C09933E4B0D933E4B0A9011
:101940000C9308A93D4B0E93204605F02DFC28B1C1
:101950004FF0FF34204611B0BDE8F0830DF10701D0
:10196000204605F0A3FB0028F2D19DF80730A02BFC
:10197000EED102A9204605F0EDFA314B9DF8082082
:10198000DFF8C080304D1A60F907304BC8F80040CE
:101990002B6009D5012A07D12D4A2E491B681160F9
:1019A000204698470028D3D12B68D8F80000DB6880
:1019B00008A99847044698BB9DF820506B1E5D42CD
:1019C0005D419DF82130012B9DF8223008BF45F084
:1019D0000205012B08BF45F004054FF0020901265E
:1019E00036EA070307D0B9F1010F4FEA4606B1D036
:1019F0004FF00109F4E736EA0503F4D1164BD8F8A5
:101A0000000053F82620124B53F822301B689847E9
:101A10000028E8D06FF004049CE76FF0010499E718
:101A20006FF0060496E700BFB55E0008A15D0008F0
:101A300008B50020255E0008F15D0008595E000829
:101A400040B5002060B5002048B5002090B10020CE
:101A500050B500207CB10020B0850108012808B5F0
:101A600018D80E4B53F8203001EA0302994311D1E4
:101A70000B4B53F822300B4A03EB400352F8233050
:101A8000094A1B6852F820009847002818BF6FF0D9
:101A9000040008BD6FF00100FBE700BF40B5002067
:101AA000B085010850B5002060B50020BFF34F8F0E
:101AB0000549064BCA6802F4E0621343CB60BFF3EA
:101AC0004F8F00BFFDE700BF00ED00E00400FA0506
:101AD00038B504460D4613F009FF291B013190FB70
:101AE000F1F303FB1100044413F000FF054603F07B
:101AF0001BFA023005EB5000A4B213F0C9FE2046D9
:101B000038BD00002DE9F341884615461E460746BC
:101B100005F0BEFC254CC4F8E00005F0BFFCC4F89D
:101B2000E40005F0C1FCD4E938325340C4F8E800C1
:101B3000584013F0ADFE002F1D4AC4F8F4600CBFEE
:101B40000123022313701B4A84F8DA7013701A4AB7
:101B50001A4BA4F8D88008BF134605F57A75002201
:101B6000C4F8EC50114600930220154B12F096F980
:101B7000144B1B7873B194F8DA30ABB9D4F8EC306D
:101B8000D4F8F02013600022009311460E4B02207F
:101B900012F084F94FF47A716420FFF799FF02B0D4
:101BA000BDE8F04103F0C8B90023E9E76CB50020B7
:101BB000A4000020A5000020C4850108C8850108F4
:101BC000CD85010868B50020F985010810B50A4CDB
:101BD0002378012B094B04BF44F620621A601B686E
:101BE0003BB9A0604EF660213220FFF771FFA36879
:101BF0000344A36010BD00BF6CB50020A00000200E
:101C000007B50B4B9B684EF66021B3FBF1F201FB6D
:101C100012334FF47A71B3FBF1F3CDE900230022C4
:101C2000044B1146022012F039F903B05DF804FBB1
:101C30006CB5002024860108074B10B5D3F8DC40B2
:101C40003CB9064B22462146022012F027F92046D5
:101C500010BD0120FCE700BF6CB500205F860108C5
:101C6000034B91F909205A80022283F8F92070472A
:101C70006CB5002030B5124B93F8D6400E2C1ED810
:101C8000651C83F8D650105593F8D600441C83F891
:101C9000D6400C0E145493F8D600441C83F8D6405A
:101CA0000C14145493F8D600441C83F8D6400C123C
:101CB000145493F8D600441C83F8D640115430BD18
:101CC0006CB5002010B501231078984200D210BDE9
:101CD000C818D45C00F8014C0133DBB2F4E7000013
:101CE00037B5304D304CB5F90230626A9A4207D0B0
:101CF0002046042240F8243F4FF4816100F0EEF9C1
:101D000095F8F930D4F8C4209A4207D02748C4F88F
:101D1000C43004224FF4956100F0E0F995F8FA30F0
:101D2000D4F8C8209A4207D02148C4F8C830042209
:101D300040F2AC4100F0D2F9D5F8F03000221B6837
:101D4000009311461B4B022012F0A8F8AB790093C8
:101D500000221146184B022012F0A0F8B4F92430EA
:101D6000009300221146154B022012F097F8D4F888
:101D7000C420134B142505FB0233002200931146A7
:101D8000104B022012F08AF8D4F8C8200E4B05FB45
:101D900002330022009311460C4B022012F07EF811
:101DA00003B030BD6CB500206CB6002030B7002009
:101DB00034B700207D860108A7860108C686010881
:101DC00050000020E286010800000020038701087F
:101DD00037B50546FFF730FF00283FD0204CB5B996
:101DE000022384F8F93042F21073A360A571D4F88D
:101DF000DC0012F041FBA168D4F8DC0012F0C4FB57
:101E0000D4F8DC0003B0BDE8304012F083BB637946
:101E10000133DBB200226371114600930220114BA3
:101E200012F03CF863790E2B4FF0000510D9B4F88E
:101E3000D8300D4865715843FFF7C8FE012384F878
:101E4000F93084F8FA30FFF74BFFFFF7D9FECEE701
:101E500049F64040FFF7BAFE2B46F0E703B030BD2D
:101E60006CB500202487010880EE360073B55B4C0A
:101E70005B4AD4F8F030C4F8DC101968914205468A
:101E800008D900201860574B1B78012B5AD1D4F881
:101E9000F430984794F8F8202B78A12A40F08680F7
:101EA000002B00F09780032684F8F9606D7A002DEE
:101EB0004DD123790133DBB223712A4600932946A1
:101EC000494B022011F0EAFF23796580092B84F841
:101ED000FA6039D9434B25711B780226012B84F80F
:101EE000F96023D1D4E93B2329461A6030463F4BA1
:101EF0002A4611F0D3FFB4F8D8303D48A5715843B5
:101F0000FFF764FEFFF7ECFEFFF77AFED4F8DC0083
:101F100012F0B2FAA168D4F8DC0012F035FBD4F864
:101F2000DC0012F0F7FAA06802B070BDFFF7D8FE2F
:101F3000304B2A462946304611F0B0FF4FF47A70F4
:101F400002F0FAFFFFF7B2FD49F64040D8E700255E
:101F5000294B25712A462946022011F09FFFA379BB
:101F6000217B0133DBB20222994284F8FA20A3716B
:101F70000FD942F21073A3601A4B1B78012BC1D109
:101F8000D4F8F0301868C4F8EC00D4F8F43098476E
:101F9000B8E7012384F8FA301548B4F8D83084F84B
:101FA000F9205843A571FFF711FEE5E793B10D4BFA
:101FB0001B78012B04BFD4F8EC30EB600022A12386
:101FC00084F8F83011460D4B022011F067FFFFF73F
:101FD00017FEA8E7002384F8F830A4E76CB50020CA
:101FE000EED8FFFFA400002046870108678701089C
:101FF00080EE36008F870108B9870108DF87010866
:10200000F8B5274C012384F8D630264B5A6B1B6B4E
:10201000A4F8D830A37984F8DA200327012B0546E9
:102020000E4627731FD0022B2CD00BB10023A371B7
:1020300094F8F830A279A12B14BF0023032384F86D
:10204000F93094F8D630142101FB0242013BDBB297
:1020500093733370A07901FB00420E322946BDE82C
:10206000F840FFF72FBE04F1220202200021FFF703
:1020700001FEA279142303FB02420E323846FFF719
:10208000F9FDD5E704F1360204200021FFF7F2FD47
:10209000A279142303FB02420E320420EFE700BFB3
:1020A0006CB500206CB6002010B5094C237873B1D4
:1020B000084812F0E1F908480022202106F048FB08
:1020C00005480022802106F043FB0023237010BD49
:1020D00068B6002088B400200004004870477047AC
:1020E00070470000002208B511460A4B022011F08B
:1020F000D5FE4FF4FA7002F01FFFBFF34F8F064971
:10210000064BCA6802F4E0621343CB60BFF34F8F03
:1021100000BFFDE7FD87010800ED00E00400FA05BF
:1021200010B5144C20460FF00DFE04F124010020E0
:102130000FF068FD04F1140101200FF063FD04F1BC
:10214000340109200FF05EFD04F1440108200FF076
:1021500059FD00221146084B022011F09FFE0FF09E
:102160008FFE0022BDE81040044B1146022011F002
:1021700095BE00BF48B700201A88010848880108AA
:10218000044B43F8600F04224FF494711846FFF794
:10219000A5BF00BF3CB70020034B012283F8DA2023
:1021A00000221A70FFF7BCBF6CB500200C4B9022C8
:1021B0001A760C4A1269082A0DD004DC022A05D0CE
:1021C000042A06D07047102A07D0704700221A75DB
:1021D00070470822FBE70C22F9E70422F7E700BF6B
:1021E0003C200020580400202DE9F843674D684C3E
:1021F000AE686378B6F5806F39D2002B35D0654F65
:102200006549B868FEF7BAFE0146FEF703FEFEF721
:1022100073F902460B46D4E90C01FEF70FF8C4E946
:102220000C015D49F868FEF7A9FE0146FEF7F2FDD4
:10223000FEF762F902460B46D4E90E01FDF7FEFFF8
:10224000C4E90E0154493869FEF798FE0146FEF7CD
:10225000E1FDFEF751F902460B46D4E91001FDF706
:10226000EDFFC4E910010136AE60BDE8F883002B34
:10227000FBD04A4B0022D4E90C01FEF795F9FEF79A
:102280006BFC15F0EBFFFEF737F9444B0022C4E975
:102290001201D4E90E01FEF787F9FEF75DFC15F097
:1022A000DDFFFEF729F93D4B0022C4E91401D4E912
:1022B0001001FEF779F9FEF74FFC15F0CFFFFEF79E
:1022C0001BF90222C4E9160116210120FFF714FBB5
:1022D000082215210120FFF70FFBD4E91889D4E962
:1022E000120142464B46FEF789FAFEF70DFC46B254
:1022F00042464B46D4E9140184F86860FEF77EFA42
:10230000FEF702FC4B46424684F86900D4E9160108
:10231000FEF774FAFEF7F8FBF2B284F86A00732154
:102320000120FFF7E9FA94F8692074210120FFF7F2
:10233000E3FA94F86A2075210120FFF7DDFA712293
:102340005C210120FFF7D8FA124B5B211A7801209B
:10235000FFF7D2FA002256210120FFF7CDFAC02262
:1023600058210120FFF7C8FAE0225E210120FFF783
:10237000C3FA0023AB6063706B7C002B7FF475AFF6
:10238000BDE8F843064808F0EDB800BF6CB0002087
:10239000580400203C20002000007A440000503FF8
:1023A00068D2002038B5284B1B69082B3BD004DCD1
:1023B000022B15D0042B25D038BD102BFCD1234D7A
:1023C000234CB5F9000004F077FAA060B5F90200DB
:1023D00004F072FAE060B5F9040004F06DFA0FE061
:1023E0001A4D1B4CB5F9000004F048FAA060B5F98D
:1023F000020004F043FAE060B5F9040004F03EFA8C
:102400002061D9E7114D124CB5F9000004F040FAF3
:10241000A060B5F9020004F03BFAE060B5F90400F1
:1024200004F036FAECE7094D094CB5F9000004F068
:1024300039FAA060B5F9020004F034FAE060B5F9A9
:10244000040004F02FFADBE7580400206C20002081
:102450003C200020000000002DE9F8438C4E8D4CFC
:10246000D6F80890A378B9F5806F2CD24BB3D4F886
:102470008830032B5FDC884A216F9368D768156921
:1024800023F0004827F0004725F00045C4F87C8081
:10249000C4F88070C4F884504046FEF777FE08B157
:1024A000C4F87080616F3846FEF770FE00B1676750
:1024B000A16F2846FEF76AFE00B1A56709F1010386
:1024C000B360BDE8F883002BFBD0D4F88830032B31
:1024D00031DC616F206F15F0DBFEA16F15F0D8FEC7
:1024E0006E490546FEF748FE002840F0B7806C496B
:1024F0002846FEF741FE002840F0B2806949284690
:10250000FEF73AFE002814BF042302232361C4F817
:102510008C50FFF74BFE604B1A7D1B7E10211A4337
:102520000120FFF7E9F9D4F888300133C4F8883086
:10253000A378002BC5D0D4F88830042BC1D1A06873
:10254000FDF7DAFF4AA3D3E90023FEF72DF84AA3EB
:10255000D3E90023FEF728F880468946606852498F
:10256000FEF70CFDFDF7C8FF42464B46FEF71CF890
:10257000FEF7F2FA0546A0612069FEF7F7FB014677
:102580004FF08740FEF7FAFC484907462846FEF719
:1025900041FC01463846FEF73DFC39A3D3E9002350
:1025A000054649464046FDF7FFFFFEF7D5FA13F012
:1025B000D3F801462846FEF72DFCFDF79DFF32A318
:1025C000D3E90023FEF71AF9FEF7C6FA4FF07E5161
:1025D0000546FEF7C7FD002844D135492846FEF7D9
:1025E000CBFD002840D12846FEF716FE40F0400300
:1025F000DBB2294F71223B705C2100230120C4F81B
:102600008430C4F88030E367C4F88C30A367636714
:1026100023677D60FFF770F93A785B210120FFF7AF
:102620006BF9002256210120FFF766F9C0225821DC
:102630000120FFF761F9E0225E210120FFF75CF93C
:102640000023B360A370C4F88830737C002B7FF440
:1026500038AFBDE8F843174807F084BF102355E7AB
:10266000082353E74123C4E77F23C2E7AFF3008089
:102670000492B06F2711913F00000060FB211940C8
:10268000000000C0E9A8233F05A3923A019D334012
:102690006CB00020580400203C2000200000AF4512
:1026A00000002F450000AF4400007A44F304B53F1A
:1026B00000007C4268D200202DE9F047374DDFF85A
:1026C000E0A0DFF8E09000244FF07E582046FEF7AF
:1026D0004DFB5146FEF79EFB4946FEF74FFC13F0BB
:1026E00087F801464046FEF78BFA4FF07C51FEF723
:1026F00091FB05F5804706460146B868FEF78AFB60
:10270000B86005F500573146B868FEF783FBB8603E
:10271000A8683146FEF77EFB0134B4F5806F45F8BA
:10272000080FD3D120492148214F12F0CBFE214977
:102730001E4812F0C7FE20491C4812F0C3FE1F4974
:102740002246A1F5005012F043FF1D492246A1F593
:10275000A04012F03DFF1B492246A1F5004012F0B7
:1027600037FF174C00254FF06E5657F8040F3146CF
:10277000FEF750FB386020683146FEF74BFB44F80B
:10278000040B3146D4F8FC0FFEF744FB0135B5F5D8
:10279000806FC4F8FC0FE8D1BDE8F0876C20002002
:1027A000DB0FC94000C07F4474600020A0D100202E
:1027B000708000207440002074200020748000206D
:1027C0007490002074A0002070B1012814BF032071
:1027D000022059B1012914BF03230223834206DDDD
:1027E0000A2202FB003070470120F2E701230A228F
:1027F00002FB0300704700002DE9F84300255C4C04
:102800005C48A57001232A464FF4806112F03AF823
:102810002580594CE58004F51044237E0BB9607E79
:1028200010B10020BDE8F8830121FFF777F80028F8
:1028300040F083800121FFF711F9003818BF012013
:102840004000B0FA80F0637E40092076002BE4D18E
:1028500002210120FEF756FF002874D1474DDFF812
:102860002091EB6A98472B7E2A7D10211A43012084
:10287000FFF742F8D9F80800FDF73EFE34A3D3E98C
:102880000023FDF791FE34A3D3E90023FDF78CFE6E
:1028900006460F46D9F804003A49FEF76FFBFDF7EC
:1028A0002BFE32463B46FDF77FFEFEF755F980468C
:1028B000C9F81800D9F81000FEF758FA01464FF091
:1028C0008740FEF75BFB304981464046FEF7A2FA9F
:1028D00001464846FEF79EFA21A3D3E9002380462D
:1028E00039463046FDF760FEFEF736F912F034FF48
:1028F00001464046FEF78EFAFDF7FEFD1AA3D3E926
:102900000023FDF77BFFFEF727F94FF07E510646C7
:10291000FEF728FC98B91D493046FEF72DFC80B91A
:102920003046FEF779FC40F04003DBB22B706E605E
:10293000002383F0010363766FE7012081E74123E1
:10294000F4E77F23F2E70123F3E700BFAFF3008052
:102950000492B06F2711913F00000060FB211940E5
:10296000000000C0E9A8233F05A3923A019D33402F
:102970009CD10020A0D100206C2000203C20002011
:102980005804002000007A44F304B53F00007C4264
:1029900037B5214CE38B94F826500133E38315BB04
:1029A000637E012084F82600D3B1A4F510420221F1
:1029B000FEF766FF08B3194803F050FA228C531C47
:1029C0009BB2092A238410D9154B1648DD70258443
:1029D00007F0C8FD144B2A462946022011F05EFA82
:1029E000002384F8263003B030BD00932A460F4BF5
:1029F0002946022011F052FAF2E70D4B0D4D2084CA
:102A00009B6A9847EB699847AB6A98472B6A984747
:102A10006B6A9847E4E700BF6CB0002078D60020CE
:102A20009CD1002068D20020738801089788010893
:102A30003C2000205804002038B50D4623490446A8
:102A4000FEF786FB18B14FF07E532B6038BD1F494F
:102A50002046FEF791FB28B11D492046FEF778FB82
:102A60000028F0D11A492046FEF786FB28B1194903
:102A70002046FEF76DFB0028E5D116492046FEF7FB
:102A80007BFB28B114492046FEF762FB0028DAD10F
:102A900011492046FEF770FB28B110492046FEF789
:102AA00057FB0028CFD10D492046FEF765FB28B122
:102AB0000B492046FEF74CFB0028C4D108492046AC
:102AC000FEF75AFB0028BED1C0E700BF00007A41E4
:102AD000008022420080A24200601F4300F0A04319
:102AE000002820442DE9F84F002481468A46934669
:102AF0009846002526462746ABB298451DD8404645
:102B0000FEF734F9014605463846FEF737FA15F068
:102B1000A5FB0A9B294618603046FEF72FFA15F0F0
:102B20009DFB0B9B294618602046FEF727FA15F0FF
:102B300095FB0C9B1860BDE8F88F59F835100846D6
:102B4000FEF768F901463846FEF75CF85AF835108A
:102B500007460846FEF75EF901463046FEF752F892
:102B60005BF8351006460846FEF754F90146204644
:102B7000FEF748F801350446BEE7000000000000FB
:102B80002DE9F74F3A4B3B4CD3F81C38019327689B
:102B90006668A568DFF8E0A000239B46019A93458C
:102BA00025D143B1009B6361C4F81890C4F81C8020
:102BB00027606660A5602668304615F04FFB6768A1
:102BC0002062384615F04AFBA5686062284615F079
:102BD00045FB3946A0623046FEF714F82946FEF759
:102BE00011F815F03BFBE06003B0BDE8F08F1EA3C9
:102BF000D3E90023FAE90201FDF700FEFDF7ACFF7F
:102C000019A3D3E900230090DAE92001FDF7F6FDCE
:102C1000FDF7A2FF14A3D3E900238146DAE94001BE
:102C2000FDF7ECFDFDF798FF009980460846FEF79A
:102C3000F1F801463846FDF7E5FF494607464846A4
:102C4000FEF7E8F801463046FDF7DCFF4146064650
:102C50004046FEF7DFF801462846FDF7D3FF0BF1AB
:102C6000010B0546012399E7000000609EA0F63F96
:102C700010180020C0B7002008B800200000000095
:102C80002DE9F04F144B95B01B7D13910446002B9A
:102C900040F08A81114A0792114A0692114A049221
:102CA0000F4A1293A2F1180A0E4A4FF00009A2F13E
:102CB000100BDDE912128A421ADC53B10A4B029A58
:102CC000C3F808805F601E60084B5A60009A9D60E0
:102CD0001A6015B0BDE8F08F5804002008B8002035
:102CE00098020020C0000020B000002080020020D8
:102CF000206AFDF701FCA8A3D3E90023FDF754FCEB
:102D0000FDF72AFF8046E069FDF7F6FBA2A3D3E9B1
:102D10000023FDF749FCFDF71FFF0746A069FDF7FB
:102D2000EBFB9DA3D3E90023FDF73EFCFDF714FF69
:102D3000079B0646F3E902010793FDF70DFF079B8A
:102D400060610090D3E92001FDF706FF079B206139
:102D50000290D3E94001FDF7FFFE9149E06005468E
:102D60004046FEF757F8009A01461046FEF706F96E
:102D70000090FDF7C1FBCDE90801DDE908230699C4
:102D80003846C1E94A238649FEF744F8029B0146CA
:102D90001846FEF7F3F80290FDF7AEFBCDE90A0105
:102DA0000699DDE90A233046C1E926237C49FEF76E
:102DB00031F801462846FEF7E1F80546FDF79CFB91
:102DC000CDE90C01DDE90C230699E1E90223404637
:102DD0000691FDF791FB02460B46DDE90801FDF780
:102DE0000DFDCDE90E01DDE90E2304993846C1E958
:102DF0004A23FDF781FB02460B46DDE90A01FDF798
:102E0000FDFC049B07468846C3E926783046FDF75B
:102E100073FB02460B46DDE90C01FDF7EFFCCDE943
:102E20001001DDE910230499E1E902230022049155
:102E30004FF48013DDE90801FDF728FE08B1CDF855
:102E40000090DDE90A0100224FF48013FDF71EFE19
:102E500008B1CDF80890DDE90C0100224FF4801391
:102E6000FDF714FE00B14D46DDE90E0100224FF4DE
:102E70008013FDF70BFE002840F08780494B0022AD
:102E8000DDE90E01FDF790FBFDF766FE0646002228
:102E90004FF4801338464146FDF7F8FD002876D1FF
:102EA000404B002238464146FDF77EFBFDF754FEBD
:102EB0000746DDE9100100224FF48013FDF7E6FD1F
:102EC000002866D1374B0022DDE91001FDF76CFBCD
:102ED000FDF742FE804600990846FDF79BFFFDF78F
:102EE0000BFB02460B46DAE94E01FDF7A7F9CAE9EA
:102EF0004E0102990846FDF78DFFFDF7FDFA0246E7
:102F00000B46DAE92A01FDF799F9CAE92A012946AF
:102F10002846FDF77FFFFDF7EFFA02460B46DAE998
:102F20000601FDF78BF9CAE9060131463046FDF787
:102F300071FFFDF7E1FA02460B46DBE94C01FDF7B4
:102F40007DF9CBE94C0139463846FDF763FFFDF7C3
:102F5000D3FA02460B46DBE92801FDF76FF9CBE90E
:102F6000280141464046FDF755FFFDF7C5FA0B46DF
:102F70000246DBE90401FDF761F9129B013312936C
:102F8000CBE904013034012393E64E467FE74F46F8
:102F90008FE7C8469FE700BF182D4454FB21194016
:102FA000F304B53F00408F40B94BBA4C186ADFF8C4
:102FB000E8B2FDF7D7FE0146FDF724FE4FF06A5157
:102FC000FDF728FF06462068FDF7D0FE4FF07C5144
:102FD000FDF720FF3146FDF71DFF0546E060606804
:102FE000FDF7C4FE4FF07C51FDF714FF3146FDF7AD
:102FF00011FF20618146A068FDF7B8FE4FF07C51BB
:10300000FDF708FF3146FDF705FFA44960618046E2
:103010002846FEF7BBF800284CD02846FDF76CFA8E
:1030200099A3D3E90023FDF7BFFAFDF795FDDBE98E
:103030004E23DFF86CA2CDE90023DAE94C23CDE979
:103040000223984B04460146D86AFDF797FFFDF727
:1030500053FA06460F462046CBE95067FDF74CFA77
:1030600002460B4630463946FDF7C8FB04460D467E
:1030700032463B46CAE94E4530463946FDF794FA9A
:10308000DDE90023FDF7DAF8874BCBE94E0100229A
:1030900020462946FDF788FA22462B46FDF784FA9A
:1030A000814B0022FDF780FADDE90223FDF7C6F827
:1030B000CAE94C0179494846FEF768F800284CD027
:1030C0004846FDF719FA70A3D3E90023FDF76CFA1F
:1030D000FDF742FDDBE92A34DFF8C491CDE9003485
:1030E000D9E92834CDE902346E4B06460146186B07
:1030F000FDF744FFFDF700FA04460D463046CBE9E4
:103100002C45FDF7F9F902460B4620462946FDF706
:1031100075FB06460F4622462B46C9E92A6720461C
:103120002946FDF741FADDE90023FDF787F85E4BFC
:10313000CBE92A01002230463946FDF735FA3246FE
:103140003B46FDF731FA584B0022FDF72DFADDE939
:103150000223FDF773F8C9E9280150494046FEF7FC
:1031600015F800284AD04046FDF7C6F9DFF830A12F
:1031700045A3D3E90023FDF717FAFDF7EDFCDAE9E3
:103180000423CDE90023474B04460146586BFDF765
:10319000F5FEFDF7B1F906460F462046CBE9086774
:1031A000FDF7AAF902460B4630463946FDF726FBE5
:1031B000DBE9068904460D4632463B46CAE9064528
:1031C00030463946FDF7F0F942464B46FDF736F8F2
:1031D000354BCBE90601002220462946FDF7E4F9EC
:1031E00022462B46FDF7E0F92F4B0022FDF7DCF9D4
:1031F000DDE90023FDF722F8CAE90401DFF898B001
:10320000DFF89CA0DBE9508942464B4640464946E0
:10321000FDF7CAF902460B46DBE94E01FDF70EF851
:10322000DBE92C45CBE94E0122462B4620462946B8
:10323000FDF7BAF902460B46DBE92A01FCF7FEFF6F
:10324000DBE90823CBE92A0120462946CDE90423FE
:10325000FDF7AAF902460B46DBE90601FCF7EEFF93
:10326000DAE94E23CBE9060110461946CDE90023E1
:10327000FDF79AF902460B46DAE94C01FCF7DEFF4E
:1032800014E000BFAFF30080182D4454FB21194017
:103290003C200020A8B70020800200200000484009
:1032A000B0000020C0B7002000408F40DAE92A2398
:1032B000CAE94C0110461946CDE90223FDF774F91D
:1032C00002460B46DAE92801FCF7B8FFDAE906679F
:1032D000CAE9280132463B4630463946FDF764F9D3
:1032E00002460B46DAE90401FCF7A8FF1C4BCAE9C9
:1032F0000401002240464946FDF756F9184BCBE938
:103300005001002220462946FDF74EF9144BCBE927
:103310002C010022DDE90401FDF746F90EA3D3E9F3
:103320000023CBE90801DDE90001FDF73DF90AA31F
:10333000D3E90023CAE94E01DDE90201FDF734F9C2
:1033400005A3D3E90023CAE92A0130463946FDF72F
:103350002BF9CAE90601BCE40000000080842E417C
:1033600000408F402DE9F04F8DB000AF1C46BB6D83
:103370007A60073323F00703ADEB030DC7E90210B2
:10338000BA6DC7F828D00021684613F04AF804F552
:1033900040733B61BB6D1E3B3B607B6803F10C0AD5
:1033A000BB6803F10C09FB68002503F10C0800233E
:1033B0000426BD61FD62FB613B627B624EE0731CD3
:1033C0007B61BB6A9B5D002B41D1D8F804B0796A60
:1033D0005846FDF7DBFE70B1D8F800105846FDF7EF
:1033E000D5FE40B1D8F808105846FDF7CFFE10B111
:1033F000FE62C7F824B0D9F804B0396A5846FDF720
:10340000C5FE70B1D9F800105846FDF7BFFE40B1B7
:10341000D9F808105846FDF7B9FE10B1BE61C7F8DB
:1034200020B0DAF804B0F9695846FDF7AFFE70B184
:10343000DAF800105846FDF7A9FE40B1DAF8081096
:103440005846FDF7A3FE10B13546C7F81CB07E699B
:103450000AF1040A09F1040908F104083B68B342BF
:10346000ADD87B6AA3603B6A6360FB692360FB6A3B
:10347000E362BB69BA69F96AC4E90953FB6A023DB0
:10348000023B023A0331002B05DBB86D9842C2BF04
:10349000B86A0126C654002A05DBB86D9042C2BF47
:1034A000B86A01268654002D05DBB86DA842C2BF5C
:1034B000B86A012646550133994205F1010502F12A
:1034C0000102E0D13B6930349C427FF466AF34376F
:1034D000BD46BDE8F08F00002DE9F04F8FB0464C9F
:1034E000464A47494748DFF820B1484D4FF400733A
:1034F0000093464BFFF736FF206AFDF733FC014689
:10350000FDF780FB0026DBF828386062DBF82498A2
:10351000DBF820A8DBF81C4805900393A846374643
:103520000399D8F80800FDF731FE68B1D8F8040017
:103530004946FDF72BFE38B1D8F800005146FDF79B
:1035400025FE08B1013401260137102F08F130089B
:10355000E6D10EB1CBF81C48DBF81C3813B90123B7
:10356000CBF81C382A4B039300230493264B049A70
:10357000D3F81C38274C934205F1300552D8234D1F
:10358000EB6A286A03F50053023354F82320224BD8
:103590001A60AB6A03F5E053023354F823201F4B43
:1035A0001A606B6A03F5C053023354F823201C4B96
:1035B0001A60FCF7A1FF02460B46D5E9C401FCF7EF
:1035C0003DFEC5E9C401E869FCF796FF02460B46DB
:1035D000D5E9C601FCF732FEC5E9C601A869FCF7CA
:1035E0008BFF02460B46D5E9C801FCF727FEC5E96B
:1035F000C8010FB0BDE8F08F3C2000209CB900202E
:103600009CC100209CC9002010180020E804002064
:1036100008B800206C20002098B9002094B9002040
:1036200090B9002055F8046CDFF834A206F5005379
:10363000013354F8238006F500530333404654F811
:1036400023703946FDF7DCFA07903046FDF78AFB18
:1036500001460D90FDF7D6FA01464046FDF7D0FA37
:103660003946FDF7CFFA01460798FDF787FC4FF082
:103670007C51FDF7CFFB55F8088CCAF8040308F518
:10368000E0520132089054F8229008F5E0520332DB
:10369000484654F822703946FDF7B2FA0990404680
:1036A000FDF760FB01468346FDF7ACFA014648464C
:1036B000FDF7A6FA3946FDF7A5FA01460998FDF788
:1036C0005DFC4FF07C51FDF7A5FB55F80C7CCAF86A
:1036D000080307F5C05207F5C0510331013254F811
:1036E000213054F822200A901946104606930C9275
:1036F000FDF786FA07F5C05102310B9054F821907E
:1037000049464846FDF77EFA0C9A01461046FDF7F9
:1037100077FA0699FDF776FA01460B98FDF72EFC2D
:103720004FF07C51FDF776FB4FF06A51CAF80C035D
:1037300006900598FDF76EFB0D9B824601461846E4
:10374000FDF768FB514645F8100C0C905846FDF704
:1037500061FB834645F8140C3846FDF703FB5146E0
:10376000FDF758FB0C9B3F4945F8180C074606F53A
:1037700000561846FFF760F9023658463A49FFF7F7
:103780005BF938463949FFF757F954F82600FCF73A
:10379000B3FE824607988B46FCF7AEFE344B002200
:1037A000FCF702FF064608980F46FCF7A5FE024606
:1037B0000B4630463946FCF7F7FE02460B465046AC
:1037C0005946FCF739FD039B08F5E058E3E902018F
:1037D00008F10208039354F82800FCF78DFE824696
:1037E00009988B46FCF788FE214B0022FCF7DCFE93
:1037F00006460A980F46FCF77FFE02460B46304607
:103800003946FCF7D1FE02460B4650465946FCF7B6
:1038100013FD039BC3E920014846FCF76DFE0646F5
:103820000B980F46FCF768FE114B0022FCF7BCFE1C
:10383000804606988946FCF75FFE02460B464046E6
:103840004946FCF7B1FE0B46024639463046FCF7C6
:10385000F3FC039BC3E94001049B013385E600BFF1
:10386000E804002004B8002008B800200CB80020AC
:103870000000D03F2DE9F84F0546061FDFF8A8A04D
:10388000D0F8FC0789469046002440F2FF1B56F80A
:10389000041F5C450CBF2F687768FDF7B3F9394604
:1038A000FDF7B0F95146FDF769FB48F824000134F3
:1038B000B4F5007F05D03068E9E7214617E02046DF
:1038C00029E0002500244FF07E5A00272646EB1BF6
:1038D000C3F30803214658F823B05846FDF756FCB9
:1038E0000028EAD059465046FDF748FB01463046CD
:1038F000FDF788F90137332F0646E8D10B49FDF76C
:103900003DFB21460646FDF741FC0028D7D0314655
:103910005046FDF733FB49F825000135B5F5007F2A
:10392000D3D1BDE8F88F00BF0000404000004C42FA
:103930002DE9F0412C4A2D492D482C4CFFF79AFFD8
:103940002C4A2D492D48FFF795FF2D4A2D492E4829
:10395000FFF790FF00254FF400782E462F4654F8CD
:10396000041B3846FDF74EF9D4F8FC1707463046DD
:10397000FDF748F9D4F8FC1F06462846FDF742F942
:10398000B8F101080546EAD1204C4FF06C51E760D0
:10399000266160613846FDF73DFA4FF06C512060BA
:1039A00007463046FDF736FA4FF06C516060064628
:1039B0002846FDF72FFA1649A06005463846FDF760
:1039C00029FA04F580541249C4F828083046FDF756
:1039D00021FA0F49C4F824082846FDF71BFAC4F859
:1039E0002008BDE8F08100BF9CC900202808002005
:1039F00074A000209CC1002028100020749000209A
:103A00009CB9002028180020748000201008002095
:103A10000000A04038B5184C4FF400552A4600214C
:103A2000204612F0FEFC2A460021A4F5005012F0B8
:103A3000F8FC2A4600214FF48055A4F5804012F08E
:103A4000F0FC2A46002104F5005012F0EAFC2A4658
:103A5000002104F5405012F0E4FC2A46002104F550
:103A6000804012F0DEFC054B00229A605A601A601A
:103A7000034B00229A6038BD74600020C0B700205C
:103A80006CB000202DE9F04F8FB006460193189BD3
:103A90000893199B09931A9B0A934B4B059018683E
:103AA0004A4B0091069119680C91904607920B9031
:103AB000FDF74EFB041E18BF01240EAB03EB84037D
:103AC00053F80C1C424B1868FDF760FB002875D1B9
:103AD00084F0010A4FF002090EAB03EB840503EBFF
:103AE000890755F8182C57F8181C03921046FDF753
:103AF00087F820F0004302930EAB03EB8A0B039A86
:103B00005BF8181C1046FDF77BF8324920F00040A6
:103B1000FDF728FB029BA8B92E4955F8246C1846DE
:103B2000FDF720FB00283AD1304614F097FB2A49D4
:103B3000FDF770F90546002C3ED0012C14BF032080
:103B4000022029E023491846FDF70CFBA0B100999B
:103B50003046FDF757F84146FDF754F814F07EFB68
:103B60001D49FDF757F905461C48019B1D601C4B7C
:103B700018610FB0BDE8F08F5BF8241C55F8240CD9
:103B8000FDF740F814F06AFB1349FDF743F951467D
:103B900005462046FEF718FEFDF7E8F8E5E757F87A
:103BA000241C3046FDF72EF814F058FB0A49FDF7A7
:103BB00031F949460546ECE70120EDE74FF0000AF0
:103BC00002244FF0010987E798B9002094B900203A
:103BD00090B900200000A04000007A440000F642A6
:103BE000800200202DE9F04FDFF8B0A0DAE90645A9
:103BF00087B029462046FCF7AFFF059014F02EFB56
:103C00002749FDF707F9FCF777FCDAE92A67CAE9E3
:103C1000280139463046FCF79FFF834614F01EFB0F
:103C20001F49FDF7F7F8FCF767FCDAE94E89CAE9A6
:103C30004C0149464046FCF78FFF049014F00EFB00
:103C40001749FDF7E7F8FCF757FC164B059ACAE948
:103C5000700199690291D96901911B6A04980093D6
:103C600059460AF10C03FFF70DFF42464B4630461A
:103C70003946FCF7E3FA22462B46FCF7DFFAFCF75D
:103C80006BFF14F0EBFA0649FDF7C4F8FCF734FCBF
:103C9000CAE9720107B0BDE8F08F00BF80020020C2
:103CA00000007A44E80400202DE9F04FDFF8B0A0CE
:103CB000DAE9044587B029462046FCF74DFF059018
:103CC00014F0CCFA2749FDF7A5F8FCF715FCDAE962
:103CD0002867CAE9260139463046FCF73DFF83468E
:103CE00014F0BCFA1F49FDF795F8FCF705FCDAE97A
:103CF0004C89CAE94A0149464046FCF72DFF049029
:103D000014F0ACFA1749FDF785F8FCF7F5FB164BF4
:103D1000059ACAE96E0199690291D96901911B6AF4
:103D20000498009359460AF10C03FFF7ABFE424694
:103D30004B4630463946FCF781FA22462B46FCF7C3
:103D40007DFAFCF709FF14F089FA0649FDF762F8DD
:103D5000FCF7D2FBCAE9700107B0BDE8F08F00BFE5
:103D6000B000002000007A44E80400202DE9F04F64
:103D70000022934D934B95B01146022010F08EF81F
:103D8000AB68B3F5806F40F018818F4C0294221F0E
:103D90000192A4F1080200928C4AA4F13408A2F521
:103DA0000051A1F50050FEF79DFED8F82C10D8F870
:103DB0003070D8F834600846FDF72CF839460446D0
:103DC0003846FDF727F801462046FCF71BFF314631
:103DD00004463046FDF71EF801462046FCF712FF68
:103DE00014F03CFA7A4BC8F838001F7D002F40F0E1
:103DF0000581FEF761FCFFF79BFDFFF76DFBFEF70A
:103E0000BFFE744B744CB3F81C182046FEF738FF05
:103E10006F4B1B7D002B00F06681D8F82C3005938A
:103E20006E4B059A1A60D8F8303012936C4B129A88
:103E30001A606C4D6C4BD8F834A0C3F800A0D5E9DB
:103E40004E34CDE90634D5E92A34CDE90834D5E934
:103E50000634CDE90A34654BDDE90A01DE681F69E5
:103E6000D3F814B0FCF778FE8146DDE90801FCF7D1
:103E700073FE0446DDE90601FCF76EFE21465C4C4C
:103E8000CDF808B04A4605F10C0301970096FFF7FC
:103E9000F9FDD4E94C23CDE90C23D4E92823CDE95D
:103EA0000E23D4E9042319461046CDE91023FCF76C
:103EB00053FE1390DDE90E01FCF74EFE8146DDE96D
:103EC0000C01FCF749FE139ACDF808B004F10C037D
:103ED000494601970096FFF7D5FD51465046FCF73D
:103EE00099FF129982460846FCF794FF059981468E
:103EF0000846FCF78FFF3F4BCDF808B052464946C5
:103F000001970096FFF7BEFDD8F810003A49FDF77B
:103F100035F8DDE90823C8F81000DDE90601FCF7F3
:103F20008DF9DDE90A23FCF789F9FCF715FE14F099
:103F300095F93149FCF76EFFFCF7DEFADDE90E2357
:103F4000C5E97201DDE90C01FCF778F9DDE9102320
:103F5000FCF774F9FCF700FE14F080F92649FCF731
:103F600059FFFCF7C9FAC4E97001FFF753FD184D7A
:103F700018481C4900242C70C0F81C481B4D1C48D4
:103F80002C6000220023C1E90623C1E92A23C1E9EC
:103F90004E23C0E90423C0E92823C0E94C23C5E926
:103FA0000144C0E90623C0E92A23C0E94E23C1E940
:103FB0000823C1E92C23C1E9502315B0BDE8F08FD7
:103FC0006CB00020C0880108F4B7002074600020A5
:103FD0005804002010180020E804002098B90020A0
:103FE00094B900208002002090B90020A8B70020DA
:103FF000B0000020D0B7002000007A444F4B9A68F0
:10400000059200265A68D3F800901292A5F5104543
:1040100008960696002405F5804A2146DAF808B08D
:104020005846FDF7A9F828B1DAF810002146FDF747
:104030008FF850B921465846FDF78AF848B1DAF8AA
:1040400010002146FDF798F818B1059B0133CDE922
:10405000053705F5005A2146DAF808B05846FDF74D
:104060008BF828B1DAF810002146FDF771F850B945
:1040700021465846FDF76CF848B1DAF810002146A1
:10408000FDF77AF818B1129B089701331293D5F80F
:1040900008A021465046FDF76FF820B12869214657
:1040A000FDF756F848B921465046FDF751F838B1AA
:1040B00028692146FDF760F810B109F101093E4673
:1040C0001F4B08359D42A6D11C4B0EB1C3F8009082
:1040D000089A0AB1129A5A60069A002A3FF491AEE1
:1040E000059A9A608DE6D8F83410D8F83050D8F890
:1040F0002C700846FCF78EFE294606462846FCF73B
:1041000089FE394605463846FCF784FEA3690293CA
:10411000E3690193236A009332460A4B2946FFF76D
:10412000B1FC0949D8F81000FCF728FFC8F81000C6
:10413000FFF758FDFFF7B8FD17E700BFA8B700204D
:1041400064400020D0B7002000007A442DE9F047F9
:10415000344D354B05F510471B78BE68B6F5806FBA
:1041600039D2B3B3DFF8C4803149D8F80800FCF77E
:1041700005FF3049FCF74EFE740004F102092C499A
:1041800045F82900D8F80C00FCF7F8FE2949FCF79F
:1041900041FE04F60209264945F82900D8F8100026
:1041A000FCF7ECFE2349FCF735FE41F20209631CE3
:1041B00004EB090AE11C4B4404F60304002245F811
:1041C0002A00013645F8212045F8242045F823200F
:1041D000BE60BDE8F087002BFBD071225C2101207E
:1041E000FDF78AFB114B5B211A780120FDF784FB58
:1041F000002256210120FDF77FFBC022582101201B
:10420000FDF77AFBE0225E210120FDF775FBFFF749
:10421000ADFD7B7C002BDCD1BDE8F047064806F005
:10422000A1B900BF6C200020580400203C200020D1
:1042300000007A440AE81C4168D200202DE9F04FC2
:10424000DFF8108198F8033089B0002B6DD0424B15
:104250001A78002A69D15B780593002B65D13F4D10
:104260000DF11F0205F510461B210120FDF732FB61
:104270009DF81F30B46883F01003C3F30013B4F546
:10428000806F337454D2364F3649B868FCF776FEE7
:104290003549FCF7BFFD640004F10208314945F8D7
:1042A0002800F868FCF76AFE2F49FCF7B3FD04F616
:1042B00002092C4945F829003869FCF75FFE2A49B4
:1042C000FCF7A8FD41F2020B631C5B4404EB0B0AF4
:1042D000002245F82A00E11C45F8232004F60304D7
:1042E00045F8212045F8242055F82A001D49FCF7FF
:1042F00091FDFCF76BFF029055F829001949FCF776
:1043000089FDFCF763FF0190164955F82800FCF77A
:1043100081FDFCF75BFF059A144B009011460220CB
:104320000FF0BCFDB3680133B36009B0BDE8F08F96
:10433000FFF71CFD347C002CF7D10D4888F80340B2
:10434000747406F00FF90B4B2246214602200FF041
:10435000A5FDEAE79CD10020580400206C20002035
:104360003C20002000007A440AE81C41EA88010849
:1043700068D200207388010810B5234C236833F0FD
:104380007F4340D06378C3B1002216210120FDF79E
:10439000B3FA002215210120FDF7AEFA00227321A5
:1043A0000120FDF7A9FA002274210120FDF7A4FAEB
:1043B000002275210120FDF79FFA00225C210120D7
:1043C000FDF79AFA00225B210120FDF795FA002201
:1043D00056210120FDF790FA002258210120FDF717
:1043E0008BFA00225E210120FDF786FA00220023CD
:1043F000C4E91023C4E90E23C4E90C230348BDE833
:10440000104006F089B810BD5804002068D2002082
:10441000F7B51F4D00F088FD2B6898421BD31D4F48
:10442000FE787EBB00F080FD2B681B4C6433984205
:1044300088BF26702678731C237076B900F074FD4F
:10444000237800F5FA702860324600933146134B0A
:1044500002200FF023FD03B0F0BD00252A46104BCB
:104460002570294602200FF019FDFFF7D3FA0D4BF6
:104470000D485D610122FA705A7403B0BDE8F04046
:1044800006F04AB800F050FD00F57A702860E2E7C7
:10449000A80000209CD10020A4B70020F6880108C5
:1044A000258901086CB0002068D200201348144A06
:1044B00008B54FF00043C0E9002304224261012205
:1044C0000023C2614FF480510722C0E90233C0E9E2
:1044D0000933C0E90C1203610383837680F820302E
:1044E00080F82C30826380F83C30C36403F050F8CD
:1044F00018B1BDE8084000F03FBB08BDB4D10020B2
:10450000002401400268084B9A4282B00AD14FF061
:10451000B0431A6E42F400721A661B6E03F4007305
:104520000193019B02B07047002401400268054BD3
:104530009A4201BF4FF0B042136E23F4007313662A
:10454000704700BF0024014030B585B00024054607
:10455000CDE901440394FFF7A9FF144803F0ACFB35
:1045600008B100F009FB1148039401A9CDE90154F9
:1045700003F06CF908B100F0FFFA0C4803F0C6FA3A
:1045800008B100F0F9FA4FF0FF31084803F000F9E4
:10459000064803F073FB054803F054F9044603484A
:1045A00003F016FB204605B030BD00BFB4D100209B
:1045B000014B024A1A607047B4D100200024014028
:1045C00008B50948FFF7C0FF68B1084BB3F8AA3037
:1045D0004FF6FF72934216BF40F6E442044B53433A
:1045E000B3FBF0F398B208BD002000B40075FF1FC4
:1045F000D8084C0013B50023ADF80630FFF7E0FFF4
:1046000004461948FFF7A0FF184BB3F8C820B3F8C9
:10461000A8108A4204FB00F018D040F6E443B0FB37
:10462000F3F364205B1A4343521A93FBF2F31E33F5
:104630001BB2ADF80630BDF806305BB21B02ADF818
:104640000630BDF8060000B202B010BD4FF47A7219
:1046500040F6FF73B0FBF3F35343A3F53923A3F5FF
:104660000C6340F6C412E0E7001000B00075FF1FB5
:104670004FF0B04307B59A6C42F004029A649A6C0A
:1046800002F004020192019A9A6C42F001029A64CB
:104690009B6C002203F00103009311460F20009B46
:1046A00003F0A8FB0F2003B05DF804EB03F0D4BBCC
:1046B00008B503F04DFE10B16FF0040008BD064BC5
:1046C0009A6942F040429A614CF2FA321A6103F060
:1046D00051FE0028F2D0EFE700400058F0B585B059
:1046E00000230D4600930646A8B3FFF7E1FF0446FA
:1046F00070BB03F02DFE88BB1A481B4A02230193AE
:10470000D0F8E01506F1784302EA8121B3FBF1F716
:1047100001FB1733DB0A0293D0F8E00505F178417D
:104720000139314402EA8022B1FBF2F002FB1011A0
:10473000C3EBD1230133694601A8039303F09AFE2A
:1047400020B1022814BF6FF00104012403F012FE0F
:10475000204605B0F0BD6FF00504F9E76FF00404E2
:10476000F6E700BF0070FF1F00FCFF03014B18605D
:104770000020704718D200202DE9F04FB0F1006FF3
:1047800089B006460F469046C0F0C080DFF8909191
:10479000644DD9F8E03505EA832303F10063013B5A
:1047A000984200F2B380002900F0B38040EA02038F
:1047B0005B0740F0AE80FFF77BFF044690BB03F041
:1047C000C7FD002840F0A880D9F8E015009705EA59
:1047D000812106F17842B2FBF1F301FB132208F1CB
:1047E0007843013B3344B3FBF1F001FB1033DB0AA8
:1047F00001334FEAD22AA3EBD222012A039388BFC6
:10480000C6F30A050AF58037C6F108038CBFC5F563
:1048100000654546FF02B3460693039B9A4505D3C0
:1048200003F0A8FD204609B0BDE8F08FA6F108030B
:10483000069A1A4495421CD8009B04950193CDF822
:1048400014B04FF00009059B09EB0301049B994547
:104850003DD3009BAB442B44A8EB0505B5F5006F99
:10486000009328BF4FF400650AF1010A07F50067BD
:10487000D3E753F8081F5A68B2F1FF3F08BFB1F100
:10488000FF3FD5D0284B186810B96FF00504C7E773
:1048900027B14FF4006239460FF006FCDFF888902C
:1048A0000099D9F80030CBF30A001844AAB20FF0EF
:1048B000FBFB4FF400613846FFF710FF00BBD9F84F
:1048C000003001934FF4006305970493B9E7019B0F
:1048D00007914B4402930120D3E9002303F084FDA8
:1048E00088B90799019BD1E9000259F80310029B8E
:1048F0005B689A4208BF884205D109F10809A2E71E
:104900006FF001048CE76FF0030489E74FF0FF3488
:1049100088E76FF0050485E76FF0040482E700BFC5
:104920000070FF1F00FCFF0318D20020B1F1006FE0
:1049300070B510D30B4BD3F8E0650B4B03EA86231D
:1049400003F10063013B994205D838B192B20FF0F0
:10495000ABFB002070BD4FF0FF30FBE76FF00500B0
:10496000F8E700BF0070FF1F00FCFF03B0F1006F0D
:1049700010B40DD3084BD3F8E045084B03EA842369
:1049800003F10063013B984202D810BCFFF7A6BEBA
:104990004FF0FF3010BC70470070FF1F00FCFF039A
:1049A0004FF0B04382B0DA6C0243DA64DB6C034050
:1049B0000193019B02B07047F0B587B0142200212B
:1049C00001A811F02EFD0420FFF7EAFF0220374D69
:1049D000FFF7E6FF0120FFF7E3FF8020FFF7E0FF8E
:1049E000202100222846002403F0B2FE03264FF6C1
:1049F0004A6301A92846CDE90136039403F088FDF6
:104A000042F2440301A92A480394CDE9013603F098
:104A10007FFD48F2F37301A94FF09040CDE90136D4
:104A20000827039403F074FD01A922480394CDE9FB
:104A3000017603F06DFD022604224FF4041301A950
:104A40002846CDE90123039603F062FD4FF4881355
:104A50004FF4C871CDE90113284601A9039603F06C
:104A600057FD01232020CDE9010301A92846CDE906
:104A7000036403F04DFD22462146384603F0BAF99F
:104A8000384603F0E9F9224621460A2003F0B2F93C
:104A90000A2003F0E1F922462146162003F0AAF984
:104AA000162003F0D9F907B0F0BD00BF000400489C
:104AB00000080048001C004800B59BB048220021B7
:104AC00008A811F0AEFC1C22002101A811F0A9FCDD
:104AD00004F01CFA4FF0B0420120D2F8903023F0DD
:104AE0001803C2F89030D2F8003423F4C06343F4C2
:104AF0000073C2F80034D2F8003403F4C0630093AA
:104B0000009B2423089381230B930023CDE91003FA
:104B1000B02208A8CDE9122304F070FB08B172B6E8
:104B2000FEE74F23CDE90130CDE903000590079062
:104B3000022101A804F0FCFD08B172B6FEE71BB02B
:104B40005DF804FB08B502F07FFCFFF7B5FFFFF747
:104B500033FF00F073FD00F097FA00F07BFA4FF49A
:104B6000FA7000F0E9F9034805F0D6FC00F06DFD9D
:104B7000FCE700BFB4D2002072B6FEE700B58DB0EE
:104B80002C22002101A811F04CFC1748174B0360A0
:104B90001F2383604FF080420023C0E90433C0E943
:104BA000072383614FF48073436205F081F808B1F5
:104BB000FFF7E2FF0C4805F0A7F908B1FFF7DCFFAB
:104BC0004FF0005300220793074808924FF4807378
:104BD00001A9029206920B9305F0CAF808B1FFF7FB
:104BE000CBFF0DB05DF804FB1CD200200028004074
:104BF00010B5044690B03822002102A811F011FC33
:104C00002268194B9A422CD14FF48033029302A8A8
:104C10004FF480730F9304F0C9FE08B1FFF7ACFFA7
:104C20004FF0B0430220D3F8902042F40042C3F882
:104C300090209A6D42F480629A659B6D002203F485
:104C4000806311460193019B03F0D4F8022003F026
:104C500003F900222A20114603F0CCF82A2003F0A1
:104C6000FBF810B010BD00BF0028004070470000E6
:104C700008B502F0FFFB044B0120C3F88800BDE833
:104C8000084004F09BB900BF0004005802F0F9BBD3
:104C900008B502F0F6FBBDE8084000F069BC08B5B5
:104CA00002F0E8FBBDE808400121002004F036B91D
:104CB00070477047FEE7FEE7FEE7FEE7FEE7704756
:104CC00070477047FCF7D4BC014805F043B900BFFA
:104CD0001CD20020042003F059BD102003F056BD63
:104CE000014803F0A3BA00BF08D3002008B5802014
:104CF00003F04CFDBDE80840014803F0FDBA00BFD9
:104D00001CB10020014805F049BC00BFB4D200200E
:104D1000014805F043BC00BF68D20020014805F0FF
:104D200035BE00BF68D30020014804F047BF00BF74
:104D30001CD20020014805F036BB00BF54D2002031
:104D4000054808B50823036005F04AF918B1BDE825
:104D50000840FFF711BF08BD54D200204FF0B04308
:104D600007B55A6E42F001025A665B6E002203F0EC
:104D70000103019311463220019B03F03BF83220DE
:104D800003B05DF804EB03F067B800000CB407B59E
:104D9000054A05AB102101930FF052FC03B05DF8FA
:104DA00004EB02B0704700BF6489010830B585B0DC
:104DB000044602A80D460FF0BBFABDF90C30064AB6
:104DC00000931021029B2046FFF7E0FF2046FBF7EF
:104DD00027FA288005B030BD648901084FF0B04241
:104DE00010B5936823F4004393600FF0DDFA0E4B87
:104DF00001241C7000F0A6F80EF0E6FF0B480EF040
:104E0000FDFF0B4B4FF400421A6102200EF0FCFF35
:104E1000FFF7CEFB00F0C4F80FF0F0F82146204673
:104E2000BDE810400FF00AB960D20020AD4D000877
:104E3000004000580FF018B908B5FFF7C1FB40F665
:104E4000B83398420CD8B0F5E16F0BD3FE23A0F530
:104E5000E16058434FF49663B0FBF3F0C0B208BD75
:104E6000FE20FCE70020FAE77FB5684600F07CF8FA
:104E70000198FCF7ABF900B207B05DF804FB000045
:104E8000194A38B5D2F88035591C044619D102F0B8
:104E9000FFFA054602F008FB054402F0FFFA2B0E6C
:104EA000E3712B0CA3712B0A6371030EE370C0F343
:104EB0000742C0F307232571C0B2A270637020704F
:104EC00038BD190AC3718171190C1B0E4171037130
:104ED000D2F88435C370D2F88405C0F30722C0F33A
:104EE0000743000EE9E700BF0070FF1F38B5094B0C
:104EF000D3F8803503600133054609D102F0C8FAC2
:104F0000044602F0CBFA444002F0CEFA44402C6052
:104F100038BD00BF0070FF1F012102200FF078B8DC
:104F2000002102200FF074B8024B187808B100F08D
:104F30003FB9704760D2002082B00190019802B062
:104F400000F0D2B9074A08B5D2F8903043F4804354
:104F5000C2F8903002F0AEFA02F0B4FABDE80840B0
:104F600002F0B8BA0008005810B50446FFF742FB3B
:104F7000074BA36040F30F20FBF7F8FE054B064AF2
:104F80002360064B6060C4E90323002010BD00BF0E
:104F90000000484200007A440D093E00AB030500C2
:104FA000002070470120704708B511F08DFA1623D4
:104FB00003604FF0FF3008BD08B511F085FA1623E5
:104FC0000360FEE770B50D4614460E46731B9C4207
:104FD00001DC204670BDAFF3008006F8010BF5E759
:104FE00070B50D4614460E46731B9C4201DC2046EC
:104FF00070BD16F8010BAFF30080F5E74FF0FF30FE
:1050000070474FF400534B600020704701207047F9
:10501000002070470B4A116810B5034609B90A49C8
:105020001160106809490A4C0344091B8B4206D9D8
:1050300011F04AFA0C2303604FF0FF3010BD1360EB
:10504000FCE700BF64D20020B0F500200000012082
:10505000000800000A480B4A08B52F23C0E90023C6
:10506000002340F2E732C0E90232C0E90433836131
:1050700005F076FB18B1BDE80840FFF77DBD08BD1F
:10508000B4D20020004401400E4B0F480F4A196A69
:105090002F2310B5C0E900230D4B00224C00A3EBD9
:1050A0004103B3FBF4F3053BC0E903328023826084
:1050B0004261836105F054FB18B1BDE81040FFF771
:1050C0005BBD10BD3C20002068D20020004801409C
:1050D00040420F0007B50368184A934215D14FF0BC
:1050E000B0431C201A6E42F400321A661B6E002276
:1050F00003F4003300931146009B02F07BFE1C205A
:1051000003B05DF804EB02F0A7BE0D4A934211D143
:105110004FF0B0431D201A6E42F480221A661B6EB7
:1051200003F48023019300220521019B02F062FE1B
:105130001D20E5E703B05DF804FB00BF004401401B
:1051400000480140014B1868704700BF00D30020A1
:105150000320704708B501464FF47A72002380029D
:10516000890DFCF779F808BD4FF47A73A0FB0303AF
:10517000800A40EA83507047034B98689A689042CF
:10518000FBD1C043704700BF0028004008B5FFF7BF
:10519000F3FF014B186008BD00D3002008B5FFF7EE
:1051A000EBFF024B1B68C01A08BD00BF00D30020F4
:1051B000024B187808B1FFF7DFBF704704D3002017
:1051C00010B5074B074C0122DA654FF48071204679
:1051D00004F0BAFC4FF0FF332363002010BD00BF82
:1051E000002800401CD2002002460021014804F0A3
:1051F000C2BE00BF1CD2002002460121014804F0BB
:10520000BABE00BF1CD2002010B58CB02C220021E9
:10521000044601A811F005F9FFF7D2FF0C4B0D4829
:105220001B681C440023089306934FF00053E4438B
:10523000079301224FF4807301A902940B9304F0A9
:1052400097FD08B1FFF798FC00200CB010BD00BF1F
:1052500000D300201CD2002038B50546FFF78CFF94
:1052600002210446074804F08DFEC4F309024FF4FE
:105270007A71A2FB0121920AA30A2A8043EA805094
:1052800038BD00BF1CD200200148002104F07ABEC6
:105290001CD200200148012104F074BE1CD2002061
:1052A000F8B50F4D2E78CEB90E4C4FF0FF3727636F
:1052B000FFF764FCFFF784FF4FF48071204604F091
:1052C00043FC2046276304F001FE324620460221BB
:1052D00004F051FEFFF75AFF01232B700020F8BDA8
:1052E00004D300201CD20020014610B54FF47A727E
:1052F00000238002890DFBF7AFFF0146FFF73CFF5B
:105300000446FFF739FF031B8B4200D310BD00BFDB
:10531000F7E70FF051B9000010B5064C0221204606
:1053200004F030FE0221421C2046BDE8104004F08B
:1053300022BE00BF1CD200201648174A08B54FF401
:105340001653C0E9002300230C22C0E90233C0E950
:105350000523C0E90733C0E90933036106F0FFF80C
:1053600008B1FFF709FC0B48002106F070FA08B1FC
:10537000FFF702FC0748002106F089FA08B1FFF7A1
:10538000FBFB044806F043FA18B1BDE80840FFF7FC
:10539000F3BB08BD68D300200044004030B597B08F
:1053A00005461422002103A811F03BF83822002101
:1053B00008A811F036F82A682C4B9A4253D10223E0
:1053C000089308A82A4B0A9304F0F0FA08B1FFF7F3
:1053D000D3FB4FF0B04301219A6D264C42F40032CA
:1053E0009A659A6D02F400320292029ADA6C42F0E7
:1053F0000102DA64DB6C03F0010301930C22019BD0
:105400000223CDE903230323CDE905134FF0904098
:10541000072303A9079303F07BF817481423C4E973
:1054200000034FF0100C002380222046C4E902C381
:10543000C4E90423C4E90633236202F081FD08B104
:10544000FFF79AFB0B48102102F046FF08B1FFF767
:1054500093FB00222520EC671146A56202F0CAFCEE
:10546000252002F0F9FC17B030BD00BF0044004019
:1054700004000C0008D300205800024002680C4BC6
:105480009A4210B5044612D14FF0B0420C21936DF0
:1054900023F4003393654FF0904003F0E5F8E06F9C
:1054A00002F0C0FDBDE81040252002F0E3BC10BDB5
:1054B0000044004008B50A460146024805F0CAF912
:1054C000002008BD68D3002013B5114B114C1860A3
:1054D0004FF40013009302AB13E90600204606F0D8
:1054E0003AF92368DA69D103FCD4DA695202FCD5AF
:1054F0009A68084842F480029A6006F072F90649F8
:105500000448012206F0E0F8002002B010BD00BF00
:10551000FCD3002068D3002004D4002008B5074B3A
:105520001860FFF7A5F8FFF707FF054AD2F88030AB
:1055300043F00063C2F88030002008BD00D4002092
:105540000008005808B54FF0B04308489A6B42F481
:1055500000329A639A6B22F400329A63FFF78EFF4F
:105560000F2002F087FC002008BD00BF68D3002098
:1055700008B5074805F0F3FF08B1FFF7FDFA054845
:1055800002F0DEFC18B1BDE80840FFF7F5BA08BD2F
:1055900068D3002008D300200268044B9A4203D14C
:1055A000034B00201B681847704700BF00440040B1
:1055B00000D4002002680B4B9A4210B504460FD16C
:1055C000094B1B682BB1D0F8902012B90748012174
:1055D000984720460549BDE81040012206F074B8FE
:1055E00010BD00BF00440040FCD3002004D40020C4
:1055F000014B00221A70704705D40020014B187827
:10560000704700BF05D4002010B5034C0349227831
:105610000EF04AFD207810BD05D4002006D40020ED
:1056200010B504490446F2220348FCF7E9FC204681
:1056300010BD00BF05D4002006D4002008B5FFF738
:10564000CDFBBDE8084000F087BA4FF0FF300EF008
:105650006FBD704770470000014BD870704700BFA6
:10566000A0B00020014B1874704700BFA0B000200C
:1056700007B5064B00221B5C00931146044B022029
:105680000EF00CFC03B05DF804FB00BFDA890108E2
:10569000C089010808B5022000210EF011FDBDE807
:1056A000084001480EF036BF4CD6002000210120F2
:1056B0000EF006BD10B54EF66023084C002818BF4A
:1056C0000346074823600EF0D7FE216804480EF019
:1056D0005BFFBDE8104002480EF01CBF9CB00020EC
:1056E0004CD600201FB50446002837D00378002B85
:1056F0002ED01F480EF00EFF002211461D4B022037
:105700000EF0CCFB94F91830039394F90A3002930D
:10571000237C0193E368009300221146164B03207B
:105720000EF0BCFB0022154B114602200EF0B6FB1A
:10573000237A012B14D1617A114A124B002918BF28
:1057400013460022009311460F4B02200EF0A6FBD9
:105750000E492046FCF78AFB0D4B186004B010BDC3
:1057600000220C4B114602200EF098FBF0E700BF20
:1057700028D50020E3890108148A0108458A010818
:10578000DF890108DE890108528A01084CD6002011
:105790009CB00020638A010837B5044628B390F90D
:1057A000065025BB13480EF067FE134B2A462946C8
:1057B00002200EF073FBE379012B0CBF0F4B104B53
:1057C0000022114602200EF069FB94F90600FCF756
:1057D000FFFA94F90530019394F904300093002204
:1057E000084B114603200EF059FB03B030BD064BA9
:1057F000E6E700BFF8D40020718A0108868A010814
:10580000A38A0108D78A0108C08A01080A4601490B
:10581000FFF78CB800F0030838B51B480EF02CFEDB
:1058200006F09EFC044650B10022184B114602209F
:105830000EF034FBBDE8384015480EF06BBE154B3A
:10584000154D0246014602200EF028FB134B1B7833
:10585000012B11D10220124B2870224621460EF056
:105860001DFB104806F008FB2878012106F05CF8C3
:1058700005480EF04FFEDDE701232B7022460A4B50
:1058800021460220EBE700BF4CD60020008B010828
:1058900034D600201E8B0108A4000020A5000020A3
:1058A000328B0108A0B00020528B010800B50346DE
:1058B0008DB000282CD0407802280AD003282AD0A6
:1058C000164B0022114602200DB05DF804EB0EF0DD
:1058D000E5BA1A7F0B92DA7E0A929A7E09925A7E74
:1058E00008921A7E0792DA7D06929A7D05925A688E
:1058F0000492DA68039293F914200292B3F9122009
:1059000001921B7C00930022054B11460EF0C6FA53
:105910000DB05DF804FB034BD3E700BF718B0108AA
:10592000888B0108FA8B010801284FF000020CBF98
:10593000024B034B114602200EF0B0BA198C01083D
:105940002B8C0108054B1A78054B1B789A4203D122
:10595000002108200EF0B4BB704700BFA400002057
:10596000A500002008B506F004FC80B906F0C2F8D6
:1059700001280CD1BFF34F8F0549064BCA6802F4CA
:10598000E0621343CB60BFF34F8F00BFFDE708BD5C
:1059900000ED00E00400FA0530B5044687B00D467E
:1059A000002953D02A480EF0B5FD2B78EBB1E4B1B5
:1059B0006368D3B11B780193237800930022254BB1
:1059C000114602200EF06AFA2378022B2ED0032B08
:1059D0000BD16378012B08D163681878012802D0B5
:1059E000022800D008B906F079F92B7C052B16D8CF
:1059F00095F90A20059295F909200492164A52F861
:105A00002330039395F90830029323780193EB68D0
:105A100000930022114B114603200EF03FFA294655
:105A2000204607B0BDE83040FCF71AB96378012B77
:105A3000DBD163681A7812F0010216BF0022084B0E
:105A4000084B114603200EF029FACEE707B030BD0F
:105A500010D500203F8C010804B100206F8C010894
:105A60005C8C0108668C010838B504460D46074871
:105A70004FF40061FEF77AFF30B92A462146034809
:105A8000BDE83840FEF778BE38BD00BF00F003081F
:105A900010B506F003FC10F1080F07D1064B0022E9
:105AA000BDE81040114602200EF0F8B9013001D1D6
:105AB000024BF4E710BD00BFB68C0108CC8C010886
:105AC00037B506F02BF80446002837D11C4D0223C9
:105AD0002B70FFF78DFD2046FFF7A2FD194C68687B
