:020000040800F2
:10000000000001200D590008ED460008EF460008E9
:10001000F1460008F3460008F5460008000000001D
:10002000000000000000000000000000F74600088B
:10003000F946000800000000FB460008FD460008E5
:100040005D5900085D590008014700085D59000826
:100050005D5900085D5900085D5900085D590008A8
:100060000D4700085D590008134700085D59000856
:100070005D5900085D5900085D59000819470008DE
:100080005D5900085D5900085D5900085D59000878
:100090005D5900085D590008254700085D590008B2
:1000A0005D5900085D5900085D5900085D59000858
:1000B0003D470008494700085D5900085D590008A0
:1000C0005D5900085D5900085D5900085D59000838
:1000D0005D590008554700085D5900085D59000842
:1000E0005D5900085D590008614700085D59000826
:1000F0005D5900085D5900085D5900085D59000808
:100100005D5900085D5900086D4700085D590008F9
:100110005D5900085D5900085D5900085D590008E7
:100120005D5900085D5900085D5900085D590008D7
:080130005D5900085D5900084B
:1001400010B5054C237833B9044B13B10448AFF311
:1001500000800123237010BD0CB2002000000000BD
:10016000C888010808B5034B1BB103490348AFF326
:10017000008008BD0000000010B20020C8880108FF
:1001800001F0FF01102A2BDB10F0070F08D010F848
:10019000013B013A8B422DD010F0070F42B3F6D14C
:1001A000F0B441EA012141EA014122F007047FF065
:1001B00000070023F0E80256083C85EA010586EABC
:1001C000010685FA47F5A3FA87F586FA47F6A5FAF8
:1001D00087F68EB9EED1F0BC01F0FF0102F0070204
:1001E00032B110F8013B013A83EA010313B1F8D1AF
:1001F0000020704701387047002D06BF3546033890
:10020000073815F0010F07D1013015F4807F02BFC8
:10021000013015F4C03F0130F0BC0138704700BF19
:10022000034613F8012B002AFBD1181A0138704736
:1002300081F0004102E000BF83F0004330B54FEA97
:1002400041044FEA430594EA050F08BF90EA020F04
:100250001FBF54EA000C55EA020C7FEA645C7FEA97
:10026000655C00F0E2804FEA5454D4EB5555B8BFBA
:100270006D420CDD2C4480EA020281EA030382EA2B
:10028000000083EA010180EA020281EA0303362DBD
:1002900088BF30BD11F0004F4FEA01314FF4801C90
:1002A0004CEA113102D0404261EB410113F0004FA2
:1002B0004FEA03334CEA133302D0524263EB430359
:1002C00094EA050F00F0A780A4F10104D5F1200EF7
:1002D0000DDB02FA0EFC22FA05F2801841F1000152
:1002E00003FA0EF2801843FA05F359410EE0A5F126
:1002F00020050EF1200E012A03FA0EFC28BF4CF057
:10030000020C43FA05F3C01851EBE37101F000450C
:1003100007D54FF0000EDCF1000C7EEB00006EEB19
:100320000101B1F5801F1BD3B1F5001F0CD34908A3
:100330005FEA30004FEA3C0C04F101044FEA4452FA
:1003400012F5800F80F09A80BCF1004F08BF5FEA81
:10035000500C50F1000041EB045141EA050130BD61
:100360005FEA4C0C404141EB0101013C28BFB1F573
:10037000801FE9D291F0000F04BF01460020B1FABE
:1003800081F308BF2033A3F10B03B3F120020CDA91
:100390000C3208DD02F1140CC2F10C0201FA0CF06F
:1003A00021FA02F10CE002F11402D8BFC2F1200CD4
:1003B00001FA02F120FA0CFCDCBF41EA0C0190408A
:1003C000E41AA2BF01EB0451294330BD6FEA0404D3
:1003D0001F3C1CDA0C340EDC04F11404C4F12002BE
:1003E00020FA04F001FA02F340EA030021FA04F3D0
:1003F00045EA030130BDC4F10C04C4F1200220FA27
:1004000002F001FA04F340EA0300294630BD21FA64
:1004100004F0294630BD94F0000F83F4801306BF2A
:1004200081F480110134013D4EE77FEA645C18BF1E
:100430007FEA655C29D094EA050F08BF90EA020FB5
:1004400005D054EA000C04BF1946104630BD91EAAD
:10045000030F1EBF0021002030BD5FEA545C05D1B0
:100460004000494128BF41F0004130BD14F58004EF
:100470003CBF01F5801130BD01F0004545F0FE4163
:1004800041F470014FF0000030BD7FEA645C1ABF98
:10049000194610467FEA655C1CBF0B46024650EACF
:1004A000013406BF52EA033591EA030F41F40021FB
:1004B00030BD00BF90F0000F04BF0021704730B581
:1004C0004FF4806404F132044FF000054FF0000156
:1004D00050E700BF90F0000F04BF0021704730B517
:1004E0004FF4806404F1320410F0004548BF4042EC
:1004F0004FF000013EE700BF42004FEAE2014FEA41
:1005000031014FEA02701FBF12F07F4393F07F4F1B
:1005100081F06051704732F07F4208BF704793F01E
:100520007F4F04BF41F40021704730B54FF4607431
:1005300001F0004521F000411CE700BF50EA010234
:1005400008BF704730B54FF000050AE050EA0102DD
:1005500008BF704730B511F0004502D5404261EB4D
:1005600041014FF4806404F132045FEA915C3FF48E
:10057000D8AE4FF003025FEADC0C18BF03325FEA2B
:10058000DC0C18BF033202EBDC02C2F1200300FADC
:1005900003FC20FA02F001FA03FE40EA0E0021FA01
:1005A00002F11444BDE600BF70B54FF0FF0C4CF4EF
:1005B000E06C1CEA11541DBF1CEA135594EA0C0FA1
:1005C00095EA0C0F00F0DEF82C4481EA030621EADC
:1005D0004C5123EA4C5350EA013518BF52EA033517
:1005E00041F4801143F4801338D0A0FB02CE4FF0C9
:1005F0000005E1FB02E506F00042E0FB03E54FF0F9
:100600000006E1FB03569CF0000F18BF4EF0010EF0
:10061000A4F1FF04B6F5007F64F5407404D25FEAEC
:100620004E0E6D4146EB060642EAC62141EA55519F
:100630004FEAC52040EA5E504FEACE2EB4F1FD0CE1
:1006400088BFBCF5E06F1ED8BEF1004F08BF5FEA5F
:10065000500E50F1000041EB045170BD06F0004611
:1006600046EA010140EA020081EA0301B4EB5C04BE
:10067000C2BFD4EB0C0541EA045170BD41F48011B6
:100680004FF0000E013C00F3AB8014F1360FDEBFDB
:10069000002001F0004170BDC4F10004203C35DAB7
:1006A0000C341BDC04F11404C4F1200500FA05F33A
:1006B00020FA04F001FA05F240EA020001F00042DB
:1006C00021F0004110EBD37021FA04F642EB060151
:1006D0005EEA430E08BF20EAD37070BDC4F10C047B
:1006E000C4F1200500FA04F320FA05F001FA04F23F
:1006F00040EA020001F0004110EBD37041F100012B
:100700005EEA430E08BF20EAD37070BDC4F1200535
:1007100000FA05F24EEA020E20FA04F301FA05F29D
:1007200043EA020321FA04F001F0004121FA04F245
:1007300020EA020000EBD3705EEA430E08BF20EA15
:10074000D37070BD94F0000F0FD101F0004640004F
:1007500041EB010111F4801F08BF013CF7D041EAD1
:10076000060195F0000F18BF704703F000465200D5
:1007700043EB030313F4801F08BF013DF7D043EAA6
:100780000603704794EA0C0F0CEA135518BF95EA5C
:100790000C0F0CD050EA410618BF52EA4306D1D1E3
:1007A00081EA030101F000414FF0000070BD50EA02
:1007B000410606BF1046194652EA430619D094EA8C
:1007C0000C0F02D150EA013613D195EA0C0F05D176
:1007D00052EA03361CBF104619460AD181EA0301CA
:1007E00001F0004141F0FE4141F470014FF0000082
:1007F00070BD41F0FE4141F4780170BD70B54FF01D
:10080000FF0C4CF4E06C1CEA11541DBF1CEA13559C
:1008100094EA0C0F95EA0C0F00F0A7F8A4EB05047E
:1008200081EA030E52EA03354FEA013100F0888075
:100830004FEA03334FF0805545EA131343EA12633E
:100840004FEA022245EA111545EA10654FEA0026F3
:100850000EF000419D4208BF964244F1FD0404F5AC
:10086000407402D25B084FEA3202B61A65EB030508
:100870005B084FEA32024FF480104FF4002CB6EBC5
:10088000020E75EB030E22BFB61A754640EA0C0045
:100890005B084FEA3202B6EB020E75EB030E22BF85
:1008A000B61A754640EA5C005B084FEA3202B6EBC6
:1008B000020E75EB030E22BFB61A754640EA9C0085
:1008C0005B084FEA3202B6EB020E75EB030E22BF55
:1008D000B61A754640EADC0055EA060E18D04FEA13
:1008E000051545EA16754FEA06164FEAC30343EAB3
:1008F00052734FEAC2025FEA1C1CC0D111F4801F80
:100900000BD141EA00014FF000004FF0004CB6E778
:1009100011F4801F04BF01430020B4F1FD0C88BF17
:10092000BCF5E06F3FF6AFAEB5EB030C04BFB6EB22
:10093000020C5FEA500C50F1000041EB045170BD15
:100940000EF0004E4EEA113114EB5C04C2BFD4EB42
:100950000C0541EA045170BD41F480114FF0000EC6
:10096000013C90E645EA060E8DE60CEA135594EA42
:100970000C0F08BF95EA0C0F3FF43BAF94EA0C0F45
:100980000AD150EA01347FF434AF95EA0C0F7FF4BA
:1009900025AF104619462CE795EA0C0F06D152EA0E
:1009A00003353FF4FDAE1046194622E750EA4106F2
:1009B00018BF52EA43067FF4C5AE50EA41047FF403
:1009C0000DAF52EA43057FF4EBAE12E74FF0FF3C68
:1009D00006E000BF4FF0010C02E000BF4FF0010C39
:1009E0004DF804CD4FEA410C7FEA6C5C4FEA430CB2
:1009F00018BF7FEA6C5C1BD001B050EA410C0CBF01
:100A000052EA430C91EA030F02BF90EA020F002062
:100A1000704710F1000F91EA030F58BF994208BFC9
:100A200090422CBFD8176FEAE37040F00100704786
:100A30004FEA410C7FEA6C5C02D150EA013C07D1DD
:100A40004FEA430C7FEA6C5CD6D152EA033CD3D028
:100A50005DF8040B704700BF8446104662468C4622
:100A60001946634600E000BF01B5FFF7B7FF002855
:100A700048BF10F1000F01BD4DF808EDFFF7F4FF7E
:100A80000CBF012000205DF808FB00BF4DF808ED09
:100A9000FFF7EAFF34BF012000205DF808FB00BF2C
:100AA0004DF808EDFFF7E0FF94BF012000205DF84E
:100AB00008FB00BF4DF808EDFFF7CEFF94BF012003
:100AC00000205DF808FB00BF4DF808EDFFF7C4FFFC
:100AD00034BF012000205DF808FB00BF4FEA410C45
:100AE0007FEA6C5C02D150EA013C0AD14FEA430C28
:100AF0007FEA6C5C02D152EA033C02D14FF0000065
:100B000070474FF0010070474FEA410212F50012A2
:100B100015D211D56FF47873B3EB625212D94FEA44
:100B2000C12343F0004343EA505311F0004F23FA2E
:100B300002F018BF404270474FF00000704750EA83
:100B4000013005D111F0004008BF6FF00040704740
:100B50004FF00000704700BF4FEA4102B2F1E0439E
:100B600024BFB3F5001CDCF1FE5C0DD901F0004C94
:100B70004FEAC0024CEA5070B2F1004F40EB8300E4
:100B800008BF20F00100704711F0804F21D113F110
:100B90003872BCBF01F00040704741F480114FEA49
:100BA0005252C2F11802C2F1200C10FA0CF320FAD2
:100BB00002F018BF40F001004FEAC1234FEAD323EF
:100BC00003FA0CFC40EA0C0023FA02F34FEA430359
:100BD000CCE77FEA625307D150EA01331EBF4FF0E2
:100BE000FE4040F44000704701F0004040F0FE40FD
:100BF00040F40000704700BF80F0004002E000BFFA
:100C000081F0004142001FBF5FEA410392EA030FF7
:100C10007FEA226C7FEA236C6AD04FEA1262D2EB41
:100C20001363C1BFD218414048404140B8BF5B4246
:100C3000192B88BF704710F0004F40F4000020F0DF
:100C40007F4018BF404211F0004F41F4000121F0F5
:100C50007F4118BF494292EA030F3FD0A2F101023F
:100C600041FA03FC10EB0C00C3F1200301FA03F17D
:100C700000F0004302D5494260EB4000B0F5000FA0
:100C800013D3B0F1807F06D340084FEA310102F15F
:100C90000102FE2A51D2B1F1004F40EBC25008BF11
:100CA00020F0010040EA03007047490040EB0000DB
:100CB000013A28BFB0F5000FEDD2B0FA80FCACF1DC
:100CC000080CB2EB0C0200FA0CF0AABF00EBC25009
:100CD00052421843BCBFD0401843704792F0000FF7
:100CE00081F4000106BF80F400000132013BB5E74A
:100CF0004FEA41037FEA226C18BF7FEA236C21D0C0
:100D000092EA030F04D092F0000F08BF0846704724
:100D100090EA010F1CBF0020704712F07F4F04D1F2
:100D2000400028BF40F00040704712F100723CBF05
:100D300000F50000704700F0004343F0FE4040F42F
:100D4000000070477FEA226216BF08467FEA2363ED
:100D50000146420206BF5FEA412390EA010F40F4D8
:100D6000800070474FF0000304E000BF10F0004324
:100D700048BF40425FEA000C08BF704743F096430B
:100D800001464FF000001CE050EA010208BF704726
:100D90004FF000030AE000BF50EA010208BF7047AD
:100DA00011F0004302D5404261EB41015FEA010CC2
:100DB00002BF84460146002043F0B64308BFA3F1BA
:100DC0008053A3F50003BCFA8CF2083AA3EBC2539C
:100DD00010DB01FA02FC634400FA02FCC2F12002BB
:100DE000BCF1004F20FA02F243EB020008BF20F0F2
:100DF0000100704702F1200201FA02FCC2F1200258
:100E000050EA4C0021FA02F243EB020008BF20EA4C
:100E1000DC7070474FF0FF0C1CEAD0521EBF1CEA7A
:100E2000D15392EA0C0F93EA0C0F6FD01A4480EA68
:100E3000010C400218BF5FEA41211ED04FF0006351
:100E400043EA501043EA5111A0FB01310CF000407D
:100E5000B1F5000F3EBF490041EAD3715B0040EAA3
:100E6000010062F17F02FD2A1DD8B3F1004F40EB73
:100E7000C25008BF20F00100704790F0000F0CF046
:100E8000004C08BF49024CEA502040EA51207F3A0A
:100E9000C2BFD2F1FF0340EAC250704740F40000E5
:100EA0004FF00003013A5DDC12F1190FDCBF00F0D6
:100EB00000407047C2F10002410021FA02F1C2F184
:100EC000200200FA02FC5FEA310040F1000053EA20
:100ED0004C0308BF20EADC70704792F0000F00F06E
:100EE000004C02BF400010F4000F013AF9D040EA74
:100EF0000C0093F0000F01F0004C02BF490011F408
:100F0000000F013BF9D041EA0C018FE70CEAD15305
:100F100092EA0C0F18BF93EA0C0F0AD030F0004C85
:100F200018BF31F0004CD8D180EA010000F0004039
:100F3000704790F0000F17BF90F0004F084691F0F7
:100F4000000F91F0004F14D092EA0C0F01D1420231
:100F50000FD193EA0C0F03D14B0218BF084608D1FA
:100F600080EA010000F0004040F0FE4040F4000044
:100F7000704740F0FE4040F4400070474FF0FF0CD7
:100F80001CEAD0521EBF1CEAD15392EA0C0F93EA1E
:100F90000C0F69D0A2EB030280EA010C49024FEA70
:100FA000402037D04FF0805343EA111143EA101329
:100FB0000CF000408B4238BF5B0042F17D024FF4E1
:100FC000000C8B4224BF5B1A40EA0C00B3EB510FBC
:100FD00024BFA3EB510340EA5C00B3EB910F24BFA5
:100FE000A3EB910340EA9C00B3EBD10F24BFA3EB2A
:100FF000D10340EADC001B0118BF5FEA1C1CE0D1F2
:10100000FD2A3FF650AF8B4240EBC25008BF20F0A4
:10101000010070470CF0004C4CEA50207F32C2BFF8
:10102000D2F1FF0340EAC250704740F400004FF095
:101030000003013A37E792F0000F00F0004C02BFC6
:10104000400010F4000F013AF9D040EA0C0093F090
:10105000000F01F0004C02BF490011F4000F013BEA
:10106000F9D041EA0C0195E70CEAD15392EA0C0F52
:1010700008D142027FF47DAF93EA0C0F7FF470AF8A
:10108000084676E793EA0C0F04D14B023FF44CAFCD
:1010900008466EE730F0004C18BF31F0004CCAD162
:1010A00030F000427FF45CAF31F000437FF43CAF9E
:1010B0005FE700BF4FF0FF3C06E000BF4FF0010CC0
:1010C00002E000BF4FF0010C4DF804CD4FEA4002A2
:1010D0004FEA41037FEA226C18BF7FEA236C11D0EC
:1010E00001B052EA530C18BF90EA010F58BFB2EB9F
:1010F000030088BFC81738BF6FEAE17018BF40F01F
:10110000010070477FEA226C02D15FEA402C05D1D2
:101110007FEA236CE4D15FEA412CE1D05DF8040B57
:10112000704700BF844608466146FFE70FB5FFF7EA
:10113000C9FF002848BF10F1000F0FBD4DF808EDA2
:10114000FFF7F4FF0CBF012000205DF808FB00BF93
:101150004DF808EDFFF7EAFF34BF012000205DF8ED
:1011600008FB00BF4DF808EDFFF7E0FF94BF01203A
:1011700000205DF808FB00BF4DF808EDFFF7D2FF37
:1011800094BF012000205DF808FB00BF4DF808ED7A
:10119000FFF7C8FF34BF012000205DF808FB00BF47
:1011A0004FEA40024FEA41037FEA226C02D15FEA34
:1011B000402C08D17FEA236C02D15FEA412C02D196
:1011C0004FF0000070474FF0010070474FEA4002B7
:1011D000B2F1FE4F0FD34FF09E03B3EB12620DD965
:1011E0004FEA002343F0004310F0004F23FA02F0CF
:1011F00018BF404270474FF00000704712F1610F76
:1012000001D1420205D110F0004008BF6FF000404C
:1012100070474FF00000704742000ED2B2F1FE4F0F
:101220000BD34FF09E03B3EB126209D44FEA0023B5
:1012300043F0004323FA02F070474FF0000070477C
:1012400012F1610F01D1420202D14FF0FF3070471D
:101250004FF00000704700BF53B94AB9002908BFDA
:1012600000281CBF4FF0FF314FF0FF3000F06AB98B
:10127000ADF1080C6DE904CE00F006F8DDF804E0ED
:10128000DDE9022304B070472DE9F047089D0C46C4
:10129000002B4ED194468C458646B2FA82F262D932
:1012A0004AB1C2F12003914020FA03F30CFA02FC88
:1012B000194300FA02FE4FEA1C471FFA8CF6B1FBF5
:1012C000F7F44FEA1E4307FB141143EA014304FB02
:1012D00006F199420AD91CEB030304F1FF3080F0B8
:1012E0001281994240F20F81023C6344591A1FFA5D
:1012F0008EF3B1FBF7F007FB101143EA014300FB4B
:1013000006F69E420AD91CEB030300F1FF3180F080
:10131000FC809E4240F2F980634402389B1B40EA05
:10132000044000211DB1D3400022C5E90032BDE8D0
:10133000F0878B4205D90DB1C5E9000100210846AF
:10134000F5E7B3FA83F1002946D1A34202D39042D4
:10135000C0F0F080861A64EB03030120002DE6D074
:10136000C5E90063E3E7002A40F09080A1EB0C049C
:101370004FEA1C481FFA8CF70121B4FBF8F64FEA3C
:101380001E4308FB164443EA044307FB06F0984259
:1013900008D91CEB030306F1FF3402D2984200F295
:1013A000CD8026461C1A1FFA8EF3B4FBF8F008FB1A
:1013B000104443EA044300FB07F79F4208D91CEBA3
:1013C000030300F1FF3402D29F4200F2B0802046B6
:1013D000DB1B40EA0640A5E7C1F120068B4022FA5C
:1013E00006F71F4320FA06FC04FA01F343EA0C0354
:1013F000F44000FA01F8380C4FEA1349B4FBF0FE50
:101400001FFA87FC00FB1E4449EA04440EFB0CF95A
:10141000A14502FA01F20AD93C190EF1FF3A80F017
:101420008480A14540F28180AEF1020E3C44A4EBE1
:1014300009041FFA83F9B4FBF0F300FB134449EAF3
:10144000044403FB0CFCA44507D93C1903F1FF300D
:1014500067D2A44565D9023B3C4443EA0E40A0FB59
:101460000293A4EB0C049C42CE469C4651D34ED032
:1014700055B1B8EB0E0364EB0C0404FA06F6CB404E
:101480001E43CC40C5E90064002150E7C2F12003AF
:1014900020FA03F10CFA02FC24FA03F394400C4303
:1014A0004FEA1C4800FA02FE1FFA8CF7B3FBF8F073
:1014B00008FB1031230C43EA014300FB07F199427A
:1014C00008D91CEB030300F1FF362CD299422AD92C
:1014D000023863445B1AA4B2B3FBF8F108FB113382
:1014E00044EA034401FB07F3A34208D91CEB0404BC
:1014F00001F1FF3613D2A34211D902396444E41A30
:1015000041EA004139E70446F0E6084606E7C845E7
:10151000AED2B9EB020E63EB070C0138A8E73146F7
:10152000EDE7034699E73046D4E7D6467FE76344C4
:1015300002384DE70646234608460FE7023E63445D
:1015400030E700BF704700BF0121402013F030B8E2
:10155000F8B5154E154C338801339BB2B3F57A7F3D
:10156000338004D9E388A3800123E38033800025FE
:101570002F462278EBB29A4200D8F8BD637002334E
:1015800054F823309A8801329A803288B2F57A7FF3
:1015900024BFDA885A801A6928BFDF8012B11B7A0B
:1015A00003B190470135E4E72AB200202CB20020B5
:1015B00073B500242246224B009441F28831214821
:1015C000214E13F073F92246204B009440F6B831B7
:1015D0001F4813F06BF9224621461E4B022012F0E1
:1015E000D5FE00F097FF01F06DFB1B491B4A1C4B19
:1015F000126E01254D63284691F8301000F02EFB45
:1016000001F0A0FD174B00942A464FF4FA613046D2
:1016100013F04CF9304613F0F5F9134A21464020F7
:1016200013F090F82946402012F0C2FF0F4B2246DB
:101630002146022002B0BDE8704012F0A7BE00BFF4
:10164000012300088CB200205CB200204929000868
:1016500074B2002051890108D0B40020A0B5002048
:10166000792B0008AD3D0008491500087289010872
:101670000B4B0C4A196812780A441A601B68033332
:101680000CD9BFF34F8F0849084BCA6802F4E062D7
:101690001343CB60BFF34F8F00BFFDE7FFF758BF89
:1016A000D4D30020A8AF002000ED00E00400FA052C
:1016B00003680B4A934201D101F08EBD094A93425F
:1016C0000DD1094A138801339BB2B3F57A7F138099
:1016D00005D3064BD98B59830021D98311807047DC
:1016E000004801400044014028B2002054AE0020D0
:1016F000042802D0102802D0704702F09FBB01F0EE
:1017000011B900002DE9F043012891B005460E46BD
:1017100040F0948000230A93D5238DF82C304A4B57
:1017200008934A4B4A4C09934A4B0D934A4B0C93EE
:1017300008A94A4B0E93204604F038FF28B14FF019
:10174000FF39484611B0BDE8F0830DF10301204692
:1017500004F005FD0028F2D19DF803306B2BEED18B
:1017600001A9204604F0E8FA9DF806309DF804101F
:101770009DF80520DFF8E8803A4FC8F804409B0048
:1017800043EA4103384913434B60F007374B7B6012
:1017900009D5012A07D1364A36491B68D16020464F
:1017A00098470028CBD1B10726D47207C7D47B68ED
:1017B000D8F80400DB6808A998478146002840D182
:1017C0009DF82040631E5C425C419DF82130012B56
:1017D0009DF822304FEA440408BF44F00104012B75
:1017E00008BF44F00404032735EA060313D0013F81
:1017F0004FEA4505F8D1A4E79DF80430012BD4D178
:101800001B4B1D4A1A617B68D8F804001B68984777
:101810000028CAD093E735EA0403E8D1174B144AED
:1018200053F82530D8F80400033352F823301B68EE
:1018300098470028DBD06FF0040982E76FF00109B8
:101840007FE76FF006097CE7495B000861590008F3
:10185000A4B20020E5590008B1590008ED5A00086B
:1018600004B30020E4B20020DCB2002054AF00201A
:10187000ECB200200CAF002030AF002094890108AA
:1018800001280B4610B5114619D80E4A52F82020EF
:1018900003EA0204934312D10B4A52F8242000EBCE
:1018A00040031344094A52F82330094A1B6A52F88C
:1018B00020009847002818BF6FF0040010BD6FF09B
:1018C0000100FBE7DCB2002094890108ECB20020A3
:1018D00004B30020012808B508D1064B586804F06D
:1018E0004AFE002818BF6FF0040008BD6FF0010029
:1018F000FBE700BF04B30020012808B508D1064B60
:10190000586804F042FE002818BF6FF0040008BDBC
:101910006FF00100FBE700BF04B300202DE9F043A6
:101920000F4691B0002878D17F238DF82C303E4BA4
:1019300008933E4B3E4C09933E4B0D933E4B0A9011
:101940000C9308A93D4B0E93204605F015FE28B1D7
:101950004FF0FF34204611B0BDE8F0830DF10701D0
:10196000204605F08BFD0028F2D19DF80730A02B12
:10197000EED102A9204605F0D5FC314B9DF8082098
:10198000DFF8C080304D1A60F907304BC8F80040CE
:101990002B6009D5012A07D12D4A2E491B681160F9
:1019A000204698470028D3D12B68D8F80000DB6880
:1019B00008A99847044698BB9DF820506B1E5D42CD
:1019C0005D419DF82130012B9DF8223008BF45F084
:1019D0000205012B08BF45F004054FF0020901265E
:1019E00036EA070307D0B9F1010F4FEA4606B1D036
:1019F0004FF00109F4E736EA0503F4D1164BD8F8A5
:101A0000000053F82620124B53F822301B689847E9
:101A10000028E8D06FF004049CE76FF0010499E718
:101A20006FF0060496E700BF495B000861590008A3
:101A30000CB30020E5590008B1590008ED5A000820
:101A400044B3002064B300204CB3002094AF0020C6
:101A500054B3002080AF0020A8890108012808B5F0
:101A600018D80E4B53F8203001EA0302994311D1E4
:101A70000B4B53F822300B4A03EB400352F8233050
:101A8000094A1B6852F820009847002818BF6FF0D9
:101A9000040008BD6FF00100FBE700BF44B3002065
:101AA000A889010854B3002064B3002037B502F0C0
:101AB0009FFAB0F52F6F1BD8124A137843F0080332
:101AC00013700024104DAB69A34218D0002200907F
:101AD00011460E4B022012F059FC2846042240F811
:101AE000184F4FF47F7103B0BDE8304000F034BCB4
:101AF00040F6A844A04294BF01240224E2E703B0C8
:101B000030BD00BF6CB30020D0B40020BC890108F8
:101B100010B50B4A0B4C00231370E36304F13C0037
:101B2000022304224FF48461A36100F015FC04F148
:101B300018000422BDE810404FF47F7100F00CBC87
:101B40006CB30020D0B4002073B5FFF7AFFF254D74
:101B500025482B78C26B9A4241D040F83C3F042282
:101B60004FF4846100F0F8FB2B78204E204C13F0EA
:101B7000020F0CBF234633460022009311461D4B33
:101B8000022012F003FC2B7813F0040F0CBF234645
:101B90003346002200931146174B022012F0F6FB49
:101BA0002B7813F0080F0CBF234633460022009316
:101BB0001146124B022012F0E9FB95F90030002289
:101BC00034EA230428BF344600940D4B114602200A
:101BD00012F0DCFB02B0BDE8704000F001B902B0C9
:101BE00070BD00BF6CB30020D0B40020DC890108B8
:101BF000E1890108E7890108FC8901080C8A0108CC
:101C0000208A0108BFF34F8F0549064BCA6802F4CA
:101C1000E0621343CB60BFF34F8F00BFFDE700BF0F
:101C200000ED00E00400FA0538B504460D4614F056
:101C300089F8291B013190FBF1F303FB11000444E7
:101C400014F080F8054602F08BFE023005EB5000E0
:101C5000A4B214F049F8204638BD00002DE9F34144
:101C6000884615461E46074605F0FAFD254CC4F881
:101C7000E00005F0FBFDC4F8E40005F0FDFDD4E94B
:101C800038325340C4F8E800584014F02DF8002FC3
:101C90001D4AC4F8F4600CBF0123022313701B4AD1
:101CA00084F8DA7013701A4A1A4BA4F8D88008BF67
:101CB000134605F57A750022C4F8EC5011460093DE
:101CC0000220154B12F062FB144B1B7873B194F891
:101CD000DA30ABB9D4F8EC30D4F8F020136000223D
:101CE000009311460E4B022012F050FB4FF47A7114
:101CF0006420FFF799FF02B0BDE8F04102F038BE62
:101D00000023E9E770B30020A4000020A500002014
:101D1000398A01083D8A0108428A01086DB3002012
:101D20006E8A0108074B1B78012B09D1064BD3F8AB
:101D3000F02000201060C3F8EC00D3F8F43018470E
:101D4000704700BFA400002070B3002010B50A4CFB
:101D50002378012B094B04BF44F620621A601B68EC
:101D60003BB9A0604EF660213220FFF75DFFA3680B
:101D70000344A36010BD00BF70B30020A00000208A
:101D800007B50B4B9B684EF66021B3FBF1F201FBEC
:101D900012334FF47A71B3FBF1F3CDE90023002243
:101DA000044B1146022012F0F1FA03B05DF804FB77
:101DB00070B30020998A0108074B10B5D3F8DC40B6
:101DC0003CB9064B22462146022012F0DFFA20469B
:101DD00010BD0120FCE700BF70B30020D48A0108C9
:101DE00010B5FFF7E9FFB0B10B4C49F64043A360D3
:101DF0000023A371FFF7C4FFD4F8DC0012F0B4FD98
:101E0000A168D4F8DC0012F037FED4F8DC00BDE89D
:101E1000104012F0F7BD10BD70B30020034B91F9D4
:101E200009205A80022283F8F920704770B30020FD
:101E300030B5124B93F8D6400E2C1ED8651C83F893
:101E4000D650105593F8D600441C83F8D6400C0E9B
:101E5000145493F8D600441C83F8D6400C14145440
:101E600093F8D600441C83F8D6400C12145493F80F
:101E7000D600441C83F8D640115430BD70B3002006
:101E800010B501231078984200D210BDC818D45C58
:101E900000F8014C0133DBB2F4E7000037B5304DF8
:101EA000304CB5F90230626A9A4207D020460422CB
:101EB00040F8243F4FF4816100F04EFA95F8F93074
:101EC000D4F8C4209A4207D02748C4F8C43004226A
:101ED0004FF4956100F040FA95F8FA30D4F8C82034
:101EE0009A4207D02148C4F8C830042240F2AC41DD
:101EF00000F032FAD5F8F03000221B68009311464A
:101F00001B4B022012F042FAAB79009300221146DB
:101F1000184B022012F03AFAB4F924300093002250
:101F20001146154B022012F031FAD4F8C420134B9D
:101F3000142505FB0233002200931146104B0220AA
:101F400012F024FAD4F8C8200E4B05FB023300220D
:101F5000009311460C4B022012F018FA03B030BD6A
:101F600070B30020D0B4002094B5002098B50020B4
:101F7000F28A01081C8B01083B8B010850000020ED
:101F8000578B010800000020788B010837B5054603
:101F9000FFF712FF00283FD0204CB5B9022384F888
:101FA000F93042F21073A360A571D4F8DC0012F08E
:101FB000DBFCA168D4F8DC0012F05EFDD4F8DC0094
:101FC00003B0BDE8304012F01DBD63790133DBB2D0
:101FD00000226371114600930220114B12F0D6F9D2
:101FE00063790E2B4FF0000510D9B4F8D8300D48A6
:101FF00065715843FFF7AAFE012384F8F93084F88D
:10200000FA30FFF74BFFFFF7BBFECEE749F6404043
:10201000FFF79CFE2B46F0E703B030BD70B3002005
:10202000998B010880EE360073B55B4C5B4AD4F89F
:10203000F030C4F8DC1019689142054608D9002038
:102040001860574B1B78012B5AD1D4F8F4309847BD
:1020500094F8F8202B78A12A40F08680002B00F01D
:102060009780032684F8F9606D7A002D4DD123798D
:102070000133DBB223712A4600932946494B0220E3
:1020800012F084F923796580092B84F8FA6039D934
:10209000434B25711B780226012B84F8F96023D16C
:1020A000D4E93B2329461A6030463F4B2A4612F0BA
:1020B0006DF9B4F8D8303D48A5715843FFF746FE96
:1020C000FFF7ECFEFFF75CFED4F8DC0012F04CFCEE
:1020D000A168D4F8DC0012F0CFFCD4F8DC0012F0D8
:1020E00091FCA06802B070BDFFF7D8FE304B2A46C5
:1020F0002946304612F04AF94FF47A7002F038FC63
:10210000FFF780FD49F64040D8E70025294B2571AF
:102110002A462946022012F039F9A379217B01339E
:10212000DBB20222994284F8FA20A3710FD942F25D
:102130001073A3601A4B1B78012BC1D1D4F8F03077
:102140001868C4F8EC00D4F8F4309847B8E70123D5
:1021500084F8FA301548B4F8D83084F8F920584398
:10216000A571FFF7F3FDE5E793B10D4B1B78012B4C
:1021700004BFD4F8EC30EB600022A12384F8F830DF
:1021800011460D4B022012F001F9FFF7F9FDA8E707
:10219000002384F8F830A4E770B30020EED8FFFFE6
:1021A000A4000020BB8B0108DC8B010880EE360008
:1021B000048C01082E8C0108548C01082DE9F0478D
:1021C000354C012384F8D630344B5A6B1B6BA4F882
:1021D000D830A37984F8DA200325012B06460F4670
:1021E00025733FD0022B4AD00BB10023A371DFF837
:1021F000B09094F80680D9F80000FFF70DF8142588
:102200004FF00E0A15FB08A8A044014642460020E4
:10221000FFF70EFEA379D9F8080015FB03A5FEF71A
:10222000FBFF254401462A460120FFF701FE94F8F2
:10223000F830A279A12B14BF0023032384F8F930CE
:1022400094F8D630142101FB0242013BDBB29373B8
:102250003B70A07901FB00420E323146BDE8F047E9
:10226000FFF70EBE04F1220202200021FFF7E0FD7D
:10227000A279142303FB02420E322846D5E704F16B
:10228000360204200021FFF7D3FDA279142303FBBB
:1022900002420E320420C8E770B30020D0B4002000
:1022A0000CB6002038B504460025A54200D138BD43
:1022B00002F056FB0135F8E738B50E480E4C12F027
:1022C00053FB0C4812F09EFB25788DB90B48012278
:1022D000202106F033FC09482A46802106F02EFC16
:1022E00001232370BDE838404FF47A60FFF7DABF6E
:1022F00038BD00BF8CB200206CB400200004004840
:1023000010B5094C237873B1084812F02DFB08482A
:102310000022202106F012FC05480022802106F050
:102320000DFC0023237010BD6CB400208CB2002083
:102330000004004870B504460D461646FFF7BCFF82
:10234000044833462A4621460068BDE8704003F041
:102350008BBA00BF74B4002070B504460D46164613
:10236000FFF7AAFF044833462A4621460068BDE825
:10237000704003F08BBA00BF74B4002070B50C46F7
:102380000D4D0646FFF798FF0C4B286893E80600B2
:1023900003F094FA0A4B28685C7000221A703146E8
:1023A000220203F097FA074B286893E80600BDE87D
:1023B000704003F083BA00BF74B40020D88D0108C8
:1023C00072B40020D08D010873B5FFF775FF354C4E
:1023D000354B2068354D93E8060003F06FFA8121F4
:1023E000206803F033FA0021206803F089FA012104
:1023F000206803F05DFAFF220221206803F07AFAD8
:10240000FF220121206803F075FAFF2200212068D5
:1024100003F070FA03236B70254B20681A780021B3
:1024200003F068FA2B786A78206843EA02220021D8
:1024300003F050FA1F4B20681A78012631466E705F
:1024400003F058FA2B786A78206843EA0222314672
:1024500003F040FA0026FF22022120682E706E70E1
:1024600003F048FA2B786A78206843EA02220221B6
:1024700003F030FA8DF80760B1B201220DF10700C8
:102480000136FFF769FF402EF6D10B4830220021BC
:10249000FFF762FF094B206893E8060003F00EFA8D
:1024A00002B070BD74B40020D88D010872B4002051
:1024B000DB000020DA000020A7000020D08D0108FA
:1024C00070B50F4D0F4E104CFFF7F6FE2A46002157
:1024D000306803F009FA22463068012103F004FA5B
:1024E0000A4B1A782B789A4204D1094B1A78237830
:1024F0009A4203D0BDE87040FFF766BF70BD00BFD1
:1025000071B4002074B4002070B40020DB000020FF
:10251000DA00002010B5FFF7CFFE054C206803F06D
:1025200061F90028FAD1BDE8104003F02BB900BFD3
:1025300074B4002010B50E4CD4F8B42082B100223F
:1025400011460C4B022011F021FF20460023BDE86C
:10255000104040F8B43F04224FF49361FFF7FCBEF3
:10256000BDE81040044B1146022011F00FBF00BF20
:10257000D0B40020728C0108988C01082DE9F0413C
:10258000214A22480823002110F8014F12F8015F68
:10259000013BA5421CBF1470012113F0FF03F3D1CE
:1025A0001B4B1C4A102412F8017F13F801CF167C34
:1025B00092F8205092F83000BC450BD193F810C02F
:1025C000B44507D193F820C0AC4503D193F830C08F
:1025D000844506D01F701E7483F8205083F83000A5
:1025E0000121013C14F0FF04DDD151B1204600F07F
:1025F000CFFA22462146084BBDE8F041022011F0F7
:10260000C5BEBDE8F08100BFABB500203BB50020E2
:10261000BFB5002043B50020BA8C010870B5002278
:102620000D4C0E4B1146022011F0B0FE268896B9D3
:1026300002226421012520462580FFF78DFE4FF4FC
:10264000FA6002F095F90222642120462680FFF705
:1026500083FE034B1D7070BD6EB40020E08C01083A
:10266000A600002070B5244C207801280BD1002151
:10267000FFF784FE0022214B1146022011F086FE56
:102680000223237070BD0228FCD100F0FFFAFFF78F
:1026900051FFFFF773FF1A4A1A4B516D18788842A1
:1026A00007D15D78906D854203D19878D56D8542CC
:1026B000E8D01970916DD26D59709A70124EFFF773
:1026C00027FA1248002502224FF4FA51058035807E
:1026D000FFF742FE022264213046FFF73DFE012152
:1026E0000846FFF74BFE0A4B2A462946022011F006
:1026F0004DFE0123C5E700BFA6000020FF8C0108A6
:10270000D0B4002078B400206EB40020D80000209F
:10271000238D0108002210B51146124B124C0220E5
:1027200011F034FE1148002302226421038023802B
:10273000FFF712FE022220464FF4FA51FFF70CFE7B
:102740000B4C01210846FFF719FEFFF73DFE00F094
:1027500037FA204612F008F92046BDE8104012F082
:1027600051B900BF458D0108D80000206EB400208B
:1027700074B2002008B500221146084B022011F067
:1027800005FE0748002302224FF4FA510380FFF7A9
:10279000E3FDBDE80840FFF781BB00BF6E8D010877
:1027A000D800002008B500221146084B022011F085
:1027B000EDFD0748002302224FF4FA510380FFF792
:1027C000CBFDBDE80840FFF70BBB00BF8F8D0108B4
:1027D000D800002010B50B48002402224FF4FA5113
:1027E0000480FFF7B9FD22462146074C074B022023
:1027F00011F0CCFD204612F0B7F82046BDE810409D
:1028000012F000B9D800002074B20020B08D010889
:1028100013B53D4C02224FF4FA512046FFF78AFDD2
:102820003A4A23889268934204D102B0BDE810402E
:10283000FFF7F4BE43F6D972934229D843F6D47217
:1028400093421CD840F262629342EED041F65D3270
:102850009342EAD02E480023022264210380238081
:10286000FFF77AFD284802224FF4FA51FFF774FD72
:102870000121084602B0BDE81040FFF77FBDA3F577
:102880007F53163B032B19D8DFE803F022272C31A6
:102890004FF6FE7293420CD04FF6FF72934212D065
:1028A0004FF6FD729342D5D102B0BDE81040FFF75C
:1028B000D9BE02B0BDE81040FFF75CBF02B0BDE872
:1028C0001040FFF76FBF02B0BDE81040FFF722BF16
:1028D00002B0BDE81040FFF77DBF02B0BDE8104078
:1028E000FFF716B902B0BDE81040FFF71BBA40F27F
:1028F000626302224FF496710DF10600ADF80630C6
:10290000FFF72AFD02B010BDD8000020A0B50020BE
:102910006EB4002008B5FFF7CFFCBDE80840FFF714
:1029200077BF0000C30604D5024B1B780BB9FFF735
:10293000C3BC70476CB4002002486822C821FFF76E
:102940000BBD00BFA0B50020002208B511460A4B00
:10295000022011F01BFD4FF4FA7002F009F8BFF3EA
:102960004F8F0649064BCA6802F4E0621343CB60FE
:10297000BFF34F8F00BFFDE7E08D010800ED00E0E1
:102980000400FA0570B5224A88B010685168214ADF
:102990006B4603C31068516803C31F4B04AA03F1BD
:1029A0001006144618685968154603C50833B34223
:1029B0002A46F7D168460FF0F9FB184901200FF0BD
:1029C00057FC164902200FF053FC02A80FF032FC0E
:1029D000214600200FF08EFB214601200FF08AFBDC
:1029E000214609200FF086FB214608200FF082FBCC
:1029F000002211460A4B022011F0C8FC0FF0B8FC6F
:102A00000022084B1146022011F0C0FC08B070BD36
:102A10005C8E0108658E01086E8E01088877665508
:102A2000FD8D01082E8E010810B5144C20460FF0C4
:102A300001FC04F1240100200FF05CFB04F11401FF
:102A400001200FF057FB04F1340109200FF052FB75
:102A500004F1440108200FF04DFB00221146084B01
:102A6000022011F093FC0FF083FC0022BDE810401F
:102A7000044B1146022011F089BC00BFACB5002008
:102A80007F8E0108AD8E01082DE9F041334886B0F4
:102A90000FF09AFB324900200FF0F4FB314A106826
:102AA00051686B4603C3304B02AA03F110076E4610
:102AB000144618685968154603C50833BB422A46B0
:102AC000F7D12A4D96E8030005F10C0383E80300D3
:102AD00094E80F0005F1200E05F1300C05F14007D8
:102AE00005F150068EE80F008CE80F0087E80F0014
:102AF00086E80F001E4BEA699A66D5E9050103F1E5
:102B0000600495F8662084E80300A84600216C3331
:102B10000AB9287B58540131082905F10105F7D17C
:102B2000AAB99EE80F00134C84E80F009CE80F0040
:102B300004F1100585E80F0097E80F0004F1200567
:102B400085E80F0096E80F00303484E80F00012379
:102B500088F8663006B0BDE8F08100BFB4B500204B
:102B6000BCB50020658E0108D88E0108A0B50020F4
:102B7000D0B4002044B50020044B43F8600F042279
:102B80004FF494711846FFF7E7BB00BFA0B50020D3
:102B9000012804D0022808D060B9FFF7CDBE06484E
:102BA00054224FF4FA61FFF7D7BB0448D0224FF408
:102BB0007971F8E7704700BF7CB40020D0B40020E2
:102BC00070B5FFF761FF2A4B2A486822A3F86420FA
:102BD00042F2137647220024C3E9002640F257420E
:102BE0009A601C6683F866405423C0E90044C0E93B
:102BF00002440365046121463022143013F03DFE87
:102C00001D4B1E49C3F8C840D022C3F8CC201C4A33
:102C10000125C3E900521B4AC3E902121A4AC3E95B
:102C200004240322C3E906240C22C3E90C250A224A
:102C3000C3E90844C3E90A55C3E90E24C3E91044B3
:102C4000C3E91244C3E91444C3E91644C3E92E6539
:102C5000C3E93044FEF75CFFFEF776FFFFF76CFE3A
:102C60000220FFF795FF2846BDE87040FFF790BFB0
:102C7000A0B500207CB40020D0B4002052202D202C
:102C80004D4554454E414D452E2E2E3F012807D02F
:102C900002280AD070B908486822C821FFF74ABB49
:102CA000064854224FF4FA61F8E70548D0224FF461
:102CB0007971F3E7704700BFA0B500207CB4002015
:102CC000D0B4002030B54E4D85B06822C8212846CA
:102CD0000024ADF80E40FFF72DFB02224FF4967151
:102CE0000DF10E00FFF726FBBDF80E2043F6D97359
:102CF0009A4209D102224FF496710DF10E002C6018
:102D0000ADF80E40FFF728FB2B68472B08D16A6807
:102D100042F213739A4203D1B5F86430682B21D084
:102D2000002385F86630FFF74FFBFFF749FFBDF83A
:102D30000E20344C40F262639A425BD143F6D97361
:102D400002224FF496710DF10E00ADF80E30FFF730
:102D500003FB2D4B00221A6301232370FFF712FEA1
:102D600005B030BDFFF7ACFB0220FFF78FFF264C0C
:102D70000120FFF78BFF254BE26B1A70236CAA68CA
:102D80009A420DD1636C9A420AD0AB60FFF7D4FD32
:102D9000AB68009300221E4B1146022011F0F6FA98
:102DA000D4E91032D3420ED01A480023042240F254
:102DB0002441C4E91033FFF7CFFA174804224FF437
:102DC0008561FFF7C9FA154B626D1A70A26D5A70D2
:102DD000E26D9A70104804226421FFF7BDFA0E4894
:102DE00004224FF4FA51FFF7B7FA01210846FFF722
:102DF000C5FA9CE700232370FFF716FEB0E700BF7B
:102E0000A0B5002070B30020D0B400206CB3002027
:102E1000E98E010810B5002014B5002078B4002018
:102E20000C4B902283F820209A69082A0DD004DCEC
:102E3000022A05D0042A06D07047102A07D070470E
:102E400000221A7770470822FBE70C22F9E70422D8
:102E5000F7E700BF1C1E0020F8B5484D484CAE688F
:102E60006378B6F5806F1CD2D3B1464F4649F868F7
:102E7000FEF784F82169FDF7C5FE434920613869F2
:102E8000FEF77CF86169FDF7BDFE3F496061786936
:102E9000FEF774F8A169FDF7B5FE0136A061AE60DA
:102EA000F8BD002BFCD020694FF06A51FDF7B2FF4E
:102EB0004FF06A51E0616069FDF7ACFF4FF06A5175
:102EC0002062A069FDF7A6FF0222606216210120A0
:102ED000FEF712FD082215210120FEF70DFDA76A5D
:102EE000E0693946FEF74AF8FEF770F946B239460E
:102EF000206A84F82C60FEF741F8FEF767F939463E
:102F000084F82D00606AFEF739F8FEF75FF9F2B237
:102F100084F82E0073210120FEF7EEFC94F82D209A
:102F200074210120FEF7E8FC94F82E207521012081
:102F3000FEF7E2FC1F225C210120FEF7DDFC114BB5
:102F40005B211A790120FEF7D7FC002256210120CF
:102F5000FEF7D2FCC02258210120FEF7CDFCE02272
:102F60005E210120FEF7C8FC6B7C13B9074807F00F
:102F700071FD0023AB60637092E700BF54AE002088
:102F8000B00200201C1E002000007A44E8CE002081
:102F900038B5264CA369082B38D004DC022B14D09A
:102FA000042B23D038BD102BFCD1214DB5F90000E6
:102FB00003F05CFBE060B5F9020003F057FB206111
:102FC000B5F9040003F052FB0EE0194DB5F900000D
:102FD00003F02EFBE060B5F9020003F029FB20614D
:102FE000B5F9040003F024FB6061DBE7104DB5F98F
:102FF000000003F027FBE060B5F9020003F022FBBC
:103000002061B5F9040003F01DFBEDE7084DB5F9AB
:10301000000003F021FBE060B5F9020003F01CFBA7
:103020002061B5F9040003F017FBDDE71C1E00204A
:10303000541E00202DE9F047374DDFF8E0A0DFF8FF
:10304000E09000244FF07E582046FDF78FFE514659
:10305000FDF7E0FE4946FDF791FF12F0F5FD014650
:103060004046FDF7CDFD4FF07C51FDF7D3FE05F551
:10307000804706460146B868FDF7CCFEB86005F506
:1030800000573146B868FDF7C5FEB860A8683146FC
:10309000FDF7C0FE0134B4F5806F45F8080FD3D1B9
:1030A00020492148214F12F085FC21491E4812F089
:1030B00081FC20491C4812F07DFC1F492246A1F5E5
:1030C000005012F0FDFC1D492246A1F5A04012F06F
:1030D000F7FC1B492246A1F5004012F0F1FC174C09
:1030E00000254FF06E5657F8040F3146FDF792FE5B
:1030F000386020683146FDF78DFE44F8040B3146F8
:10310000D4F8FC0FFDF786FE0135B5F5007FC4F855
:10311000FC0FE8D1BDE8F087541E0020DB0FC9404A
:1031200000C07F445C5E002020CE0020587E00203E
:103130005C3E00205C1E00205C7E00205C8E002037
:103140005C9E002070B500241F4D2048AC70012308
:1031500022464FF4806111F00DFE2C801C4DEC8056
:1031600005F510452B7E0BB9687E08B1002070BDB7
:103170000121FEF7D3FB10BB0121FEF76FFC0038E5
:1031800018BF01204000B0FA80F06B7E400928761D
:10319000002BE7D102210120FEF7B4FA044680B9E2
:1031A0000C4E736B9847327F96F8203010211A43EB
:1031B0000120FEF7A1FB84F001046C76D2E7012028
:1031C000E1E70124F7E700BF1CCE002020CE00205D
:1031D000541E00201C1E002037B5204CE38B94F8B1
:1031E00026500133E38315BB637E012084F826005B
:1031F000D3B1A4F510420221FEF742FB08B31848F0
:1032000002F076FC228C531C9BB2092A238410D92D
:10321000144B1548DD70258407F01CFC134B2A461F
:103220002946022011F0B2F8002384F8263003B0BA
:1032300030BD00932A460E4B2946022011F0A6F815
:10324000F2E70C4B0C4D20841B6B98476B6898473A
:10325000AB689847EB689847E6E700BF54AE00209C
:1032600080D300201CCE0020E8CE00200D8F010866
:10327000318F01081C1E0020B00200202DE9F84FFC
:10328000002481468A4693469846002526462746CE
:10329000ABB298451DD84046FDF768FD014605468E
:1032A0003846FDF76BFE15F005FA0A9B29461860B3
:1032B0003046FDF763FE15F0FDF90B9B29461860BB
:1032C0002046FDF75BFE15F0F5F90C9B1860BDE894
:1032D000F88F59F835100846FDF79CFD0146384631
:1032E000FDF790FC5AF8351007460846FDF792FDA9
:1032F00001463046FDF786FC5BF835100646084669
:10330000FDF788FD01462046FDF77CFC01350446AB
:10331000BEE70000000000002DE9F74F0446006AF8
:103320006B4EFDF7E9F866A3D3E90023FDF73CF9FE
:1033300065A3D3E90023FDF737F9FDF70DFC8046BF
:10334000E069FDF7D9F85EA3D3E90023FDF72CF976
:103350005DA3D3E90023FDF727F9FDF7FDFB074641
:10336000A069FDF7C9F856A3D3E90023FDF71CF9BE
:1033700055A3D3E90023FDF717F9FDF7EDFBE36A49
:10338000009003F5005203F500530132033356F861
:10339000220056F82310FDF735FCA36A606103F59F
:1033A000E05203F5E05301320333814656F823100F
:1033B00056F82200FDF726FC636A206103F5C0522F
:1033C00003F5C05301320333824656F8231056F8F2
:1033D0002200FDF717FC41460546E0604846FDF730
:1033E000CDFD8346FDF788F83A4C80468946504625
:1033F0003946C4E94E89FDF7C1FD8246FDF77CF8E8
:1034000006460F462846C4E92A670099FDF7B6FD2F
:103410000546FDF771F802460B46CDE90001C4E907
:103420000623404600224FF480134946FDF72EFB49
:1034300008B14FF0000BC4F800B000224FF4801325
:1034400030463946FDF722FB08B14FF0000ADDE9AE
:103450000001C4F804A000224FF48013FDF716FB0E
:1034600000B100255946A5605846FDF7D3FCFDF78D
:1034700043F802460B46D4E94C01FCF7DFFEC4E9F1
:103480004C0151465046FDF7C5FCFDF735F80246A4
:103490000B46D4E92801FCF7D1FEC4E928012946EE
:1034A0002846FDF7B7FCFDF727F802460B46D4E99E
:1034B0000401FCF7C3FEC4E9040103B0BDE8F08FCA
:1034C000182D4454FB211940000000609EA0F63FD7
:1034D000541E0020E0000020264B2748B3F81C189B
:1034E0002DE9D04F254CFFF717FFD4E90467394683
:1034F0003046FDF731FB15F0DDF82149FDF78AFC78
:10350000FCF7FAFFD4E92889C4E926014946404678
:10351000FDF722FB15F0CEF81949FDF77BFCFCF70F
:10352000EBFFD4E94CABC4E94A0159465046FDF7DC
:1035300013FB15F0BFF81249FDF76CFCFCF7DCFF3C
:103540005246C4E96E015B4640464946FCF776FEAA
:1035500032463B46FCF772FEFDF7FEFA15F0AAF87C
:103560000749FDF757FCFCF7C7FFC4E97001BDE848
:10357000D08F00BFF0150020E0020020E000002006
:1035800000007A442DE9F04F89B000AF1C46D7F80F
:103590004890BA6009F1070323F00703ADEB030D70
:1035A000C7E903104A460021684613F066F904F59E
:1035B0004073EA467B61002500230326BD61A846CF
:1035C000FB6119462EE01AF80620002A64D13B6000
:1035D0003B69796053F826B05846FDF7D7FD3B6844
:1035E000002855D179688B46FA683B6052F826204E
:1035F0007A6010461946FDF7C9FD7A68002849D15E
:103600003B681A46BB68F96953F826303A60184699
:103610007B60FDF7BBFDD7E9002300283FD10136D1
:10362000134659464E45CED36360FB69BA692360A1
:10363000BB69C4F82C80C4E90953A160A8F1020356
:10364000023D023A08F10308002B04DB4B453CBF66
:1036500001210AF80310002A04DB914584BF0121EF
:103660000AF80210002D04DBA94584BF01210AF8E5
:1036700005100133434505F1010502F10102E3D1D3
:103680007B6930349C4296D12437BD46BDE8F08F2B
:10369000B046A9E7BE61B5E71A468B46BFE7354697
:1036A000FB61BCE72DE9F04F89B0884C884A894915
:1036B0008948DFF828924FF400730093884BFFF796
:1036C00061FFA06AFDF74EFB0146FDF79BFAD9F8B2
:1036D0002838E062824C06930027D9F82438D9F8BC
:1036E00020B8D9F81C6803900793A246B8460699FB
:1036F000DAF80800FDF74AFD68B10799DAF8040026
:10370000FDF744FD38B1DAF800005946FDF73EFDFB
:1037100008B10136012708F10108B8F1100F0AF1CC
:10372000300AE4D10FB1C9F81C68D9F81C2812B9C5
:103730000122C9F81C28D9F81C386A4F06930021C9
:103740000B460698834242F2030204F130040CD186
:1037500041B1634B049AC3F80423059AC3F80823C4
:10376000C3F80C5309B0BDE8F08F54F8040C07936C
:1037700000F50051013157F82180811857F8216078
:10378000FDF7F0FA314681464046FDF739FA4946E1
:1037900005464846FDF736FA01464046FDF730FA41
:1037A0003146FDF72FFA01462846FDF7E7FB4FF0BB
:1037B0007C51FDF72FFB049054F8080C00F5E05104
:1037C000013157F821A000F5E051033157F821608D
:1037D000FDF7C8FA314680465046FDF711FA4146DA
:1037E00005464046FDF70EFA01465046FDF708FA39
:1037F0003146FDF707FA01462846FDF7BFFB4FF0BB
:103800007C51FDF707FB54F80CBC05900BF5C0513B
:10381000013157F821A00BF5C0510331504657F83C
:1038200021603146FDF7ECF90BF5C0510231054638
:1038300057F821100846FDF7E5F901465046FDF717
:10384000DFF93146FDF7DEF901462846FDF796FB24
:103850004FF07C51FDF7DEFA4FF06A5105460398B0
:10386000FDF7D8FA064601460498FDF7D3FA31462B
:1038700082464846FDF7CEFA01465046FDF7C2F9AA
:10388000314644F8100C0598FDF7C4FA31468146DC
:103890004046FDF7BFFA01464846FDF7B3F944F844
:1038A000140C5846FDF75EFA3146FDF7B3FA31467F
:1038B00080462846FDF7AEFA01464046FDF7A2F9DC
:1038C000079B44F8180C013301213AE71C1E002025
:1038D0001CB600201CBE00201CC60020F0150020D5
:1038E000E0020020541E00202DE9F84F0546061F77
:1038F000DFF8A8A0D0F8FC0789469046002440F2E3
:10390000FF1B56F8041F5C450CBF2F687768FDF756
:1039100079F93946FDF776F95146FDF72FFB48F85E
:1039200024000134B4F5007F05D03068E9E7214672
:1039300017E0204629E0002500244FF07E5A00279A
:103940002646EB1BC3F30803214658F823B058461C
:10395000FDF71CFC0028EAD059465046FDF70EFB47
:1039600001463046FDF74EF90137332F0646E8D1C0
:103970000B49FDF703FB21460646FDF707FC00282F
:10398000D7D031465046FDF7F9FA49F82500013500
:10399000B5F5007FD3D1BDE8F88F00BF00004040EF
:1039A00000004C422DE9F0412C4A2D492D482C4C69
:1039B000FFF79AFF2C4A2D492D48FFF795FF2D4A16
:1039C0002D492E48FFF790FF00254FF400782E4632
:1039D0002F4654F8041B3846FDF714F9D4F8FC17A9
:1039E00007463046FDF70EF9D4F8FC1F0646284678
:1039F000FDF708F9B8F101080546EAD1204C4FF06F
:103A00006C51E760266160613846FDF703FA4FF0BC
:103A10006C51206007463046FDF7FCF94FF06C51C1
:103A2000606006462846FDF7F5F91649A060054690
:103A30003846FDF7EFF904F580541249C4F8280818
:103A40003046FDF7E7F90F49C4F824082846FDF78A
:103A5000E1F9C4F82008BDE8F08100BF1CC60020D1
:103A6000080600205C9E00201CBE0020080E0020DE
:103A70005C8E00201CB60020081600205C7E002012
:103A8000F00500200000A04038B5164C4FF400555A
:103A90002A460021204612F0F0FE2A460021A4F515
:103AA000005012F0EAFE2A4600214FF48055A4F59A
:103AB000804012F0E2FE2A46002104F5005012F088
:103AC000DCFE2A46002104F5405012F0D6FE2A46BC
:103AD000002104F5804012F0D0FE034B00229A60D2
:103AE00038BD00BF5C5E002054AE00202DE9FF41D0
:103AF00000222A4E2A4B1146022010F047FCB368E0
:103B0000B3F5806F47D1274D02952A1F0192264AAF
:103B1000A5F10804A2F50051A1F500500094FFF7AB
:103B2000ADFB55F8081C55F8048CA7680846FDF74E
:103B300071F9414605464046FDF76CF901462846B5
:103B4000FDF760F8394605463846FDF763F901464A
:103B50002846FDF757F814F0ADFD144DE060F3680A
:103B6000134C9847D5F818389847124BD3F80033C0
:103B70009847D4F8C8319847FFF786FF0022002302
:103B8000C4E90423C4E92823C4E94C230A4A0023D6
:103B9000C5F81C38138004B0BDE8F08154AE002095
:103BA0005A8F010814B600205C5E0020F01500203A
:103BB000E0000020E0020020B00200202DE9F047E4
:103BC000344D354B05F510471B78BE68B6F5806F50
:103BD00039D2B3B3DFF8C4803149D8F80C00FDF70F
:103BE000CDF93049FDF716F9740004F102092C49AA
:103BF00045F82900D8F81000FDF7C0F92949FDF76C
:103C000009F904F60209264945F82900D8F81400F4
:103C1000FDF7B4F92349FDF7FDF841F20209631CF1
:103C200004EB090AE11C4B4404F60304002245F8A6
:103C30002A00013645F8212045F8242045F82320A4
:103C4000BE60BDE8F087002BFBD01F225C21012065
:103C5000FDF752FE114B5B211A790120FDF74CFE56
:103C6000002256210120FDF747FEC02258210120E5
:103C7000FDF742FEE0225E210120FDF73DFEFFF749
:103C800035FF7B7C002BDCD1BDE8F047064806F011
:103C9000E1BE00BF541E0020B00200201C1E002008
:103CA00000007A440AE81C41E8CE00202DE9F347E1
:103CB000DFF8D88098F80330002B51D0344B1A78B5
:103CC000002A4DD15B78002B4AD1324D0DF107020D
:103CD00005F510461B210120FDF7FCFD9DF807307E
:103CE000B76883F01003C3F30013B7F5806F337424
:103CF00039D2DFF8A4802949D8F80C00FDF73EF945
:103D00002749FDF787F87C0004F10209234945F8AB
:103D10002900D8F81000FDF731F92149FDF77AF8AC
:103D200004F602091D4945F82900D8F81400FDF7EA
:103D300025F91B49FDF76EF841F20209631C04EBFB
:103D4000090AE11C4B4404F60304002245F82A004A
:103D5000013745F8212045F8242045F82320B76095
:103D600002B0BDE8F087FFF7C1FE347C002CF7D12C
:103D70000C4888F80340747406F06CFE0A4B224627
:103D80002146022010F002FBEAE700BF1CCE002013
:103D9000B0020020541E00201C1E002000007A44A7
:103DA0000AE81C41E8CE00200D8F010810B5214C17
:103DB0002388002B3CD06378C3B100221621012058
:103DC000FDF79AFD002215210120FDF795FD002247
:103DD00073210120FDF790FD002274210120FDF7E1
:103DE0008BFD002275210120FDF786FD00225C215C
:103DF0000120FDF781FD00225B210120FDF77CFD04
:103E0000002256210120FDF777FD002258210120D4
:103E1000FDF772FD00225E210120FDF76DFD0023FC
:103E2000A361636123610448BDE8104006F0ECBD66
:103E300010BD00BFB0020020E8CE0020F7B5204D35
:103E400000F08EFD2B6898421CD31E4EF77887BB7E
:103E500000F086FD2B681C4C6433984288BF2770A5
:103E600023785A1C092B22700ED800F079FD237894
:103E700000F5FA7000222860114600930220134BCF
:103E800010F084FA03B0F0BD00252A46104B2570CF
:103E90002946022010F07AFAFFF7F6FD0D4B0E4886
:103EA0005D610122F2705A7403B0BDE8F04006F083
:103EB000ABBD00F055FD00F57A702860E2E700BF69
:103EC000DC0000201CCE002008B60020848F0108F2
:103ED000B38F010854AE0020E8CE00201348144AE6
:103EE00008B54FF00043C0E90023042242610122DB
:103EF0000023C2614FF480510722C0E90233C0E9B8
:103F00000933C0E90C1203610383837680F8203003
:103F100080F82C30826380F83C30C36403F020FDCD
:103F200018B1BDE8084000F043BB08BD34CE002006
:103F3000002401400268084B9A4282B00AD14FF037
:103F4000B0431A6E42F400721A661B6E03F40073DB
:103F50000193019B02B07047002401400268054BA9
:103F60009A4201BF4FF0B042136E23F40073136600
:103F7000704700BF0024014030B585B000240546DD
:103F8000CDE901440394FFF7A9FF144804F07CF83D
:103F900008B100F00DFB1148039401A9CDE90154CB
:103FA00003F03CFE08B100F003FB0C4803F096FF61
:103FB00008B100F0FDFA4FF0FF31084803F0D0FDE2
:103FC000064804F043F8054803F024FE044603487D
:103FD00003F0E6FF204605B030BD00BF34CE002020
:103FE000014B024A1A60704734CE00200024014081
:103FF00008B50948FFF7C0FF68B1084BB3F8AA300D
:104000004FF6FF72934216BF40F6E442044B53430F
:10401000B3FBF0F398B208BD002000B40075FF1F99
:10402000D8084C0013B50023ADF80630FFF7E0FFC9
:1040300004461948FFF7A0FF184BB3F8C820B3F89F
:10404000A8108A4204FB00F018D040F6E443B0FB0D
:10405000F3F364205B1A4343521A93FBF2F31E33CB
:104060001BB2ADF80630BDF806305BB21B02ADF8EE
:104070000630BDF8060000B202B010BD4FF47A72EF
:1040800040F6FF73B0FBF3F35343A3F53923A3F5D5
:104090000C6340F6C412E0E7001000B00075FF1F8B
:1040A0004FF0B04307B59A6C42F004029A649A6CE0
:1040B00002F004020192019A9A6C42F001029A64A1
:1040C0009B6C002203F00103009311460F20009B1C
:1040D00004F078F80F2003B05DF804EB04F0A4B806
:1040E00008B504F02BFB10B16FF0040008BD064BBF
:1040F0009A6942F040429A614CF2FA321A6104F035
:104100002FFB0028F2D0EFE700400058F0B585B053
:1041100000230D4600930646A8B3FFF7E1FF0446CF
:1041200070BB04F00BFB88BB1A481B4A02230193A7
:10413000D0F8E01506F1784302EA8121B3FBF1F7EC
:1041400001FB1733DB0A0293D0F8E00505F1784153
:104150000139314402EA8022B1FBF2F002FB101176
:10416000C3EBD1230133694601A8039304F078FB24
:1041700020B1022814BF6FF00104012404F0F0FA0A
:10418000204605B0F0BD6FF00504F9E76FF00404B8
:10419000F6E700BF0070FF1F00FCFF03014B186033
:1041A0000020704798CE00202DE9F04FB0F1006F4D
:1041B00089B006460F469046C0F0C080DFF8909167
:1041C000644DD9F8E03505EA832303F10063013B30
:1041D000984200F2B380002900F0B38040EA020365
:1041E0005B0740F0AE80FFF77BFF044690BB04F016
:1041F000A5FA002840F0A880D9F8E015009705EA54
:10420000812106F17842B2FBF1F301FB132208F1A0
:104210007843013B3344B3FBF1F001FB1033DB0A7D
:1042200001334FEAD22AA3EBD222012A039388BF9B
:10423000C6F30A050AF58037C6F108038CBFC5F539
:1042400000654546FF02B3460693039B9A4505D396
:1042500004F086FA204609B0BDE8F08FA6F1080305
:10426000069A1A4495421CD8009B04950193CDF8F8
:1042700014B04FF00009059B09EB0301049B99451D
:104280003DD3009BAB442B44A8EB0505B5F5006F6F
:10429000009328BF4FF400650AF1010A07F5006793
:1042A000D3E753F8081F5A68B2F1FF3F08BFB1F1D6
:1042B000FF3FD5D0284B186810B96FF00504C7E749
:1042C00027B14FF40062394610F066F9DFF88890A4
:1042D0000099D9F80030CBF30A001844AAB210F0C4
:1042E0005BF94FF400613846FFF710FF00BBD9F8C7
:1042F000003001934FF4006305970493B9E7019BE5
:1043000007914B4402930120D3E9002304F062FAA1
:1043100088B90799019BD1E9000259F80310029B63
:104320005B689A4208BF884205D109F10809A2E7F3
:104330006FF001048CE76FF0030489E74FF0FF345E
:1043400088E76FF0050485E76FF0040482E700BF9B
:104350000070FF1F00FCFF0398CE0020B1F1006F3A
:1043600070B510D30B4BD3F8E0650B4B03EA8623F3
:1043700003F10063013B994205D838B192B210F0C5
:104380000BF9002070BD4FF0FF30FBE76FF0050028
:10439000F8E700BF0070FF1F00FCFF03B0F1006FE3
:1043A00010B40DD3084BD3F8E045084B03EA84233F
:1043B00003F10063013B984202D810BCFFF7A6BE90
:1043C0004FF0FF3010BC70470070FF1F00FCFF0370
:1043D0004FF0B04382B0DA6C0243DA64DB6C034026
:1043E0000193019B02B07047F0B587B01422002101
:1043F00001A812F042FA0420FFF7EAFF0220374D2D
:10440000FFF7E6FF0120FFF7E3FF8020FFF7E0FF63
:10441000202100222846002404F090FB03264FF6BA
:104420004A6301A92846CDE90136039404F066FAEF
:1044300042F2440301A92A480394CDE9013604F06D
:104440005DFA48F2F37301A94FF09040CDE90136CF
:104450000827039404F052FA01A922480394CDE9F5
:10446000017604F04BFA022604224FF4041301A94A
:104470002846CDE90123039604F040FA4FF488134F
:104480004FF4C871CDE90113284601A9039604F041
:1044900035FA01232020CDE9010301A92846CDE901
:1044A000036404F02BFA22462146384603F08AFEC4
:1044B000384603F0B9FE224621460A2003F082FE68
:1044C0000A2003F0B1FE22462146162003F07AFEB0
:1044D000162003F0A9FE07B0F0BD00BF000400489D
:1044E00000080048001C004800B59BB0482200218D
:1044F00008A812F0C2F91C22002101A812F0BDF98F
:1045000004F07CFF4FF0B0420120D2F8903023F04D
:104510001803C2F89030D2F8003423F4C06343F497
:104520000073C2F80034D2F8003403F4C06300937F
:10453000009B2423089381230B930023CDE91003D0
:10454000B02208A8CDE9122305F0D0F808B172B660
:10455000FEE74F23CDE90130CDE903000590079038
:10456000022101A805F05CFB08B172B6FEE71BB0A2
:104570005DF804FB08B503F04FF9FFF7B5FFFFF74F
:1045800033FF00F077FD00F09BFA00F07FFA4FF464
:10459000FA7000F0EDF9044806F036FA034B0122F8
:1045A0005A7000F06EFDFCE734CF0020B00200200E
:1045B00072B6FEE700B58DB02C22002101A812F0E2
:1045C0005CF91748174B03601F2383604FF080424C
:1045D0000023C0E90433C0E9072383614FF48073EB
:1045E000436205F0DDFD08B1FFF7E2FF0C4805F07E
:1045F00003FF08B1FFF7DCFF4FF0005300220793E1
:10460000074808924FF4807301A9029206920B9317
:1046100005F026FE08B1FFF7CBFF0DB05DF804FBF7
:104620009CCE00200028004010B5044690B03822EF
:10463000002102A812F021F92268194B9A422CD1CC
:104640004FF48033029302A84FF480730F9305F068
:1046500025FC08B1FFF7ACFF4FF0B0430220D3F8C0
:10466000902042F40042C3F890209A6D42F4806298
:104670009A659B6D002203F4806311460193019BB0
:1046800003F0A0FD022003F0CFFD00222A201146F6
:1046900003F098FD2A2003F0C7FD10B010BD00BF45
:1046A000002800407047000008B503F0CBF8044B29
:1046B0000120C3F88800BDE8084004F0F7BE00BF41
:1046C0000004005803F0C5B808B503F0C2F8BDE80F
:1046D000084000F069BC08B503F0B4F8BDE8084034
:1046E0000121002004F092BE70477047FEE7FEE70C
:1046F000FEE7FEE7FEE7704770477047FCF7B8BF7C
:10470000014805F09FBE00BF9CCE0020042004F0AD
:1047100033BA102004F030BA014803F06FBF00BF75
:1047200088CF002008B5802004F026FABDE80840B4
:10473000014803F0D6BF00BF04AF0020014806F0D7
:10474000A5B900BF34CF0020014806F09FB900BFD3
:10475000E8CE0020014806F091BB00BFE8CF002062
:10476000014805F0A3BC00BF9CCE0020014806F024
:1047700092B800BFD4CE0020054808B508230360D6
:1047800005F0A6FE18B1BDE80840FFF711BF08BD4F
:10479000D4CE00204FF0B04307B55A6E42F001026C
:1047A0005A665B6E002203F001030193114632202A
:1047B000019B03F007FD322003B05DF804EB03F02A
:1047C00033BD00000CB407B5054A05AB10210193B9
:1047D00010F0AEF903B05DF804EB02B0704700BF13
:1047E000F48F010830B585B0044602A80D4610F0DC
:1047F00017F8BDF90C30064A00931021029B2046A1
:10480000FFF7E0FF2046FBF70BFD288005B030BD29
:10481000F48F01084FF0B04210B5936823F40043C1
:10482000936010F039F80E4B01241C7000F0A6F8CC
:104830000FF042FD0B480FF059FD0B4B4FF40042B7
:104840001A6102200FF058FDFFF7CAFB00F0C4F810
:104850000FF04CFE21462046BDE810400FF066BE2A
:10486000E0CE0020E5470008004000580FF074BE7D
:1048700008B5FFF7BDFB40F6B83398420CD8B0F549
:10488000E16F0BD3FE23A0F5E16058434FF496632C
:10489000B0FBF3F0C0B208BDFE20FCE70020FAE751
:1048A0007FB5684600F07CF80198FCF78FFC00B2F9
:1048B00007B05DF804FB0000194A38B5D2F880351E
:1048C000591C044619D102F0CBFF054602F0D4FF73
:1048D000054402F0CBFF2B0EE3712B0CA3712B0AC6
:1048E0006371030EE370C0F30742C0F30723257121
:1048F000C0B2A2706370207038BD190AC371817193
:10490000190C1B0E41710371D2F88435C370D2F8B3
:104910008405C0F30722C0F30743000EE9E700BF98
:104920000070FF1F38B5094BD3F8803503600133A1
:10493000054609D102F094FF044602F097FF444077
:1049400002F09AFF44402C6038BD00BF0070FF1F8A
:10495000012102200FF0D4BD002102200FF0D0BDB4
:10496000024B187808B100F03FB97047E0CE002044
:1049700082B00190019802B000F0D2B9074A08B5A0
:10498000D2F8903043F48043C2F8903002F07AFFBE
:1049900002F080FFBDE8084002F084BF0008005824
:1049A00010B50446FFF73EFB074BA36040F30F2012
:1049B000FCF7DCF9054B064A2360064B6060C4E94E
:1049C0000323002010BD00BF0000484200007A44CD
:1049D0000D093E00AB030500002070470120704721
:1049E00008B511F09DFF162303604FF0FF3008BD9E
:1049F00008B511F095FF16230360FEE770B50D466C
:104A000014460E46731B9C4201DC204670BDAFF37A
:104A1000008006F8010BF5E770B50D4614460E460A
:104A2000731B9C4201DC204670BD16F8010BAFF3EE
:104A30000080F5E74FF0FF3070474FF400534B60B4
:104A40000020704701207047002070470B4A116812
:104A500010B5034609B90A491160106809490A4CA2
:104A60000344091B8B4206D911F05AFF0C23036043
:104A70004FF0FF3010BD1360FCE700BFE4CE002014
:104A8000B8F2002000000120000800000A480B4A8C
:104A900008B52F23C0E90023002340F2E732C0E924
:104AA0000232C0E90433836106F0D2F818B1BDE8E0
:104AB0000840FFF77DBD08BD34CF00200044014011
:104AC0000E4B0F480F4A996A2F2310B5C0E90023F7
:104AD0000D4B00224C00A3EB4103B3FBF4F3053B69
:104AE000C0E90332802382604261836106F0B0F83E
:104AF00018B1BDE81040FFF75BBD10BD1C1E0020C3
:104B0000E8CE00200048014040420F0007B503688E
:104B1000184A934215D14FF0B0431C201A6E42F44C
:104B200000321A661B6E002203F400330093114614
:104B3000009B03F047FB1C2003B05DF804EB03F07F
:104B400073BB0D4A934211D14FF0B0431D201A6E32
:104B500042F480221A661B6E03F480230193002224
:104B60000521019B03F02EFB1D20E5E703B05DF856
:104B700004FB00BF0044014000480140014B18689D
:104B8000704700BF80CF00200320704708B5014662
:104B90004FF47A7200238002890DFCF75DFB08BD9B
:104BA0004FF47A73A0FB0303800A40EA83507047F6
:104BB000034B98689A689042FBD1C043704700BF8E
:104BC0000028004008B5FFF7F3FF014B186008BD4F
:104BD00080CF002008B5FFF7EBFF024B1B68C01A1F
:104BE00008BD00BF80CF0020024B187808B1FFF746
:104BF000DFBF704784CF002010B5074B074C012260
:104C0000DA654FF48071204605F016FA4FF0FF3355
:104C10002363002010BD00BF002800409CCE002070
:104C200002460021014805F01EBC00BF9CCE0020BA
:104C300002460121014805F016BC00BF9CCE0020B1
:104C400010B58CB02C220021044601A811F015FEED
:104C5000FFF7D2FF0C4B0D481B681C440023089340
:104C600006934FF00053E443079301224FF48073FF
:104C700001A902940B9305F0F3FA08B1FFF798FC31
:104C800000200CB010BD00BF80CF00209CCE0020C3
:104C900038B50546FFF78CFF02210446074805F0AA
:104CA000E9FBC4F309024FF47A71A2FB0121920AD5
:104CB000A30A2A8043EA805038BD00BF9CCE002062
:104CC0000148002105F0D6BB9CCE002001480121FF
:104CD00005F0D0BB9CCE0020F8B50F4D2E78CEB994
:104CE0000E4C4FF0FF372763FFF764FCFFF784FF9C
:104CF0004FF48071204605F09FF92046276305F0A8
:104D00005DFB32462046022105F0ADFBFFF75AFF5E
:104D100001232B700020F8BD84CF00209CCE002002
:104D2000014610B54FF47A7200238002890DFCF71A
:104D300093FA0146FFF73CFF0446FFF739FF031BD8
:104D40008B4200D310BD00BFF7E70FF0ADBE0000EF
:104D500010B5064C0221204605F08CFB0221421CB6
:104D60002046BDE8104005F07EBB00BF9CCE002071
:104D70001648174A08B54FF41653C0E9002300231C
:104D80000C22C0E90233C0E90523C0E90733C0E9BA
:104D90000933036106F05BFE08B1FFF709FC0B481D
:104DA000002106F0CCFF08B1FFF702FC0748002104
:104DB00006F0E5FF08B1FFF7FBFB044806F09FFF94
:104DC00018B1BDE80840FFF7F3BB08BDE8CF0020ED
:104DD0000044004030B597B005461422002103A8D6
:104DE00011F04BFD3822002108A811F046FD2A6879
:104DF0002C4B9A4253D10223089308A82A4B0A93BA
:104E000005F04CF808B1FFF7D3FB4FF0B043012198
:104E10009A6D264C42F400329A659A6D02F4003283
:104E20000292029ADA6C42F00102DA64DB6C03F05F
:104E3000010301930C22019B0223CDE903230323E9
:104E4000CDE905134FF09040072303A9079303F022
:104E500055FD17481423C4E900034FF0100C00233C
:104E600080222046C4E902C3C4E90423C4E906330E
:104E7000236203F04DFA08B1FFF79AFB0B481021AB
:104E800003F012FC08B1FFF793FB00222520EC672A
:104E90001146A56203F096F9252003F0C5F917B075
:104EA00030BD00BF0044004004000C0088CF00204B
:104EB0005800024002680C4B9A4210B5044612D1C9
:104EC0004FF0B0420C21936D23F4003393654FF003
:104ED000904003F0BFFDE06F03F08CFABDE8104096
:104EE000252003F0AFB910BD0044004008B50A46C4
:104EF0000146024805F026FF002008BDE8CF00204B
:104F000013B5114B114C18604FF40013009302AB12
:104F100013E90600204606F096FE2368DA69D103FD
:104F2000FCD4DA695202FCD59A68084842F480023F
:104F30009A6006F0CEFE06490448012206F03CFEC7
:104F4000002002B010BD00BF7CD00020E8CF0020C0
:104F500084D0002008B5074B1860FFF7A1F8FFF7D1
:104F600007FF054AD2F8803043F00063C2F8803072
:104F7000002008BD80D000200008005808B54FF080
:104F8000B04308489A6B42F400329A639A6B22F459
:104F900000329A63FFF78EFF0F2003F053F90020D1
:104FA00008BD00BFE8CF002008B5074806F04FFD58
:104FB00008B1FFF7FDFA054803F0AAF918B1BDE8FA
:104FC0000840FFF7F5BA08BDE8CF002088CF0020E1
:104FD0000268044B9A4203D1034B00201B68184718
:104FE000704700BF0044004080D0002002680B4B97
:104FF0009A4210B504460FD1094B1B682BB1D0F86B
:10500000902012B907480121984720460549BDE87C
:105010001040012206F0D0BD10BD00BF004400408A
:105020007CD0002084D00020014B00221A707047F1
:1050300085D00020014B1878704700BF85D0002034
:1050400010B5034C034922780FF0A6FA207810BD62
:1050500085D0002086D0002010B504490446F222F5
:105060000348FDF7ABF8204610BD00BF85D00020F7
:1050700086D0002008B5FFF7CDFBBDE8084000F062
:1050800087BA4FF0FF300FF0CBBA7047704700007F
:10509000014BD870704700BF88AE0020014B1874D8
:1050A000704700BF88AE002007B5064B00221B5C8E
:1050B00000931146044B02200FF068F903B05DF82D
:1050C00004FB00BF6A9001085090010808B5022057
:1050D00000210FF06DFABDE8084001480FF092BCC6
:1050E000CCD20020002101200FF062BA10B54EF69C
:1050F0006023084C002818BF0346074823600FF0C0
:1051000033FC216804480FF0B7FCBDE810400248AA
:105110000FF078BC84AE0020CCD200201FB504462E
:10512000002837D00378002B2ED01F480FF06AFCE0
:10513000002211461D4B02200FF028F994F9183077
:10514000039394F90A300293237C0193E36800935C
:1051500000221146164B03200FF018F90022154BC0
:10516000114602200FF012F9237A012B14D1617A33
:10517000114A124B002918BF134600220093114612
:105180000F4B02200FF002F90E492046FCF74CFFAE
:105190000D4B186004B010BD00220C4B11460220CC
:1051A0000FF0F4F8F0E700BFA8D1002073900108D9
:1051B000A4900108D59001086F9001086E90010835
:1051C000E2900108CCD2002084AE0020F3900108C8
:1051D00037B5044628B390F9065025BB13480FF0A5
:1051E000C3FB134B2A46294602200FF0CFF8E37980
:1051F000012B0CBF0F4B104B0022114602200FF069
:10520000C5F894F90600FCF7C1FE94F90530019346
:1052100094F9043000930022084B114603200FF04C
:10522000B5F803B030BD064BE6E700BF78D10020EB
:105230000191010816910108339101086791010855
:10524000509101080A460149FFF788B800F00308A9
:1052500038B51B480FF088FB07F0FAF9044650B147
:105260000022184B114602200FF090F8BDE838409C
:1052700015480FF0C7BB154B154D024601460220DD
:105280000FF084F8134B1B78012B11D10220124B25
:105290002870224621460FF079F8104807F064F88C
:1052A0002878012106F0B8FD05480FF0ABFBDDE7DB
:1052B00001232B7022460A4B21460220EBE700BF58
:1052C000CCD2002090910108B4D20020AE91010808
:1052D000A4000020A5000020C291010888AE002093
:1052E000E291010800B503468DB000282CD040782B
:1052F00002280AD003282AD0164B00221146022089
:105300000DB05DF804EB0FF041B81A7F0B92DA7E16
:105310000A929A7E09925A7E08921A7E0792DA7D44
:1053200006929A7D05925A680492DA68039293F97C
:1053300014200292B3F9122001921B7C00930022E8
:10534000054B11460FF022F80DB05DF804FB034B3E
:10535000D3E700BF01920108189201088A92010860
:1053600001284FF000020CBF024B034B11460220F4
:105370000FF00CB8A9920108BB920108054B1A78EE
:10538000054B1B789A4203D1002108200FF010B979
:10539000704700BFA4000020A500002008B507F05A
:1053A00060F980B906F01EFE01280CD1BFF34F8FC3
:1053B0000549064BCA6802F4E0621343CB60BFF3B1
:1053C0004F8F00BFFDE708BD00ED00E00400FA05C7
:1053D00030B5044687B00D46002953D02A480FF057
:1053E00011FB2B78EBB1E4B16368D3B11B78019367
:1053F000237800930022254B114602200EF0C6FFB1
:105400002378022B2ED0032B0BD16378012B08D1EC
:1054100063681878012802D0022800D008B906F085
:10542000D5FE2B7C052B16D895F90A20059295F907
:1054300009200492164A52F82330039395F9083054
:10544000029323780193EB6800930022114B1146DD
:1054500003200EF09BFF2946204607B0BDE83040F0
:10546000FCF7DCBC6378012BDBD163681A7812F09F
:10547000010216BF0022084B084B114603200EF014
:1054800085FFCEE707B030BD90D10020CF92010854
:10549000ECAE0020FF920108EC920108F6920108A0
:1054A00038B504460D4607484FF40061FEF776FF15
:1054B00030B92A4621460348BDE83840FEF774BE9D
:1054C00038BD00BF00F0030810B507F05FF910F118
:1054D000080F07D1064B0022BDE8104011460220FC
:1054E0000EF054BF013001D1024BF4E710BD00BFF4
:1054F000469301085C93010837B506F087FD044622
:10550000002837D11C4D02232B70FFF78DFD20465C
:10551000FFF7A2FD194C6868FFF792FDFFF78AFDBF
:10552000637A687033B106F05DFD012802D1204630
:105530000FF01AFA124B1048D978002206F07CFDC1
:10554000024638B90F4B0146012003B0BDE8304098
:105550000EF01CBF06320DD106F03EFD50B1002208
:105560004FF47A731146B0FBF3F0074B0090012023
:105570000EF00CFF03B030BD7CAE002078D10020CF
:1055800088AE002074930108839301087047704728
:10559000F0B587B0002401250327504B0294224622
:1055A0002146CDE900570220022605940EF0EEFEBA
:1055B0000623CDE900632246494B02952146304639
:1055C0000EF0E4FE474B009522462146CDE90175D9
:1055D00030460EF0DBFE05A9204607F027F8059BB4
:1055E000C3F307220292C3F307421B0E01920093FA
:1055F00022463D4B214630460EF0C8FE05A92846FE
:1056000007F014F8059BDAB20392C3F30722029263
:10561000C3F307421B0E019200932246334B2146EF
:1056200030460EF0B3FE324B3248009422464FF41F
:10563000FA710FF03BF9304B3048009422464FF49A
:10564000FA710FF033F92E4B2E4800942A464FF48E
:10565000FA710FF02BF92046FEF7A0FD08B1FEF716
:10566000A7FF294B009400224FF4FA6127480FF05E
:105670001DF9274A002101200FF064F8254A002176
:1056800002200FF05FF8244A002104200FF05AF89E
:10569000224A002108200FF055F800F051F8204967
:1056A000204806F079FF204806F05EFEFBF780FFF9
:1056B00014480FF0A7F91D4B0121187806F0ACFB38
:1056C0001B4900941B4B09681B4800220FF0EEF8A1
:1056D00019480FF097F907B0F0BD00BFA19301087A
:1056E000C2930108E393010804940108259401087A
:1056F0008B500008A8D100208F55000890D10020C1
:105700008D55000878D100207D530008B4D20020C8
:105710006DC10008F9540008C9540008515200082E
:1057200000000301A0AE002088AE0020A4000020ED
:1057300084AE0020CD500008CCD20020FBF7D8BFAB
:10574000034B0022C3E902220122C3E90022704771
:10575000E4D2002000487047E4D2002008B502F0EF
:10576000A9F808BD08B502F0CFF808BD00207047C1
:1057700008B502F0E7F808BD08B502F0E5F808BD85
:1057800002F0E4B830B54FF4807287B0104D114884
:105790004FF488130024CDE9012301A90223CDE9A8
:1057A000034303F0ABF80C49284602F094FF21466E
:1057B0000A4A284602F088FF22462146162002F0B7
:1057C00001FD162002F030FD204607B030BD00BFBD
:1057D00004AF002000040048080000161529000846
:1057E000FFF7BEB810B588B00F4B01930F4B029373
:1057F0000F4B03930F4B05930F4B04930F48104B24
:10580000069301A901F066FB48B90E4B0E4C2360CC
:105810001B6813B10948984718B1002323604FF063
:10582000FF3008B010BD00BF695C0008195A0008BD
:10583000655A0008B95A0008855A0008F4D20020B9
:10584000E157000864AF002020D30020044B1B6800
:105850001B690BB1034818474FF0FF30704700BF7A
:1058600020D30020F4D200200648006810B4446918
:105870001CB1A446044810BC60474FF0FF3010BC78
:10588000704700BF20D30020F4D2002006480068F3
:1058900010B484691CB1A446044810BC60474FF0A2
:1058A000FF3010BC704700BF20D30020F4D200208E
:1058B000014801F083BB00BFF4D2002082B06B46E8
:1058C00083E8060093E80600014802B001F081BBBE
:1058D000F4D2002082B00348ADF80420019A02B04F
:1058E00001F0A2BBF4D20020014801F0C9BB00BF07
:1058F000F4D20020014801F0D9BB00BFF4D200204F
:10590000014801F0F2BB00BFF4D200200D488546EB
:1059100001F05BFF0C480D490D4A002302E0D4580A
:10592000C4500433C4188C42F9D30A4A0A4C0023E9
:1059300001E013600432A242FBD310F0F7FFFEF740
:1059400019FEFEE700000120000000200CB200203C
:10595000EC3202080CB20020B4F20020FEE7000096
:10596000114A08B513680BB9002008BD013B13604C
:10597000002BF9D14FF0B0424FF40061936D23F446
:10598000800393654FF0904003F064F84FF090402F
:105990004FF4805103F05EF8044803F083FA0028C6
:1059A000E2D06FF00700E0E728D3002080D300208A
:1059B0001FB54FF48054CDE90134009201230A460B
:1059C0000146074803F088FA40B1054803F0C0FCDF
:1059D000042814BF6FF003006FF0650004B010BD21
:1059E00080D300201FB54FF48054CDE901340092DC
:1059F00001230A460146074803F048FB40B1054829
:105A000003F0A6FC042814BF6FF003006FF06500DC
:105A100004B010BD80D300200F4A08B513680BB93D
:105A2000002008BD013B1360002BF9D14FF0B042BC
:105A30000A48936D23F400039365012103F00AF8EB
:105A40000648022103F006F8054803F02BFA002867
:105A5000E6D06FF00700E4E724D3002000080048F8
:105A60002CD3002008B50A464FF480530146044861
:105A700003F0EAFB002814BF6FF00200002008BD0D
:105A80002CD300201FB54FF48054CDE9013400928F
:105A900002230A460146074803F01EFA40B10548B2
:105AA00003F056FC042814BF6FF003006FF065008C
:105AB00004B010BD2CD300201FB54FF48054CDE9A5
:105AC0000134009202230A460146074803F0DEFA39
:105AD00040B1054803F03CFC04280CBF6FF0030004
