:020000040800F2
:1000000000000120C5520008294100082B410008CA
:100010002D4100082F410008314100080000000078
:100020000000000000000000000000003341000854
:100030003541000800000000374100083941000840
:1000400015530008155300083D41000815530008DA
:1000500015530008155300081553000815530008E0
:1000600049410008155300084F4100081553000886
:100070001553000815530008155300085541000892
:1000800015530008155300081553000815530008B0
:100090001553000815530008614100081553000866
:1000A0001553000815530008155300081553000890
:1000B000155300087941000815530008155300082E
:1000C0001553000815530008155300081553000870
:1000D0001553000885410008155300081553000802
:1000E00015530008155300089141000815530008E6
:1000F0001553000815530008155300081553000840
:1001000015530008155300089D41000815530008B9
:10011000155300081553000815530008155300081F
:10012000155300081553000815530008155300080F
:080130001553000815530008E7
:1001400010B5054C237833B9044B13B10448AFF311
:1001500000800123237010BD700400200000000007
:100160004882010808B5034B1BB103490348AFF3AC
:10017000008008BD000000007404002048820108CF
:1001800001F0FF01102A2BDB10F0070F08D010F848
:10019000013B013A8B422DD010F0070F42B3F6D14C
:1001A000F0B441EA012141EA014122F007047FF065
:1001B00000070023F0E80256083C85EA010586EABC
:1001C000010685FA47F5A3FA87F586FA47F6A5FAF8
:1001D00087F68EB9EED1F0BC01F0FF0102F0070204
:1001E00032B110F8013B013A83EA010313B1F8D1AF
:1001F0000020704701387047002D06BF3546033890
:10020000073815F0010F07D1013015F4807F02BFC8
:10021000013015F4C03F0130F0BC0138704700BF19
:10022000034613F8012B002AFBD1181A0138704736
:1002300081F0004102E000BF83F0004330B54FEA97
:1002400041044FEA430594EA050F08BF90EA020F04
:100250001FBF54EA000C55EA020C7FEA645C7FEA97
:10026000655C00F0E2804FEA5454D4EB5555B8BFBA
:100270006D420CDD2C4480EA020281EA030382EA2B
:10028000000083EA010180EA020281EA0303362DBD
:1002900088BF30BD11F0004F4FEA01314FF4801C90
:1002A0004CEA113102D0404261EB410113F0004FA2
:1002B0004FEA03334CEA133302D0524263EB430359
:1002C00094EA050F00F0A780A4F10104D5F1200EF7
:1002D0000DDB02FA0EFC22FA05F2801841F1000152
:1002E00003FA0EF2801843FA05F359410EE0A5F126
:1002F00020050EF1200E012A03FA0EFC28BF4CF057
:10030000020C43FA05F3C01851EBE37101F000450C
:1003100007D54FF0000EDCF1000C7EEB00006EEB19
:100320000101B1F5801F1BD3B1F5001F0CD34908A3
:100330005FEA30004FEA3C0C04F101044FEA4452FA
:1003400012F5800F80F09A80BCF1004F08BF5FEA81
:10035000500C50F1000041EB045141EA050130BD61
:100360005FEA4C0C404141EB0101013C28BFB1F573
:10037000801FE9D291F0000F04BF01460020B1FABE
:1003800081F308BF2033A3F10B03B3F120020CDA91
:100390000C3208DD02F1140CC2F10C0201FA0CF06F
:1003A00021FA02F10CE002F11402D8BFC2F1200CD4
:1003B00001FA02F120FA0CFCDCBF41EA0C0190408A
:1003C000E41AA2BF01EB0451294330BD6FEA0404D3
:1003D0001F3C1CDA0C340EDC04F11404C4F12002BE
:1003E00020FA04F001FA02F340EA030021FA04F3D0
:1003F00045EA030130BDC4F10C04C4F1200220FA27
:1004000002F001FA04F340EA0300294630BD21FA64
:1004100004F0294630BD94F0000F83F4801306BF2A
:1004200081F480110134013D4EE77FEA645C18BF1E
:100430007FEA655C29D094EA050F08BF90EA020FB5
:1004400005D054EA000C04BF1946104630BD91EAAD
:10045000030F1EBF0021002030BD5FEA545C05D1B0
:100460004000494128BF41F0004130BD14F58004EF
:100470003CBF01F5801130BD01F0004545F0FE4163
:1004800041F470014FF0000030BD7FEA645C1ABF98
:10049000194610467FEA655C1CBF0B46024650EACF
:1004A000013406BF52EA033591EA030F41F40021FB
:1004B00030BD00BF90F0000F04BF0021704730B581
:1004C0004FF4806404F132044FF000054FF0000156
:1004D00050E700BF90F0000F04BF0021704730B517
:1004E0004FF4806404F1320410F0004548BF4042EC
:1004F0004FF000013EE700BF42004FEAE2014FEA41
:1005000031014FEA02701FBF12F07F4393F07F4F1B
:1005100081F06051704732F07F4208BF704793F01E
:100520007F4F04BF41F40021704730B54FF4607431
:1005300001F0004521F000411CE700BF50EA010234
:1005400008BF704730B54FF000050AE050EA0102DD
:1005500008BF704730B511F0004502D5404261EB4D
:1005600041014FF4806404F132045FEA915C3FF48E
:10057000D8AE4FF003025FEADC0C18BF03325FEA2B
:10058000DC0C18BF033202EBDC02C2F1200300FADC
:1005900003FC20FA02F001FA03FE40EA0E0021FA01
:1005A00002F11444BDE600BF70B54FF0FF0C4CF4EF
:1005B000E06C1CEA11541DBF1CEA135594EA0C0FA1
:1005C00095EA0C0F00F0DEF82C4481EA030621EADC
:1005D0004C5123EA4C5350EA013518BF52EA033517
:1005E00041F4801143F4801338D0A0FB02CE4FF0C9
:1005F0000005E1FB02E506F00042E0FB03E54FF0F9
:100600000006E1FB03569CF0000F18BF4EF0010EF0
:10061000A4F1FF04B6F5007F64F5407404D25FEAEC
:100620004E0E6D4146EB060642EAC62141EA55519F
:100630004FEAC52040EA5E504FEACE2EB4F1FD0CE1
:1006400088BFBCF5E06F1ED8BEF1004F08BF5FEA5F
:10065000500E50F1000041EB045170BD06F0004611
:1006600046EA010140EA020081EA0301B4EB5C04BE
:10067000C2BFD4EB0C0541EA045170BD41F48011B6
:100680004FF0000E013C00F3AB8014F1360FDEBFDB
:10069000002001F0004170BDC4F10004203C35DAB7
:1006A0000C341BDC04F11404C4F1200500FA05F33A
:1006B00020FA04F001FA05F240EA020001F00042DB
:1006C00021F0004110EBD37021FA04F642EB060151
:1006D0005EEA430E08BF20EAD37070BDC4F10C047B
:1006E000C4F1200500FA04F320FA05F001FA04F23F
:1006F00040EA020001F0004110EBD37041F100012B
:100700005EEA430E08BF20EAD37070BDC4F1200535
:1007100000FA05F24EEA020E20FA04F301FA05F29D
:1007200043EA020321FA04F001F0004121FA04F245
:1007300020EA020000EBD3705EEA430E08BF20EA15
:10074000D37070BD94F0000F0FD101F0004640004F
:1007500041EB010111F4801F08BF013CF7D041EAD1
:10076000060195F0000F18BF704703F000465200D5
:1007700043EB030313F4801F08BF013DF7D043EAA6
:100780000603704794EA0C0F0CEA135518BF95EA5C
:100790000C0F0CD050EA410618BF52EA4306D1D1E3
:1007A00081EA030101F000414FF0000070BD50EA02
:1007B000410606BF1046194652EA430619D094EA8C
:1007C0000C0F02D150EA013613D195EA0C0F05D176
:1007D00052EA03361CBF104619460AD181EA0301CA
:1007E00001F0004141F0FE4141F470014FF0000082
:1007F00070BD41F0FE4141F4780170BD70B54FF01D
:10080000FF0C4CF4E06C1CEA11541DBF1CEA13559C
:1008100094EA0C0F95EA0C0F00F0A7F8A4EB05047E
:1008200081EA030E52EA03354FEA013100F0888075
:100830004FEA03334FF0805545EA131343EA12633E
:100840004FEA022245EA111545EA10654FEA0026F3
:100850000EF000419D4208BF964244F1FD0404F5AC
:10086000407402D25B084FEA3202B61A65EB030508
:100870005B084FEA32024FF480104FF4002CB6EBC5
:10088000020E75EB030E22BFB61A754640EA0C0045
:100890005B084FEA3202B6EB020E75EB030E22BF85
:1008A000B61A754640EA5C005B084FEA3202B6EBC6
:1008B000020E75EB030E22BFB61A754640EA9C0085
:1008C0005B084FEA3202B6EB020E75EB030E22BF55
:1008D000B61A754640EADC0055EA060E18D04FEA13
:1008E000051545EA16754FEA06164FEAC30343EAB3
:1008F00052734FEAC2025FEA1C1CC0D111F4801F80
:100900000BD141EA00014FF000004FF0004CB6E778
:1009100011F4801F04BF01430020B4F1FD0C88BF17
:10092000BCF5E06F3FF6AFAEB5EB030C04BFB6EB22
:10093000020C5FEA500C50F1000041EB045170BD15
:100940000EF0004E4EEA113114EB5C04C2BFD4EB42
:100950000C0541EA045170BD41F480114FF0000EC6
:10096000013C90E645EA060E8DE60CEA135594EA42
:100970000C0F08BF95EA0C0F3FF43BAF94EA0C0F45
:100980000AD150EA01347FF434AF95EA0C0F7FF4BA
:1009900025AF104619462CE795EA0C0F06D152EA0E
:1009A00003353FF4FDAE1046194622E750EA4106F2
:1009B00018BF52EA43067FF4C5AE50EA41047FF403
:1009C0000DAF52EA43057FF4EBAE12E74FF0FF3C68
:1009D00006E000BF4FF0010C02E000BF4FF0010C39
:1009E0004DF804CD4FEA410C7FEA6C5C4FEA430CB2
:1009F00018BF7FEA6C5C1BD001B050EA410C0CBF01
:100A000052EA430C91EA030F02BF90EA020F002062
:100A1000704710F1000F91EA030F58BF994208BFC9
:100A200090422CBFD8176FEAE37040F00100704786
:100A30004FEA410C7FEA6C5C02D150EA013C07D1DD
:100A40004FEA430C7FEA6C5CD6D152EA033CD3D028
:100A50005DF8040B704700BF8446104662468C4622
:100A60001946634600E000BF01B5FFF7B7FF002855
:100A700048BF10F1000F01BD4DF808EDFFF7F4FF7E
:100A80000CBF012000205DF808FB00BF4DF808ED09
:100A9000FFF7EAFF34BF012000205DF808FB00BF2C
:100AA0004DF808EDFFF7E0FF94BF012000205DF84E
:100AB00008FB00BF4DF808EDFFF7CEFF94BF012003
:100AC00000205DF808FB00BF4DF808EDFFF7C4FFFC
:100AD00034BF012000205DF808FB00BF4FEA410C45
:100AE0007FEA6C5C02D150EA013C0AD14FEA430C28
:100AF0007FEA6C5C02D152EA033C02D14FF0000065
:100B000070474FF0010070474FEA410212F50012A2
:100B100015D211D56FF47873B3EB625212D94FEA44
:100B2000C12343F0004343EA505311F0004F23FA2E
:100B300002F018BF404270474FF00000704750EA83
:100B4000013005D111F0004008BF6FF00040704740
:100B50004FF00000704700BF4FEA4102B2F1E0439E
:100B600024BFB3F5001CDCF1FE5C0DD901F0004C94
:100B70004FEAC0024CEA5070B2F1004F40EB8300E4
:100B800008BF20F00100704711F0804F21D113F110
:100B90003872BCBF01F00040704741F480114FEA49
:100BA0005252C2F11802C2F1200C10FA0CF320FAD2
:100BB00002F018BF40F001004FEAC1234FEAD323EF
:100BC00003FA0CFC40EA0C0023FA02F34FEA430359
:100BD000CCE77FEA625307D150EA01331EBF4FF0E2
:100BE000FE4040F44000704701F0004040F0FE40FD
:100BF00040F40000704700BF80F0004002E000BFFA
:100C000081F0004142001FBF5FEA410392EA030FF7
:100C10007FEA226C7FEA236C6AD04FEA1262D2EB41
:100C20001363C1BFD218414048404140B8BF5B4246
:100C3000192B88BF704710F0004F40F4000020F0DF
:100C40007F4018BF404211F0004F41F4000121F0F5
:100C50007F4118BF494292EA030F3FD0A2F101023F
:100C600041FA03FC10EB0C00C3F1200301FA03F17D
:100C700000F0004302D5494260EB4000B0F5000FA0
:100C800013D3B0F1807F06D340084FEA310102F15F
:100C90000102FE2A51D2B1F1004F40EBC25008BF11
:100CA00020F0010040EA03007047490040EB0000DB
:100CB000013A28BFB0F5000FEDD2B0FA80FCACF1DC
:100CC000080CB2EB0C0200FA0CF0AABF00EBC25009
:100CD00052421843BCBFD0401843704792F0000FF7
:100CE00081F4000106BF80F400000132013BB5E74A
:100CF0004FEA41037FEA226C18BF7FEA236C21D0C0
:100D000092EA030F04D092F0000F08BF0846704724
:100D100090EA010F1CBF0020704712F07F4F04D1F2
:100D2000400028BF40F00040704712F100723CBF05
:100D300000F50000704700F0004343F0FE4040F42F
:100D4000000070477FEA226216BF08467FEA2363ED
:100D50000146420206BF5FEA412390EA010F40F4D8
:100D6000800070474FF0000304E000BF10F0004324
:100D700048BF40425FEA000C08BF704743F096430B
:100D800001464FF000001CE050EA010208BF704726
:100D90004FF000030AE000BF50EA010208BF7047AD
:100DA00011F0004302D5404261EB41015FEA010CC2
:100DB00002BF84460146002043F0B64308BFA3F1BA
:100DC0008053A3F50003BCFA8CF2083AA3EBC2539C
:100DD00010DB01FA02FC634400FA02FCC2F12002BB
:100DE000BCF1004F20FA02F243EB020008BF20F0F2
:100DF0000100704702F1200201FA02FCC2F1200258
:100E000050EA4C0021FA02F243EB020008BF20EA4C
:100E1000DC7070474FF0FF0C1CEAD0521EBF1CEA7A
:100E2000D15392EA0C0F93EA0C0F6FD01A4480EA68
:100E3000010C400218BF5FEA41211ED04FF0006351
:100E400043EA501043EA5111A0FB01310CF000407D
:100E5000B1F5000F3EBF490041EAD3715B0040EAA3
:100E6000010062F17F02FD2A1DD8B3F1004F40EB73
:100E7000C25008BF20F00100704790F0000F0CF046
:100E8000004C08BF49024CEA502040EA51207F3A0A
:100E9000C2BFD2F1FF0340EAC250704740F40000E5
:100EA0004FF00003013A5DDC12F1190FDCBF00F0D6
:100EB00000407047C2F10002410021FA02F1C2F184
:100EC000200200FA02FC5FEA310040F1000053EA20
:100ED0004C0308BF20EADC70704792F0000F00F06E
:100EE000004C02BF400010F4000F013AF9D040EA74
:100EF0000C0093F0000F01F0004C02BF490011F408
:100F0000000F013BF9D041EA0C018FE70CEAD15305
:100F100092EA0C0F18BF93EA0C0F0AD030F0004C85
:100F200018BF31F0004CD8D180EA010000F0004039
:100F3000704790F0000F17BF90F0004F084691F0F7
:100F4000000F91F0004F14D092EA0C0F01D1420231
:100F50000FD193EA0C0F03D14B0218BF084608D1FA
:100F600080EA010000F0004040F0FE4040F4000044
:100F7000704740F0FE4040F4400070474FF0FF0CD7
:100F80001CEAD0521EBF1CEAD15392EA0C0F93EA1E
:100F90000C0F69D0A2EB030280EA010C49024FEA70
:100FA000402037D04FF0805343EA111143EA101329
:100FB0000CF000408B4238BF5B0042F17D024FF4E1
:100FC000000C8B4224BF5B1A40EA0C00B3EB510FBC
:100FD00024BFA3EB510340EA5C00B3EB910F24BFA5
:100FE000A3EB910340EA9C00B3EBD10F24BFA3EB2A
:100FF000D10340EADC001B0118BF5FEA1C1CE0D1F2
:10100000FD2A3FF650AF8B4240EBC25008BF20F0A4
:10101000010070470CF0004C4CEA50207F32C2BFF8
:10102000D2F1FF0340EAC250704740F400004FF095
:101030000003013A37E792F0000F00F0004C02BFC6
:10104000400010F4000F013AF9D040EA0C0093F090
:10105000000F01F0004C02BF490011F4000F013BEA
:10106000F9D041EA0C0195E70CEAD15392EA0C0F52
:1010700008D142027FF47DAF93EA0C0F7FF470AF8A
:10108000084676E793EA0C0F04D14B023FF44CAFCD
:1010900008466EE730F0004C18BF31F0004CCAD162
:1010A00030F000427FF45CAF31F000437FF43CAF9E
:1010B0005FE700BF4FF0FF3C06E000BF4FF0010CC0
:1010C00002E000BF4FF0010C4DF804CD4FEA4002A2
:1010D0004FEA41037FEA226C18BF7FEA236C11D0EC
:1010E00001B052EA530C18BF90EA010F58BFB2EB9F
:1010F000030088BFC81738BF6FEAE17018BF40F01F
:10110000010070477FEA226C02D15FEA402C05D1D2
:101110007FEA236CE4D15FEA412CE1D05DF8040B57
:10112000704700BF844608466146FFE70FB5FFF7EA
:10113000C9FF002848BF10F1000F0FBD4DF808EDA2
:10114000FFF7F4FF0CBF012000205DF808FB00BF93
:101150004DF808EDFFF7EAFF34BF012000205DF8ED
:1011600008FB00BF4DF808EDFFF7E0FF94BF01203A
:1011700000205DF808FB00BF4DF808EDFFF7D2FF37
:1011800094BF012000205DF808FB00BF4DF808ED7A
:10119000FFF7C8FF34BF012000205DF808FB00BF47
:1011A0004FEA40024FEA41037FEA226C02D15FEA34
:1011B000402C08D17FEA236C02D15FEA412C02D196
:1011C0004FF0000070474FF0010070474FEA4002B7
:1011D000B2F1FE4F0FD34FF09E03B3EB12620DD965
:1011E0004FEA002343F0004310F0004F23FA02F0CF
:1011F00018BF404270474FF00000704712F1610F76
:1012000001D1420205D110F0004008BF6FF000404C
:1012100070474FF00000704742000ED2B2F1FE4F0F
:101220000BD34FF09E03B3EB126209D44FEA0023B5
:1012300043F0004323FA02F070474FF0000070477C
:1012400012F1610F01D1420202D14FF0FF3070471D
:101250004FF00000704700BF53B94AB9002908BFDA
:1012600000281CBF4FF0FF314FF0FF3000F06AB98B
:10127000ADF1080C6DE904CE00F006F8DDF804E0ED
:10128000DDE9022304B070472DE9F047089D0C46C4
:10129000002B4ED194468C458646B2FA82F262D932
:1012A0004AB1C2F12003914020FA03F30CFA02FC88
:1012B000194300FA02FE4FEA1C471FFA8CF6B1FBF5
:1012C000F7F44FEA1E4307FB141143EA014304FB02
:1012D00006F199420AD91CEB030304F1FF3080F0B8
:1012E0001281994240F20F81023C6344591A1FFA5D
:1012F0008EF3B1FBF7F007FB101143EA014300FB4B
:1013000006F69E420AD91CEB030300F1FF3180F080
:10131000FC809E4240F2F980634402389B1B40EA05
:10132000044000211DB1D3400022C5E90032BDE8D0
:10133000F0878B4205D90DB1C5E9000100210846AF
:10134000F5E7B3FA83F1002946D1A34202D39042D4
:10135000C0F0F080861A64EB03030120002DE6D074
:10136000C5E90063E3E7002A40F09080A1EB0C049C
:101370004FEA1C481FFA8CF70121B4FBF8F64FEA3C
:101380001E4308FB164443EA044307FB06F0984259
:1013900008D91CEB030306F1FF3402D2984200F295
:1013A000CD8026461C1A1FFA8EF3B4FBF8F008FB1A
:1013B000104443EA044300FB07F79F4208D91CEBA3
:1013C000030300F1FF3402D29F4200F2B0802046B6
:1013D000DB1B40EA0640A5E7C1F120068B4022FA5C
:1013E00006F71F4320FA06FC04FA01F343EA0C0354
:1013F000F44000FA01F8380C4FEA1349B4FBF0FE50
:101400001FFA87FC00FB1E4449EA04440EFB0CF95A
:10141000A14502FA01F20AD93C190EF1FF3A80F017
:101420008480A14540F28180AEF1020E3C44A4EBE1
:1014300009041FFA83F9B4FBF0F300FB134449EAF3
:10144000044403FB0CFCA44507D93C1903F1FF300D
:1014500067D2A44565D9023B3C4443EA0E40A0FB59
:101460000293A4EB0C049C42CE469C4651D34ED032
:1014700055B1B8EB0E0364EB0C0404FA06F6CB404E
:101480001E43CC40C5E90064002150E7C2F12003AF
:1014900020FA03F10CFA02FC24FA03F394400C4303
:1014A0004FEA1C4800FA02FE1FFA8CF7B3FBF8F073
:1014B00008FB1031230C43EA014300FB07F199427A
:1014C00008D91CEB030300F1FF362CD299422AD92C
:1014D000023863445B1AA4B2B3FBF8F108FB113382
:1014E00044EA034401FB07F3A34208D91CEB0404BC
:1014F00001F1FF3613D2A34211D902396444E41A30
:1015000041EA004139E70446F0E6084606E7C845E7
:10151000AED2B9EB020E63EB070C0138A8E73146F7
:10152000EDE7034699E73046D4E7D6467FE76344C4
:1015300002384DE70646234608460FE7023E63445D
:1015400030E700BF704700BF0121402012F0EEBC21
:10155000F8B5154E154C338801339BB2B3F57A7F3D
:10156000338004D9E388A3800123E38033800025FE
:101570002F462278EBB29A4200D8F8BD637002334E
:1015800054F823309A8801329A803288B2F57A7FF3
:1015900024BFDA885A801A6928BFDF8012B11B7A0B
:1015A00003B190470135E4E78C040020900400204B
:1015B00037B5002422461C4B009441F288311B4869
:1015C00012F032FE22461A4B009440F6B831194808
:1015D00012F02AFE22462146174B022012F094FBFD
:1015E00000F0D0FF01F0A6FB1449154A154B126E0E
:1015F00001254D63284691F8301000F05DFB01F0A5
:1016000047FC114A2146402012F05AFD294640204D
:1016100012F08CFC0D4B22462146022003B0BDE89F
:10162000304012F071BB00BF71230008D8040020C5
:10163000B9290008C0040020D18201081C0700203D
:10164000EC070020E92B000849150008F282010888
:101650000B4B0C4A196812780A441A601B68033352
:101660000CD9BFF34F8F0849084BCA6802F4E062F7
:101670001343CB60BFF34F8F00BFFDE7FFF768BF99
:101680008CB800200C02002000ED00E00400FA05F8
:101690000268034B9A4201D102F010B8704700BFB4
:1016A00000480140042802D0102802D0704702F000
:1016B000C1B801F06FB900002DE9F043012891B0E5
:1016C00005460E4640F0948000230A93D5238DF8FA
:1016D0002C304A4B08934A4B4A4C09934A4B0D9382
:1016E0004A4B0C9308A94A4B0E93204604F03AFC4F
:1016F00028B14FF0FF39484611B0BDE8F0830DF135
:101700000301204604F007FA0028F2D19DF80330C7
:101710006B2BEED101A9204603F0EAFF9DF80630BD
:101720009DF804109DF80520DFF8E8803A4FC8F8CE
:1017300004409B0043EA4103384913434B60F007E0
:10174000374B7B6009D5012A07D1364A36491B68D9
:10175000D160204698470028CBD1B10726D4720724
:10176000C7D47B68D8F80400DB6808A9984781468D
:10177000002840D19DF82040631E5C425C419DF8EA
:101780002130012B9DF822304FEA440408BF44F079
:101790000104012B08BF44F00404032735EA0603C3
:1017A00013D0013F4FEA4505F8D1A4E79DF8043076
:1017B000012BD4D11B4B1D4A1A617B68D8F8040059
:1017C0001B6898470028CAD093E735EA0403E8D19C
:1017D000174B144A53F82530D8F80400033352F855
:1017E00023301B6898470028DBD06FF0040982E79C
:1017F0006FF001097FE76FF006097CE701550008EB
:1018000019530008F00400209D5300086953000894
:10181000A5540008500500203005002028050020B0
:10182000B80100203805002070010020940100203C
:101830001483010801280B4610B5114619D80E4A29
:1018400052F8202003EA0204934312D10B4A52F8C3
:10185000242000EB40031344094A52F82330094A7C
:101860001B6A52F820009847002818BF6FF0040048
:1018700010BD6FF00100FBE728050020148301086C
:10188000380500205005002001280B4610B51146F0
:1018900019D80E4A52F8202003EA0204934312D1C9
:1018A0000B4A52F8242000EB40031344094A52F833
:1018B0002330094A1B6952F820009847002818BFB6
:1018C0006FF0040010BD6FF00100FBE72805002059
:1018D00014830108380500205005002001280B461C
:1018E00010B5114619D80E4A52F8202003EA020416
:1018F000934312D10B4A52F8242000EB40031344C7
:10190000094A52F82330094A9B6952F82000984747
:10191000002818BF6FF0040010BD6FF00100FBE756
:1019200028050020148301083805002050050020F8
:10193000012808B508D1064B586804F0F8FA0028C9
:1019400018BF6FF0040008BD6FF00100FBE700BF97
:1019500050050020012808B508D1064B586804F04E
:10196000F0FA002818BF6FF0040008BD6FF0010006
:10197000FBE700BF500500202DE9F0430F4691B072
:10198000002878D17F238DF82C303E4B08933E4BB6
:101990003E4C09933E4B0D933E4B0A900C9308A985
:1019A0003D4B0E93204605F0A5FA28B14FF0FF34C9
:1019B000204611B0BDE8F0830DF10701204605F087
:1019C0001BFA0028F2D19DF80730A02BEED102A916
:1019D000204605F065F9314B9DF80820DFF8C080FE
:1019E000304D1A60F907304BC8F800402B6009D51C
:1019F000012A07D12D4A2E491B68116020469847BD
:101A00000028D3D12B68D8F80000DB6808A99847D4
:101A1000044698BB9DF820506B1E5D425D419DF8C9
:101A20002130012B9DF8223008BF45F00205012B23
:101A300008BF45F004054FF00209012636EA070306
:101A400007D0B9F1010F4FEA4606B1D04FF00109B6
:101A5000F4E736EA0503F4D1164BD8F8000053F842
:101A60002620124B53F822301B6898470028E8D0F4
:101A70006FF004049CE76FF0010499E76FF006042F
:101A800096E700BF015500081953000858050020CB
:101A90009D53000869530008A554000890050020D4
:101AA000B005002098050020F8010020A0050020C6
:101AB000E401002028830108012808B518D80E4B3E
:101AC00053F8203001EA0302994311D10B4B53F82C
:101AD00022300B4A03EB400352F82330094A1B68BB
:101AE00052F820009847002818BF6FF0040008BD86
:101AF0006FF00100FBE700BF90050020288301087C
:101B0000A0050020B005002037B501F09BFFB0F51F
:101B10002F6F1BD8124A137843F008031370002468
:101B2000104DAB69A34218D00022009011460E4B15
:101B3000022012F0E9F82846042240F8184F4FF42A
:101B40007F7103B0BDE8304000F03EBC40F6A844D1
:101B5000A04294BF01240224E2E703B030BD00BFDD
:101B6000B80500201C0700203C83010810B50B4A73
:101B70000B4C00231370E36304F13C0002230422A6
:101B80004FF48461A36100F01FFC04F118000422EB
:101B9000BDE810404FF47F7100F016BCB80500207E
:101BA0001C07002073B5FFF7AFFF254D25482B78A4
:101BB000C26B9A4241D040F83C3F04224FF484610A
:101BC00000F002FC2B78204E204C13F0020F0CBFCB
:101BD000234633460022009311461D4B022012F08B
:101BE00093F82B7813F0040F0CBF234633460022E2
:101BF00000931146174B022012F086F82B7813F051
:101C0000080F0CBF23463346002200931146124BA7
:101C1000022012F079F895F90030002234EA23040A
:101C200028BF344600940D4B1146022012F06CF888
:101C300002B0BDE8704000F001B902B070BD00BF55
:101C4000B80500201C0700205C830108618301089F
:101C5000678301087C8301088C830108A083010845
:101C6000BFF34F8F0549064BCA6802F4E062134385
:101C7000CB60BFF34F8F00BFFDE700BF00ED00E07A
:101C80000400FA0538B504460D4613F019FD291B6A
:101C9000013190FBF1F303FB1100044413F010FD3C
:101CA000054602F075FB023005EB5000A4B213F0BC
:101CB000D9FC204638BD00002DE9F3418846154681
:101CC0001E46074605F08AFA254CC4F8E00005F0E8
:101CD0008BFAC4F8E40005F08DFAD4E938325340A9
:101CE000C4F8E800584013F0BDFC002F1D4AC4F8AA
:101CF000F4600CBF0123022313701B4A84F8DA70CE
:101D000013701A4A1A4BA4F8D88008BF134605F579
:101D10007A750022C4F8EC50114600930220154B4E
:101D200011F0F2FF144B1B7873B194F8DA30ABB9B1
:101D3000D4F8EC30D4F8F020136000220093114660
:101D40000E4B022011F0E0FF4FF47A716420FFF790
:101D500099FF02B0BDE8F04102F022BB0023E9E7A1
:101D6000BC050020A4000020A5000020B9830108C4
:101D7000BD830108C2830108B9050020EE83010874
:101D8000074B1B78012B09D1064BD3F8F02000201C
:101D90001060C3F8EC00D3F8F4301847704700BF68
:101DA000A4000020BC05002010B50A4C2378012BAC
:101DB000094B04BF44F620621A601B683BB9A0605F
:101DC0004EF660213220FFF75DFFA3680344A36055
:101DD00010BD00BFBC050020A000002007B50B4BC4
:101DE0009B684EF66021B3FBF1F201FB12334FF416
:101DF0007A71B3FBF1F3CDE900230022044B1146C5
:101E0000022011F081FF03B05DF804FBBC05002047
:101E100019840108074B10B5D3F8DC403CB9064BD8
:101E200022462146022011F06FFF204610BD0120FE
:101E3000FCE700BFBC0500205484010810B5FFF783
:101E4000E9FFB0B10B4C49F64043A3600023A371F6
:101E5000FFF7C4FFD4F8DC0012F044FAA168D4F80C
:101E6000DC0012F0C7FAD4F8DC00BDE8104012F034
:101E700087BA10BDBC050020034B91F909205A8098
:101E8000022283F8F9207047BC05002070B5154C7C
:101E900094F8D6500E2D24D86E1C84F8D660585570
:101EA00094F8D600451C84F8D650195494F8D610EE
:101EB000481C84F8D600100E585494F8D610481CCC
:101EC00084F8D6001014585494F8D610481C84F89E
:101ED000D6001012585494F8D610481C84F8D60036
:101EE0005A5470BDBC05002070B50B4C94F8D65008
:101EF000112D0FD86E1C84F8D660585594F8D60072
:101F0000451C84F8D650195494F8D610481C84F80F
:101F1000D6005A5470BD00BFBC05002010B5012387
:101F20001078984200D210BDC818D45C00F8014C5B
:101F30000133DBB2F4E7000037B5304D304CB5F972
:101F40000230626A9A4207D02046042240F8243FB9
:101F50004FF4816100F038FA95F8F930D4F8C420D4
:101F60009A4207D02748C4F8C43004224FF4956140
:101F700000F02AFA95F8FA30D4F8C8209A4207D02F
:101F80002148C4F8C830042240F2AC4100F01CFAE9
:101F9000D5F8F03000221B68009311461B4B02203D
:101FA00011F0B2FEAB79009300221146184B0220CB
:101FB00011F0AAFEB4F92430009300221146154B0B
:101FC000022011F0A1FED4F8C420134B142505FB08
:101FD0000233002200931146104B022011F094FEB0
:101FE000D4F8C8200E4B05FB0233002200931146A3
:101FF0000C4B022011F088FE03B030BDBC05002060
:102000001C070020E0070020E4070020728401087C
:102010009C840108BB84010850000020D78401087B
:1020200000000020F884010837B50546FFF7F2FEEE
:1020300000283FD0204CB5B9022384F8F93042F291
:102040001073A360A571D4F8DC0012F04BF9A168FD
:10205000D4F8DC0012F0CEF9D4F8DC0003B0BDE80F
:10206000304012F08DB963790133DBB20022637125
:10207000114600930220114B11F046FE63790E2B9E
:102080004FF0000510D9B4F8D8300D4865715843A9
:10209000FFF78AFE012384F8F93084F8FA30FFF75D
:1020A0004BFFFFF79BFECEE749F64040FFF77CFE73
:1020B0002B46F0E703B030BDBC05002019850108B0
:1020C00080EE360073B55B4C5B4AD4F8F030C4F850
:1020D000DC1019689142054608D900201860574B5A
:1020E0001B78012B5AD1D4F8F430984794F8F82093
:1020F0002B78A12A40F08680002B00F097800326E1
:1021000084F8F9606D7A002D4DD123790133DBB26B
:1021100023712A4600932946494B022011F0F4FD11
:1021200023796580092B84F8FA6039D9434B2571EE
:102130001B780226012B84F8F96023D1D4E93B23D4
:1021400029461A6030463F4B2A4611F0DDFDB4F8AF
:10215000D8303D48A5715843FFF726FEFFF7ECFE47
:10216000FFF73CFED4F8DC0012F0BCF8A168D4F80C
:10217000DC0012F03FF9D4F8DC0012F001F9A0689D
:1021800002B070BDFFF7D8FE304B2A4629463046D4
:1021900011F0BAFD4FF47A7002F002F9FFF760FD1A
:1021A00049F64040D8E70025294B25712A462946A3
:1021B000022011F0A9FDA379217B0133DBB20222B9
:1021C000994284F8FA20A3710FD942F21073A360E8
:1021D0001A4B1B78012BC1D1D4F8F0301868C4F821
:1021E000EC00D4F8F4309847B8E7012384F8FA30CB
:1021F0001548B4F8D83084F8F9205843A571FFF792
:10220000D3FDE5E793B10D4B1B78012B04BFD4F848
:10221000EC30EB600022A12384F8F83011460D4B1E
:10222000022011F071FDFFF7D9FDA8E7002384F823
:10223000F830A4E7BC050020EED8FFFFA400002082
:102240003B8501085C85010880EE36008485010825
:10225000AE850108D48501082DE9F8432B4C2C4D9F
:10226000012384F8D6306B6B84F8DA302B6BA4F83A
:10227000D830A37907460220884620731BB1012B72
:1022800032D00023A371A379EA6914264FF00E0916
:1022900016FB0393234465210020FFF7F7FDA37984
:1022A0002A6A16FB0393234465210120FFF7EEFD04
:1022B00094F8F830A279A12B14BF0023032384F8EB
:1022C000F93094F8D630142101FB0242013BDBB215
:1022D000937388F80030A07901FB00420E32394632
:1022E000BDE8F843FFF71ABED5F8C02004F1220379
:1022F0006521FFF7CBFDA379142202FB03430E33C4
:10230000EA6B66210320FFF7EFFDD1E7BC05002053
:102310001C07002038B504460025A54200D138BD71
:1023200002F036F80135F8E738B50E480E4C11F0DA
:10233000D9FF0C4812F024F825788DB90B480122FA
:10234000202106F0B9F809482A46802106F0B4F8A1
:1023500001232370BDE838404FF47A60FFF7DABFFD
:1023600038BD00BFD8040020B80600200004004893
:1023700010B5094C237873B1084811F0B3FF084831
:102380000022202106F098F805480022802106F05E
:1023900093F80023237010BDB8060020D804002055
:1023A0000004004870B504460D461646FFF7BCFF12
:1023B000044833462A4621460068BDE8704002F0D2
:1023C0002FBF00BFC006002070B504460D4616465C
:1023D000FFF7AAFF044833462A4621460068BDE8B5
:1023E000704002F02FBF00BFC006002070B50C4641
:1023F0000D4D0646FFF798FF0C4B286893E8060042
:1024000002F038FF0A4B28685C7000221A703146CF
:10241000220202F03BFF074B286893E80600BDE864
:10242000704002F027BF00BFC00600205887010897
:10243000BE0600205087010873B5FFF775FF354CC5
:10244000354B2068354D93E8060002F013FF8121DB
:10245000206802F0D7FE0021206802F02DFF012144
:10246000206802F001FFFF220221206802F01EFF17
:10247000FF220121206802F019FFFF2200212068BD
:1024800002F014FF03236B70254B20681A7800219B
:1024900002F00CFF2B786A78206843EA02220021C0
:1024A00002F0F4FE1F4B20681A78012631466E7048
:1024B00002F0FCFE2B786A78206843EA022231465B
:1024C00002F0E4FE0026FF22022120682E706E70CA
:1024D00002F0ECFE2B786A78206843EA022202219F
:1024E00002F0D4FE8DF80760B1B201220DF10700B1
:1024F0000136FFF769FF402EF6D10B48302200214C
:10250000FFF762FF094B206893E8060002F0B2FE75
:1025100002B070BDC006002058870108BE0600202A
:10252000DB000020DA000020A7000020508701080F
:1025300070B50F4D0F4E104CFFF7F6FE2A460021E6
:10254000306802F0ADFE22463068012102F0A8FE9C
:102550000A4B1A782B789A4204D1094B1A782378BF
:102560009A4203D0BDE87040FFF766BF70BD00BF60
:10257000BD060020C0060020BC060020DB000020B5
:10258000DA00002010B5FFF7CFFE054C206802F0FE
:1025900005FE0028FAD1BDE8104002F0CFBD00BF13
:1025A000C006002010B50E4CD4F8B42082B1002231
:1025B00011460C4B022011F0A7FB20460023BDE87A
:1025C000104040F8B43F04224FF49361FFF7FCBE83
:1025D000BDE81040044B1146022011F095BB00BF2E
:1025E0001C070020F2850108188601082DE9F0413A
:1025F000214A22480823002110F8014F12F8015FF8
:10260000013BA5421CBF1470012113F0FF03F3D15D
:102610001B4B1C4A102412F8017F13F801CF167CC3
:1026200092F8205092F83000BC450BD193F810C0BE
:10263000B44507D193F820C0AC4503D193F830C01E
:10264000844506D01F701E7483F8205083F8300034
:102650000121013C14F0FF04DDD151B1204600F00E
:10266000CFFA22462146084BBDE8F041022011F086
:102670004BBBBDE8F08100BFF707002087070020B3
:102680000B0800208F0700203A86010870B5002251
:102690000D4C0E4B1146022011F036FB268896B9E0
:1026A00002226421012520462580FFF78DFE4FF48C
:1026B000FA6001F075FE0222642120462680FFF7B1
:1026C00083FE034B1D7070BDBA06002060860108B2
:1026D000A600002070B5244C207801280BD10021E1
:1026E000FFF784FE0022214B1146022011F00CFB63
:1026F0000223237070BD0228FCD100F0FFFAFFF71F
:1027000051FFFFF773FF1A4A1A4B516D1878884230
:1027100007D15D78906D854203D19878D56D85425B
:10272000E8D01970916DD26D59709A70124EFFF702
:102730001DFA1248002502224FF4FA510580358017
:10274000FFF742FE022264213046FFF73DFE0121E1
:102750000846FFF74BFE0A4B2A462946022011F095
:10276000D3FA0123C5E700BFA60000207F86010839
:102770001C070020C4060020BA060020D800002054
:10278000A3860108002210B51146124B124C0220FC
:1027900011F0BAFA11480023022264210380238039
:1027A000FFF712FE022220464FF4FA51FFF70CFE0B
:1027B0000B4C01210846FFF719FEFFF73DFE00F024
:1027C00037FA204611F08EFD2046BDE8104011F08A
:1027D000D7BD00BFC5860108D8000020BA0600207A
:1027E000C004002008B500221146084B022011F059
:1027F0008BFA0748002302224FF4FA510380FFF7B7
:10280000E3FDBDE80840FFF797BB00BFEE86010877
:10281000D800002008B500221146084B022011F014
:1028200073FA0748002302224FF4FA510380FFF79E
:10283000CBFDBDE80840FFF701BB00BF0F870108D3
:10284000D800002010B50B48002402224FF4FA51A2
:102850000480FFF7B9FD22462146074C074B0220B2
:1028600011F052FA204611F03DFD2046BDE810401F
:1028700011F086BDD8000020C00400203087010878
:1028800013B53D4C02224FF4FA512046FFF78AFD62
:102890003A4A23889268934204D102B0BDE81040BE
:1028A000FFF7F4BE43F6D972934229D843F6D472A7
:1028B00093421CD840F262629342EED041F65D3200
:1028C0009342EAD02E480023022264210380238011
:1028D000FFF77AFD284802224FF4FA51FFF774FD02
:1028E0000121084602B0BDE81040FFF77FBDA3F507
:1028F0007F53163B032B19D8DFE803F022272C3136
:102900004FF6FE7293420CD04FF6FF72934212D0F4
:102910004FF6FD729342D5D102B0BDE81040FFF7EB
:10292000D9BE02B0BDE81040FFF75CBF02B0BDE801
:102930001040FFF76FBF02B0BDE81040FFF722BFA5
:1029400002B0BDE81040FFF77DBF02B0BDE8104007
:10295000FFF70CB902B0BDE81040FFF711BA40F222
:10296000626302224FF496710DF10600ADF8063055
:10297000FFF72AFD02B010BDD8000020EC070020B0
:10298000BA06002008B5FFF7CFFCBDE80840FFF706
:1029900077BF0000C30604D5024B1B780BB9FFF7C5
:1029A000C3BC7047B806002002486822C821FFF760
:1029B0000BBD00BFEC070020002208B511460A4BF2
:1029C000022011F0A1F94FF4FA7001F0E9FCBFF315
:1029D0004F8F0649064BCA6802F4E0621343CB608E
:1029E000BFF34F8F00BFFDE76087010800ED00E0F7
:1029F0000400FA0570B5224A88B010685168214A6F
:102A00006B4603C31068516803C31F4B04AA03F14C
:102A10001006144618685968154603C50833B342B2
:102A20002A46F7D168460FF07FF8184901200FF0C9
:102A3000DDF8164902200FF0D9F802A80FF0B8F817
:102A4000214600200FF014F8214601200FF010F865
:102A5000214609200FF00CF8214608200FF008F855
:102A6000002211460A4B022011F04EF90FF03EF9F8
:102A70000022084B1146022011F046F908B070BD43
:102A8000DC870108E5870108EE870108887766552D
:102A90007D870108AE87010810B5144C20460FF061
:102AA00087F804F1240100200EF0E2FF04F1140184
:102AB00001200EF0DDFF04F1340109200EF0D8FFF3
:102AC00004F1440108200EF0D3FF00221146084B08
:102AD000022011F019F90FF009F90022BDE81040A9
:102AE000044B1146022011F00FB900BFF807002077
:102AF000FF8701082D8801082DE9F041334886B091
:102B00000FF020F8324900200FF07AF8314A1068AF
:102B100051686B4603C3304B02AA03F110076E469F
:102B2000144618685968154603C50833BB422A463F
:102B3000F7D12A4D96E8030005F10C0383E8030062
:102B400094E80F0005F1200E05F1300C05F1400767
:102B500005F150068EE80F008CE80F0087E80F00A3
:102B600086E80F001E4BEA699A66D5E9050103F174
:102B7000600495F8662084E80300A84600216C33C1
:102B80000AB9287B58540131082905F10105F7D10C
:102B9000AAB99EE80F00134C84E80F009CE80F00D0
:102BA00004F1100585E80F0097E80F0004F12005F7
:102BB00085E80F0096E80F00303484E80F00012309
:102BC00088F8663006B0BDE8F08100BF000800203C
:102BD00008080020E587010858880108EC07002054
:102BE0001C07002090070020044B43F8600F0422CC
:102BF0004FF494711846FFF7E7BB00BFEC070020C5
:102C0000012804D0022808D060B9FFF7CDBE0648DD
:102C100054224FF4FA61FFF7D7BB0448D0224FF497
:102C20007971F8E7704700BFC80600201C07002034
:102C300070B5FFF761FF2A4B2A486822A3F8642089
:102C400042F2137647220024C3E9002640F257429D
:102C50009A601C6683F866405423C0E90044C0E9CA
:102C600002440365046121463022143013F0C3FA94
:102C70001D4B1E49C3F8C840D022C3F8CC201C4AC3
:102C80000125C3E900521B4AC3E902121A4AC3E9EB
:102C900004240322C3E906240C22C3E90C250A22DA
:102CA000C3E90844C3E90A55C3E90E24C3E9104443
:102CB000C3E91244C3E91444C3E91644C3E92E65C9
:102CC000C3E93044FEF752FFFEF76CFFFFF76CFEDE
:102CD0000220FFF795FF2846BDE87040FFF790BF40
:102CE000EC070020C80600201C07002052202D20E1
:102CF0004D4554454E414D452E2E2E3F012807D0BF
:102D000002280AD070B908486822C821FFF74ABBD8
:102D1000064854224FF4FA61F8E70548D0224FF4F0
:102D20007971F3E7704700BFEC070020C806002068
:102D30001C07002030B54E4D85B06822C8212846BA
:102D40000024ADF80E40FFF72DFB02224FF49671E0
:102D50000DF10E00FFF726FBBDF80E2043F6D973E8
:102D60009A4209D102224FF496710DF10E002C60A7
:102D7000ADF80E40FFF728FB2B68472B08D16A6897
:102D800042F213739A4203D1B5F86430682B21D014
:102D9000002385F86630FFF74FFBFFF749FFBDF8CA
:102DA0000E20344C40F262639A425BD143F6D973F1
:102DB00002224FF496710DF10E00ADF80E30FFF7C0
:102DC00003FB2D4B00221A6301232370FFF712FE31
:102DD00005B030BDFFF7ACFB0220FFF78FFF264C9C
:102DE0000120FFF78BFF254BE26B1A70236CAA685A
:102DF0009A420DD1636C9A420AD0AB60FFF7D4FDC2
:102E0000AB68009300221E4B1146022010F07CFF9D
:102E1000D4E91032D3420ED01A480023042240F2E3
:102E20002441C4E91033FFF7CFFA174804224FF4C6
:102E30008561FFF7C9FA154B626D1A70A26D5A7061
:102E4000E26D9A70104804226421FFF7BDFA0E4823
:102E500004224FF4FA51FFF7B7FA01210846FFF7B1
:102E6000C5FA9CE700232370FFF716FEB0E700BF0A
:102E7000EC070020BC0500201C070020B80500203E
:102E8000698801085C07002060070020C406002054
:102E900038B500242F4D30482C70012322464FF4C2
:102EA000806111F025FC2C822C4DEC8005F510453D
:102EB0002B7D0BB9687D08B1002038BD0121FEF7DC
:102EC0005BFD00283ED10121FEF7F6FD003818BF5A
:102ED00001204000B0FA80F06B7D40092875002B7E
:102EE000E6D102210120FEF7E7FB68BB1022022198
:102EF0000120FEF7F3FC48BB194A02210120FEF72E
:102F0000C3FC044620BB1F225C210120FEF722FDEA
:102F100001225B211046FEF71DFD224656210120AD
:102F2000FEF718FDC02258210120FEF713FDE02214
:102F30005E210120FEF70EFD2046B0FA80F0400928
:102F40006875B5E70120C5E70120F6E70220F4E740
:102F50000320F2E710B3002024B30020640800200F
:102F6000004050452DE9F84F002481468A4693469B
:102F70009846002526462746ABB298451DD84046C0
:102F8000FDF7F4FE014605463846FDF7F7FF15F05C
:102F90004FF80A9B294618603046FDF7EFFF15F001
:102FA00047F80B9B294618602046FDF7E7FF15F010
:102FB0003FF80C9B1860BDE8F88F59F835100846AB
:102FC000FDF728FF01463846FDF71CFE5AF835107C
:102FD00007460846FDF71EFF01463046FDF712FE84
:102FE0005BF8351006460846FDF714FF01462046FB
:102FF000FDF708FE01350446BEE7000000000000B2
:103000002DE9F74FDFF818A10D46914604460E460C
:103010004FF00008C14504F1240406F1240602DC47
:1030200003B0BDE8F08F54F8140CFDF765FA38A32F
:10303000D3E90023FDF7B8FA37A3D3E90023FDF75E
:10304000B3FAFDF789FD834654F8180CFDF754FADE
:103050002FA3D3E90023FDF7A7FA2FA3D3E9002379
:10306000FDF7A2FAFDF778FD074654F8100CFDF7BE
:1030700043FA27A3D3E90023FDF796FA26A3D3E961
:103080000023FDF791FAFDF767FD014654F81C0C8B
:10309000FDF774FF5146FDF7BDFE46F8240C594676
:1030A000019054F8200CFDF769FF5146FDF7B2FE80
:1030B00046F8200C8346394654F8240CFDF75EFF91
:1030C0005146FDF7A7FE019B46F81C0C1946074622
:1030D0001846FDF79FFE0146E869FDF793FD594646
:1030E000E8615846FDF796FE01466869FDF78AFDDE
:1030F000394668613846FDF78DFE0146E868FDF700
:1031000081FD08F10108E86084E700BFAFF30080AB
:10311000182D4454FB211940000000609EA0F63F8A
:1031200000007A442DE9F04F89B000AF1C46D7F873
:103130004890BA6009F1070323F00703ADEB030DD4
:10314000C7E903104A460021684613F054F804F515
:103150001073EA467B61002500230126BD61A84665
:10316000FB6119462EE01AF80620002A64D13B6064
:103170003B69796053F826B05846FEF707F83B687C
:10318000002855D179688B46FA683B6052F82620B2
:103190007A6010461946FDF7F9FF7A68002849D190
:1031A0003B681A46BB68F96953F826303A601846FE
:1031B0007B60FDF7EBFFD7E9002300283FD1013604
:1031C000134659464E45CED36360FB69BA69236006
:1031D000BB69C4F81880C4E90735A160A8F10303EE
:1031E000033D033A08F10408002B04DB4B453CBFC8
:1031F00001210AF80310002A04DB914584BF012154
:103200000AF80210002D04DBA94584BF01210AF849
:1032100005100133434505F1010502F10102E3D137
:103220007B6924349C4296D12437BD46BDE8F08F9B
:10323000B046A9E7BE61B5E71A468B46BFE73546FB
:10324000FB61BCE72DE9F04FADF5805D83B005462D
:103250001F464FF400620021684612F0CCFF0DF5C6
:1032600000644FF400620021384612F0C4FFD5F824
:10327000FC37236029462B68C4F804384FF40062F9
:103280000DF6040013F037F86D462E464FF0000996
:103290004FF000084FF07E5A206854F8041FFDF7E5
:1032A000B1FC6168FDF7AEFC2149FDF767FE4146C0
:1032B00009F101098346FDF741FF98BB5946504685
:1032C000FDF75CFEB9F5007F46F8040BE4D1DFF8AA
:1032D0006490DFF864A000264FF000084FF07E5B9A
:1032E0003046FDF743FD4946FDF732FFE0B128685F
:1032F0005146FDF78FFD044645F8044B41462046F4
:10330000FDF71CFF90B921465846FDF737FE47F8F8
:1033100026000136B6F5007FE2D10DF5805D03B0E1
:10332000BDE8F08F4046CDE74446E5E74046EEE78E
:103330000000404000004842A1A0A03C2DE9F04F11
:103340000022BA4FBA4B89B01146022010F0DCFCC3
:10335000BB68B3F5806F40F06681B64A0292B64A08
:103360000192B64A0092B64ADFF8D8B2DFF8D8A286
:10337000A2F50051A1F50050FFF7F4FDA7F51045A7
:1033800000244FF07E592046FDF7F0FC5946FDF72A
:1033900041FD5146FDF7F2FD12F014F90146484691
:1033A000FDF72EFC4FF07C51FDF734FD05F580480C
:1033B00006460146D8F80800FDF72CFDC8F80800BD
:1033C00005F500583146D8F80800FDF723FDC8F888
:1033D0000800A8683146FDF71DFD0134B4F5806F83
:1033E00045F8080FCFD196499848DFF8648211F06C
:1033F0009FFF9849954811F09BFF9749934811F01A
:1034000097FF96492246A1F5005012F017F894490B
:103410002246A1F5A04012F011F892492246A1F5EA
:10342000004012F00BF88E4C00254FF06E5658F805
:10343000040F3146FDF7EEFCC8F800002068314665
:10344000FDF7E8FC44F8040B3146D4F8FC0FFDF717
:10345000E1FC0135B5F5007FC4F8FC0FE7D1824EE1
:10346000804856F8181C56F80C2CA6F11804334660
:10347000FFF7E8FE22696168794804F61803FFF750
:10348000E1FE6269A168754806F58053FFF7DAFE30
:103490000025A946AB464FF0000AA84656F8041B83
:1034A0005846FDF7AFFBD6F8FC1783464846FDF7B4
:1034B000A9FBD6F8FC1F81462846FDF7A3FB0AF1BD
:1034C000010ABAF5007F0546E8D1C4F80CB0C4F88B
:1034D000109060614FF06C515846FDF79BFC4FF027
:1034E0006C51834620604846FDF794FC4FF06C51C8
:1034F000064660602846FDF78DFC5C49A0600546E5
:103500005846FDF787FC5A4C58490590C4F82408E2
:103510003046FDF77FFC55490690C4F82008284640
:10352000FDF778FC4D4AC4F81C080790CDF800A0C0
:10353000504B504D02F5805102F50050FFF7F2FD5F
:10354000D4F818982E464FF0100A4FF0000B31684F
:103550000798FDF7FDFD68B171680698FDF7F8FD65
:1035600040B1B1680598FDF7F3FD18B109F1010903
:103570004FF0010BBAF1010A06F12406E7D1BBF1C5
:10358000000F01D0C4F81898D4F8183813B90123E3
:10359000C4F81838D4F818A8DFF8DC90002656458F
:1035A00005F124056CD1354D3248B2B22946FFF7FA
:1035B00027FDE86814F03CFD2861686914F038FDC7
:1035C000A861E86914F034FD4FF40052286200212C
:1035D0001B4812F010FE4FF4005200211D4812F05B
:1035E0000AFE4FF4005200211B4812F004FE4FF473
:1035F00080520021194812F0FEFD4FF48052002144
:10360000174812F0F8FD17484FF48052002112F0CD
:10361000F2FD0023C5F80C80C5F81480C5F81C80A5
:10362000C4F81838BB6009B0BDE8F08F649800207A
:103630008D880108580800205C08002060080020E0
:103640006C480020DB0FC94000C07F4424B3002039
:10365000686800206C2800206C0800206C6800203E
:103660006C7800206C880020C0980020000040404A
:10367000A8A80020D0B00020000048408498002076
:1036800055F8040CFDF76EFB4946FDF7C3FB45F802
:10369000180C55F8080CFDF765FB4946FDF7BAFB19
:1036A00045F8140C55F80C0CFDF75CFB4946FDF78A
:1036B000B1FB013645F8100C71E700BF2DE9F0436E
:1036C000534C04F5104587B02E7F66BB6B7D4FF0E1
:1036D000010885F81C8023B3224602214046FEF7EC
:1036E000A9F8074610B34B4801F0DEFEEA8A02EB68
:1036F00008039BB2092AEB820CD9474B4748DE747A
:10370000EE8206F065FE464B32461146022010F06E
:10371000FBFA06E000933246424B3146022010F09D
:10372000F3FA00232B7707B0BDE8F0833A4EE88226
:10373000F37C002BF5D00DF117021B214046FEF75C
:10374000F7F89DF8173083F01003C3F300132B73C1
:10375000AB68B3F5806F4ED2B4F900005E0002F0A2
:1037600043FC3149FDF70AFC3049FDF753FB06F1F4
:10377000020844F82800B4F9020002F035FC2A4996
:10378000FDF7FCFB2949FDF745FB06F6020844F866
:103790002800B4F9040002F027FC2349FDF7EEFBF2
:1037A0002249FDF737FB2149FDF72AFA41F20208C9
:1037B000731C06EB080943440022F11C06F60306BD
:1037C00044F8290044F82320B4F9043044F82120B7
:1037D00044F826200293B4F902300193B4F9003082
:1037E00000933A46124B3946022010F08DFAAB682E
:1037F0000133AB6095E7FFF7A1FD2C7B002C90D146
:103800000648F47406F0E4FD054B22467DE700BF50
:103810006408002038B8002010B30020ECB300206A
:10382000B7880108DB88010800007A440AE81C41D7
:1038300004890108F7B5314C00F0AAFD23689842CD
:103840001DD32F4EF77C002F52D100F0A1FD23682D
:103850002C4D6433984288BF2F702B785A1C092B4B
:103860002A700ED800F094FD2B7800F5FA70002233
:103870002060114600930220234B10F045FA03B05C
:10388000F0BD0024214B2C7022462146022010F06E
:103890003BFA21464FF400521D4812F0ACFC214681
:1038A0004FF400521B4812F0A6FC21464FF4005280
:1038B000194812F0A0FC21464FF48052174812F02C
:1038C0009AFC21464FF48052154812F094FC4FF4B4
:1038D00080522146134812F08EFC134B13489C6013
:1038E0000122F2741C6103B0BDE8F04006F04ABD4D
:1038F00000F04EFD00F57A702060C0E7DC0000208B
:1039000010B3002054080020108901083F890108E5
:103910006C4800206C2800206C0800206C68002097
:103920006C7800206C88002064980020ECB30020A4
:103930001348144A08B54FF00043C0E9002304229D
:10394000426101220023C2614FF480510722C0E985
:103950000233C0E90933C0E90C12036103838376A3
:1039600080F8203080F82C30826380F83C30C364CB
:1039700003F0B4FC18B1BDE8084000F037BB08BD47
:1039800038B30020002401400268084B9A4282B0FC
:103990000AD14FF0B0431A6E42F400721A661B6EE1
:1039A00003F400730193019B02B0704700240140AF
:1039B0000268054B9A4201BF4FF0B042136E23F4E8
:1039C00000731366704700BF0024014030B585B016
:1039D00000240546CDE901440394FFF7A9FF1448EC
:1039E00004F010F808B100F001FB1148039401A99C
:1039F000CDE9015403F0D0FD08B100F0F7FA0C480E
:103A000003F02AFF08B100F0F1FA4FF0FF31084847
:103A100003F064FD064803F0D7FF054803F0B8FD46
:103A20000446034803F07AFF204605B030BD00BFCE
:103A300038B30020014B024A1A60704738B30020A7
:103A40000024014008B50948FFF7C0FF68B1084BE2
:103A5000B3F8AA304FF6FF72934216BF40F6E44225
:103A6000044B5343B3FBF0F398B208BD002000B4FD
:103A70000075FF1FD8084C0013B50023ADF80630C1
:103A8000FFF7E0FF04461948FFF7A0FF184BB3F813
:103A9000C820B3F8A8108A4204FB00F018D040F602
:103AA000E443B0FBF3F364205B1A4343521A93FBE5
:103AB000F2F31E331BB2ADF80630BDF806305BB230
:103AC0001B02ADF80630BDF8060000B202B010BD12
:103AD0004FF47A7240F6FF73B0FBF3F35343A3F550
:103AE0003923A3F50C6340F6C412E0E7001000B0E0
:103AF0000075FF1F4FF0B04307B59A6C42F0040207
:103B00009A649A6C02F004020192019A9A6C42F053
:103B100001029A649B6C002203F00103009311469A
:103B20000F20009B04F00CF80F2003B05DF804EBAD
:103B300004F038B808B504F0BFFA10B16FF0040013
:103B400008BD064B9A6942F040429A614CF2FA3243
:103B50001A6104F0C3FA0028F2D0EFE700400058E1
:103B6000F0B585B000230D4600930646A8B3FFF7D5
:103B7000E1FF044670BB04F09FFA88BB1A481B4A59
:103B800002230193D0F8E01506F1784302EA81217F
:103B9000B3FBF1F701FB1733DB0A0293D0F8E00522
:103BA00005F178410139314402EA8022B1FBF2F09B
:103BB00002FB1011C3EBD1230133694601A8039323
:103BC00004F00CFB20B1022814BF6FF001040124A3
:103BD00004F084FA204605B0F0BD6FF00504F9E763
:103BE0006FF00404F6E700BF0070FF1F00FCFF0346
:103BF000014B1860002070479CB300202DE9F04F66
:103C0000B0F1006F89B006460F469046C0F0C08004
:103C1000DFF89091644DD9F8E03505EA832303F18C
:103C20000063013B984200F2B380002900F0B380AA
:103C300040EA02035B0740F0AE80FFF77BFF0446DB
:103C400090BB04F039FA002840F0A880D9F8E015BC
:103C5000009705EA812106F17842B2FBF1F301FBFE
:103C6000132208F17843013B3344B3FBF1F001FB2D
:103C70001033DB0A01334FEAD22AA3EBD222012A06
:103C8000039388BFC6F30A050AF58037C6F1080317
:103C90008CBFC5F500654546FF02B3460693039BFE
:103CA0009A4505D304F01AFA204609B0BDE8F08F12
:103CB000A6F10803069A1A4495421CD8009B049565
:103CC0000193CDF814B04FF00009059B09EB0301F7
:103CD000049B99453DD3009BAB442B44A8EB0505C1
:103CE000B5F5006F009328BF4FF400650AF1010A93
:103CF00007F50067D3E753F8081F5A68B2F1FF3F92
:103D000008BFB1F1FF3FD5D0284B186810B96FF04C
:103D10000504C7E727B14FF40062394610F0FAF8FE
:103D2000DFF888900099D9F80030CBF30A001844E6
:103D3000AAB210F0EFF84FF400613846FFF710FF19
:103D400000BBD9F8003001934FF40063059704934A
:103D5000B9E7019B07914B4402930120D3E900236B
:103D600004F0F6F988B90799019BD1E9000259F8E6
:103D70000310029B5B689A4208BF884205D109F193
:103D80000809A2E76FF001048CE76FF0030489E7EC
:103D90004FF0FF3488E76FF0050485E76FF0040407
:103DA00082E700BF0070FF1F00FCFF039CB30020F0
:103DB000B1F1006F70B510D30B4BD3F8E0650B4B2E
:103DC00003EA862303F10063013B994205D838B129
:103DD00092B210F09FF8002070BD4FF0FF30FBE76B
:103DE0006FF00500F8E700BF0070FF1F00FCFF0345
:103DF000B0F1006F10B40DD3084BD3F8E045084B79
:103E000003EA842303F10063013B984202D810BC0B
:103E1000FFF7A6BE4FF0FF3010BC70470070FF1FC9
:103E200000FCFF034FF0B04382B0DA6C0243DA6467
:103E3000DB6C03400193019B02B07047F0B587B083
:103E40001422002101A812F0D6F90420FFF7EAFF9E
:103E50000220374DFFF7E6FF0120FFF7E3FF802048
:103E6000FFF7E0FF202100222846002404F024FB75
:103E700003264FF64A6301A92846CDE9013603948B
:103E800004F0FAF942F2440301A92A480394CDE967
:103E9000013604F0F1F948F2F37301A94FF09040B4
:103EA000CDE901360827039404F0E6F901A9224878
:103EB0000394CDE9017604F0DFF9022604224FF4E1
:103EC000041301A92846CDE90123039604F0D4F98F
:103ED0004FF488134FF4C871CDE90113284601A9A6
:103EE000039604F0C9F901232020CDE9010301A9BB
:103EF0002846CDE9036404F0BFF92246214638463E
:103F000003F01EFE384603F04DFE224621460A20ED
:103F100003F016FE0A2003F045FE22462146162035
:103F200003F00EFE162003F03DFE07B0F0BD00BF0B
:103F30000004004800080048001C004800B59BB081
:103F40004822002108A812F056F91C22002101A8DD
:103F500012F051F904F010FF4FF0B0420120D2F8F6
:103F6000903023F01803C2F89030D2F8003423F4D4
:103F7000C06343F40073C2F80034D2F8003403F491
:103F8000C0630093009B2423089381230B93002399
:103F9000CDE91003B02208A8CDE9122305F064F89A
:103FA00008B172B6FEE74F23CDE90130CDE9030039
:103FB00005900790022101A805F0F0FA08B172B649
:103FC000FEE71BB05DF804FB08B503F0E3F8FFF76C
:103FD000B5FFFFF733FF00F029FD00F06FFA4FF453
:103FE000FA7000F0DDF900F028FDFCE772B6FEE79C
:103FF00000B58DB02C22002101A812F0FCF8174862
:10400000174B03601F2383604FF080420023C0E9F9
:104010000433C0E9072383614FF48073436205F0E2
:104020007DFD08B1FFF7E2FF0C4805F0A3FE08B1E3
:10403000FFF7DCFF4FF00053002207930748089278
:104040004FF4807301A9029206920B9305F0C6FD0E
:1040500008B1FFF7CBFF0DB05DF804FBA0B3002063
:104060000028004010B5044690B03822002102A874
:1040700012F0C1F82268194B9A422CD14FF48033C8
:10408000029302A84FF480730F9305F0C5FB08B1AB
:10409000FFF7ACFF4FF0B0430220D3F8902042F47A
:1040A0000042C3F890209A6D42F480629A659B6D3D
:1040B000002203F4806311460193019B03F040FD4D
:1040C000022003F06FFD00222A20114603F038FD84
:1040D0002A2003F067FD10B010BD00BF002800408B
:1040E0007047000008B503F06BF8044B0120C3F8DB
:1040F0008800BDE8084004F097BE00BF00040058E7
:1041000003F065B808B503F062F8BDE8084000F0B8
:1041100027BC08B503F054F8BDE808400121002091
:1041200004F032BE70477047FEE7FEE7FEE7FEE7A9
:10413000FEE7704770477047FDF78ABA014805F0FF
:104140003FBE00BFA0B30020042004F0D3B910206C
:1041500004F0D0B9014803F00FBF00BF40B4002005
:1041600008B5802004F0C6F9BDE80840014803F016
:1041700076BF00BF68010020014806F045B900BFC6
:10418000ECB30020014806F037BB00BFA0B400200C
:10419000014805F049BC00BFA0B30020014806F06B
:1041A00038B800BFD8B30020054808B5082303601D
:1041B00005F04CFE18B1BDE80840FFF717BF08BD79
:1041C000D8B300204FF0B04307B55A6E42F0010259
:1041D0005A665B6E002203F0010301931146322000
:1041E000019B03F0ADFC322003B05DF804EB03F05B
:1041F000D9BC00000CB407B5054A05AB10210193EA
:1042000010F054F903B05DF804EB02B0704700BF42
:104210008089010830B585B0044602A80D460FF02C
:10422000BDFFBDF90C30064A00931021029B2046C9
:10423000FFF7E0FF2046FBF7F3FF288005B030BD15
:10424000808901084FF0B04210B5936823F4004311
:1042500093600FF0DFFF0E4B01241C7000F0A6F8F6
:104260000FF0E8FC0B480FF0FFFC0B4B4FF4004243
:104270001A6102200FF0FEFCFFF7DCFB00F0C4F82F
:104280000FF0F2FD21462046BDE810400FF00CBEB5
:10429000E4B3002015420008004000580FF01ABE99
:1042A00008B5FFF7CFFB40F6B83398420CD8B0F50D
:1042B000E16F0BD3FE23A0F5E16058434FF4966302
:1042C000B0FBF3F0C0B208BDFE20FCE70020FAE727
:1042D0007FB5684600F07CF80198FCF777FF00B2E4
:1042E00007B05DF804FB0000194A38B5D2F88035F4
:1042F000591C044619D102F071FF054602F07AFFFD
:10430000054402F071FF2B0EE3712B0CA3712B0AF5
:104310006371030EE370C0F30742C0F307232571F6
:10432000C0B2A2706370207038BD190AC371817168
:10433000190C1B0E41710371D2F88435C370D2F889
:104340008405C0F30722C0F30743000EE9E700BF6E
:104350000070FF1F38B5094BD3F880350360013377
:10436000054609D102F03AFF044602F03DFF444001
:1043700002F040FF44402C6038BD00BF0070FF1FBA
:10438000012102200FF07ABD002102200FF076BD3E
:10439000024B187808B100F003B97047E4B300206D
:1043A00082B00190019802B000F096B9074A08B5B2
:1043B000D2F8903043F48043C2F8903002F020FFEE
:1043C00002F026FFBDE8084002F02ABF00080058AE
:1043D00010B50446FFF750FB074BA36040F30F20D6
:1043E000FCF7C4FC054B064A2360064B6060C4E939
:1043F0000323002010BD00BF0000484200007A44A3
:104400000D093E00AB0305000020704701207047F6
:1044100008B511F043FF162303604FF0FF3008BDCD
:1044200008B511F03BFF16230360FEE770B50D469B
:1044300014460E46731B9C4201DC204670BDAFF350
:10444000008006F8010BF5E770B50D4614460E46E0
:10445000731B9C4201DC204670BD16F8010BAFF3C4
:104460000080F5E74FF0FF3070474FF400534B608A
:104470000020704701207047002070470B4A1168E8
:1044800010B5034609B90A491160106809490A4C78
:104490000344091B8B4206D911F000FF0C23036073
:1044A0004FF0FF3010BD1360FCE700BFE8B3002001
:1044B00070D7002000000120000800000B480C4AC3
:1044C00008B52F23C0E90023002340F23512C0E9CC
:1044D0000232C0E904338023836106F077F818B113
:1044E000BDE80840FFF782BD08BD00BFECB3002067
:1044F0000048014007B50E4B02689A4215D14FF0B3
:10450000B04305211A6E42F480221A661B6E03F432
:104510008023019300221D20019B03F011FB1D202D
:1045200003B05DF804EB03F03DBB03B05DF804FBA2
:1045300000480140014B1868704700BF38B40020A4
:104540000320704708B501464FF47A7200238002B9
:10455000890DFCF781FE08BD4FF47A73A0FB0303BD
:10456000800A40EA83507047034B98689A689042EB
:10457000FBD1C043704700BF0028004008B5FFF7DB
:10458000F3FF014B186008BD38B4002008B5FFF7F1
:10459000EBFF024B1B68C01A08BD00BF38B40020F7
:1045A000024B187808B1FFF7DFBF70473CB400201A
:1045B00010B5074B074C0122DA654FF48071204695
:1045C00005F0F8F94FF0FF332363002010BD00BF62
:1045D00000280040A0B3002002460021014805F059
:1045E00000BC00BFA0B3002002460121014805F035
:1045F000F8BB00BFA0B3002010B58CB02C22002166
:10460000044601A811F0F7FDFFF7D2FF0C4B0D484F
:104610001B681C440023089306934FF00053E443A7
:10462000079301224FF4807301A902940B9305F0C4
:10463000D5FA08B1FFF7DAFC00200CB010BD00BFBE
:1046400038B40020A0B3002038B50546FFF78CFF32
:1046500002210446074805F0CBFBC4F309024FF4DE
:104660007A71A2FB0121920AA30A2A8043EA8050B0
:1046700038BD00BFA0B300200148002105F0B8BB41
:10468000A0B300200148012105F0B2BBA0B3002077
:10469000F8B50F4D2E78CEB90E4C4FF0FF3727638B
:1046A000FFF7A6FCFFF784FF4FF48071204605F06A
:1046B00081F92046276305F03FFB32462046022160
:1046C00005F08FFBFFF75AFF01232B700020F8BD88
:1046D0003CB40020A0B30020014610B54FF47A721C
:1046E00000238002890DFCF7B7FD0146FFF73CFF70
:1046F0000446FFF739FF031B8B4200D310BD00BFF8
:10470000F7E70FF08FBE000010B5064C02212046DF
:1047100005F06EFB0221421C2046BDE8104005F06A
:1047200060BB00BFA0B300201648174A08B54FF47D
:104730001653C0E9002300230C22C0E90233C0E96C
:104740000523C0E90733C0E90933036106F03DFEE4
:1047500008B1FFF74BFC0B48002106F0AEFF08B193
:10476000FFF744FC0748002106F0C7FF08B1FFF738
:104770003DFC044806F081FF18B1BDE80840FFF792
:1047800035BC08BDA0B400200044004030B597B04F
:1047900005461422002103A811F02DFD3822002126
:1047A00008A811F028FD2A682C4B9A4253D1022305
:1047B000089308A82A4B0A9305F02EF808B1FFF7D2
:1047C00015FC4FF0B04301219A6D264C42F40032A3
:1047D0009A659A6D02F400320292029ADA6C42F003
:1047E0000102DA64DB6C03F0010301930C22019BEC
:1047F0000223CDE903230323CDE905134FF09040B5
:10480000072303A9079303F037FD17481423C4E9CE
:1048100000034FF0100C002380222046C4E902C39D
:10482000C4E90423C4E90633236203F02FFA08B174
:10483000FFF7DCFB0B48102103F0F4FB08B1FFF796
:10484000D5FB00222520EC671146A56203F078F91C
:10485000252003F0A7F917B030BD00BF0044004089
:1048600004000C0040B400205800024002680C4BC9
:104870009A4210B5044612D14FF0B0420C21936D0C
:1048800023F4003393654FF0904003F0A1FDE06FF7
:1048900003F06EFABDE81040252003F091B910BD79
:1048A0000044004008B50A460146024805F008FFEA
:1048B000002008BDA0B4002013B5114B114C1860A6
:1048C0004FF40013009302AB13E90600204606F0F4
:1048D00078FE2368DA69D103FCD4DA695202FCD588
:1048E0009A68084842F480029A6006F0B0FE0649D1
:1048F0000448012206F01EFE002002B010BD00BFD9
:1049000034B50020A0B400203CB5002008B5074B0A
:104910001860FFF7EFF8FFF707FF054AD2F880307D
:1049200043F00063C2F88030002008BD38B5002095
:104930000008005808B54FF0B04308489A6B42F49D
:1049400000329A639A6B22F400329A63FFF78EFF6B
:104950000F2003F035F9002008BD00BFA0B40020EF
:1049600008B5074806F031FD08B1FFF73FFB0548E1
:1049700003F08CF918B1BDE80840FFF737BB08BD5C
:10498000A0B4002040B400200268044B9A4203D136
:10499000034B00201B681847704700BF00440040CD
:1049A00038B5002002680B4B9A4210B504460FD16F
:1049B000094B1B682BB1D0F8902012B90748012190
:1049C000984720460549BDE81040012206F0B2BDD7
:1049D00010BD00BF0044004034B500203CB50020AD
:1049E000014B00221A7070473DB50020014B18782A
:1049F000704700BF3DB5002010B5034C0349227835
:104A00000FF088FA207810BD3DB500203EB500209B
:104A100010B504490446F2220348FDF71DFC204668
:104A200010BD00BF3DB500203EB5002008B5FFF722
:104A300009FCBDE8084000F087BA4FF0FF300FF0E6
:104A4000ADBA704770470000014BD870704700BF87
:104A5000EC000020014B1874704700BFEC000020F0
:104A600007B5064B00221B5C00931146044B022045
:104A70000FF04AF903B05DF804FB00BFF6890108A6
:104A8000DC89010808B5022000210FF04FFABDE8CB
:104A9000084001480FF074BC84B7002000210120B9
:104AA0000FF044BA10B54EF66023084C002818BF2A
:104AB0000346074823600FF015FC216804480FF0F7
:104AC00099FCBDE8104002480FF05ABCE8000020F5
:104AD00084B700201FB50446002837D00378002B88
:104AE0002ED01F480FF04CFC002211461D4B022017
:104AF0000FF00AF994F91830039394F90A300293ED
:104B0000237C0193E368009300221146164B032097
:104B10000FF0FAF80022154B114602200FF0F4F8BE
:104B2000237A012B14D1617A114A124B002918BF44
:104B300013460022009311460F4B02200FF0E4F8B9
:104B40000E492046FDF7BEFA0D4B186004B010BDAB
:104B500000220C4B114602200FF0D6F8F0E700BF00
:104B600060B60020FF890108308A0108618A0108C7
:104B7000FB890108FA8901086E8A010884B70020C0
:104B8000E80000207F8A010837B5044628B390F971
:104B9000065025BB13480FF0A5FB134B2A462946A8
:104BA00002200FF0B1F8E379012B0CBF0F4B104B33
:104BB0000022114602200FF0A7F894F90600FDF735
:104BC00033FA94F90530019394F9043000930022EC
:104BD000084B114603200FF097F803B030BD064B89
:104BE000E6E700BF30B600208D8A0108A28A0108DE
:104BF000BF8A0108F38A0108DC8A01080A460149D4
:104C0000FFF7D6B800F0030838B51B480FF06AFB71
:104C100007F0DCF9044650B10022184B114602207F
:104C20000FF072F8BDE8384015480FF0A9BB154BDE
:104C3000154D0246014602200FF066F8134B1B7813
:104C4000012B11D10220124B2870224621460FF071
:104C50005BF8104807F046F82878012106F09AFD25
:104C600005480FF08DFBDDE701232B7022460A4B30
:104C700021460220EBE700BF84B700201C8B01080F
:104C80006CB700203A8B0108A4000020A50000208A
:104C90004E8B0108EC0000206E8B010800B5034626
:104CA0008DB000282CD0407802280AD003282AD0C2
:104CB000164B0022114602200DB05DF804EB0FF0F8
:104CC00023B81A7F0B92DA7E0A929A7E09925A7E54
:104CD00008921A7E0792DA7D06929A7D05925A68AA
:104CE0000492DA68039293F914200292B3F9122025
:104CF00001921B7C00930022054B11460FF004F833
:104D00000DB05DF804FB034BD3E700BF8D8B0108AA
:104D1000A48B0108168C010801284FF000020CBF7B
:104D2000024B034B114602200EF0EEBF358C0108FA
:104D3000478C0108054B1A78054B1B789A4203D122
:104D4000002108200FF0F2B8704700BFA400002037
:104D5000A500002008B507F042F980B906F000FE72
:104D600001280CD1BFF34F8F0549064BCA6802F4E6
:104D7000E0621343CB60BFF34F8F00BFFDE708BD78
:104D800000ED00E00400FA0530B5044687B00D469A
:104D9000002953D02A480FF0F3FA2B78EBB1E4B195
:104DA0006368D3B11B780193237800930022254BCD
:104DB000114602200EF0A8FF2378022B2ED0032BE1
:104DC0000BD16378012B08D163681878012802D0D1
:104DD000022800D008B906F0B7FE2B7C052B16D8A8
:104DE00095F90A20059295F909200492164A52F87D
:104DF0002330039395F90830029323780193EB68ED
:104E000000930022114B114603200EF07DFF29462E
:104E1000204607B0BDE83040FDF72EB86378012B7F
:104E2000DBD163681A7812F0010216BF0022084B2A
:104E3000084B114603200EF067FFCEE707B030BDE8
:104E400048B600205B8C0108500100208B8C0108C3
:104E5000788C0108828C010838B504460D46074855
:104E60004FF40061FEF7C4FF30B92A4621460348DB
:104E7000BDE83840FEF7C2BE38BD00BF00F00308F1
:104E800010B507F041F910F1080F07D1064B0022C9
:104E9000BDE81040114602200EF036BF013001D1AE
:104EA000024BF4E710BD00BFD28C0108E88C01086A
:104EB00037B506F069FD0446002837D11C4D0223A2
:104EC0002B70FFF78DFD2046FFF7A2FD194C686897
:104ED000FFF792FDFFF78AFD637A687033B106F041
:104EE0003FFD012802D120460FF0FCF9124B10487B
:104EF000D978002206F05EFD024638B90F4B014614
:104F0000012003B0BDE830400EF0FEBE06320DD1E8
:104F100006F020FD50B100224FF47A731146B0FB29
:104F2000F3F0074B009001200EF0EEFE03B030BD11
:104F3000E000002030B60020EC000020008D0108C9
:104F40000F8D010870477047F0B587B00024012528
:104F50000327504B029422462146CDE900570220F8
:104F6000022605940EF0D0FE0623CDE9006322460A
:104F7000494B0295214630460EF0C6FE474B009540
:104F800022462146CDE9017530460EF0BDFE05A949
:104F9000204607F009F8059BC3F307220292C3F3EA
:104FA00007421B0E0192009322463D4B214630469C
:104FB0000EF0AAFE05A9284606F0F6FF059BDAB218
:104FC0000392C3F307220292C3F307421B0E01921E
:104FD00000932246334B214630460EF095FE324B6D
:104FE0003248009422464FF4FA710FF01DF9304B0D
:104FF0003048009422464FF4FA710FF015F92E4B09
:105000002E4800942A464FF4FA710FF00DF920460D
:10501000FEF7EEFD08B1FEF7E9FF294B00940022F0
:105020004FF4FA6127480FF0FFF8274A00210120CA
:105030000FF046F8254A002102200FF041F8244ADB
:10504000002104200FF03CF8224A002108200FF034
:1050500037F800F051F82049204806F05BFF20485F
:1050600006F040FEFCF7A4FA14480FF089F91D4B36
:105070000121187806F08EFB1B4900941B4B096830
:105080001B4800220FF0D0F819480FF079F907B04B
:10509000F0BD00BF2D8D01084E8D01086F8D0108F8
:1050A000908D0108B18D0108434A000860B60020C8
:1050B000474F000848B60020454F000830B6002092
:1050C000354D00086CB70020E9BA0008B14E000861
:1050D000814E0008094C0008000003010401002073
:1050E000EC000020A4000020E8000020854A000811
:1050F00084B70020FCF7D6BA034B0022C3E9022292
:105100000122C3E9002270479CB700200048704785
:105110009CB7002008B502F08BF808BD08B502F076
:10512000B1F808BD0020704708B502F0C9F808BD05
:1051300008B502F0C7F808BD02F0C6B830B54FF4A4
:10514000807287B0104D11484FF488130024CDE9C8
:10515000012301A90223CDE9034303F08DF80C4993
:10516000284602F076FF21460A4A284602F06AFFE6
:1051700022462146162002F0E3FC162002F012FD22
:10518000204607B030BD00BF680100200004004881
:105190000800001685290008FFF7FAB810B588B096
:1051A0000F4B01930F4B02930F4B03930F4B059340
:1051B0000F4B04930F48104B069301A901F048FBD5
:1051C00048B90E4B0E4C23601B6813B10948984731
:1051D00018B1002323604FF0FF3008B010BD00BFAE
:1051E00021560008D15300081D54000871540008CE
:1051F0003D540008ACB7002099510008C8010020B8
:10520000D8B70020044B1B681B690BB10348184733
:105210004FF0FF30704700BFD8B70020ACB7002078
:105220000648006810B444691CB1A446044810BC88
:1052300060474FF0FF3010BC704700BFD8B7002068
:10524000ACB700200648006810B484691CB1A446BD
:10525000044810BC60474FF0FF3010BC704700BFDF
:10526000D8B70020ACB70020014801F065BB00BFF3
:10527000ACB7002082B06B4683E8060093E80600D6
:10528000014802B001F063BBACB7002082B0034814
:10529000ADF80420019A02B001F084BBACB7002045
:1052A000014801F0ABBB00BFACB70020014801F0E2
:1052B000BBBB00BFACB70020014801F0D4BB00BFAE
:1052C000ACB700200D48854601F03DFF0C480D4964
:1052D0000D4A002302E0D458C4500433C4188C4251
:1052E000F9D30A4A0A4C002301E013600432A242B7
:1052F000FBD310F0D9FFFEF767FEFEE700000120A8
:1053000000000020700400207C2C020870040020A3
:105310006CD70020FEE70000114A08B513680BB9EE
:10532000002008BD013B1360002BF9D14FF0B042C3
:105330004FF40061936D23F4800393654FF0904028
:1053400003F046F84FF090404FF4805103F040F8DE
:10535000044803F065FA0028E2D06FF00700E0E7A8
:10536000E0B7002038B800201FB54FF48054CDE9D5
:105370000134009201230A460146074803F06AFA05
:1053800040B1054803F0A2FC042814BF6FF00300ED
:105390006FF0650004B010BD38B800201FB54FF4A1
:1053A0008054CDE90134009201230A4601460748A2
:1053B00003F02AFB40B1054803F088FC042814BF21
:1053C0006FF003006FF0650004B010BD38B8002026
:1053D0000F4A08B513680BB9002008BD013B1360E4
:1053E000002BF9D14FF0B0420A48936D23F400032B
:1053F0009365012102F0ECFF0648022102F0E8FF6C
:10540000054803F00DFA0028E6D06FF00700E4E746
:10541000DCB7002000080048E4B7002008B50A46C1
:105420004FF480530146044803F0CCFB002814BF1E
:105430006FF00200002008BDE4B700201FB54FF454
:105440008054CDE90134009202230A460146074800
:1054500003F000FA40B1054803F038FC042814BFFB
:105460006FF003006FF0650004B010BDE4B70020DA
:105470001FB54FF48054CDE90134009202230A464F
:105480000146074803F0C0FA40B1054803F01EFC8E
:1054900004280CBF6FF003006FF0650004B010BD6E
:1054A000E4B70020FEF774BF134A144B70B5002612
:1054B000C0E900230123C0E90263C0E90466C0E932
:1054C00006660662044603F055F931460546204655
:1054D00003F0FEFB0543EDB2AD1B3146204618BF7D
:1054E000012503F01BFCB04218BF01254FF400104A
:1054F00003F03AFC284670BD00580040190B20000C
:105500002DE9F0432F4A304E304B33601368591C5D
:1055100097B011601BB1002017B0BDE8F083304692
:1055200003F0D1FB05460028F5D13422014609A835
:1055300010F061FE4FF0B0448023089308A84FF4A8
:1055400040230E9304F068F9E36C43F00103E36435
:10555000E36C03F001030293029B4FF012094FF436
:1055600000634FF00108042703A94FF09040CDE9F4
:105570000339CDE90585079702F07EFE4FF480538D
:1055800003A94FF09040CDE90339CDE90585079790
:1055900002F072FEA36D43F48003A365A36D03F4D0
:1055A000800301933046019BFFF77EFF014610B157
:1055B0006FF00700B0E7304603F08AFB0028AAD05E
:1055C000F6E700BFE0B7002038B8002000580040E0
:1055D000114A124B70B50026C0E900230123C0E92F
:1055E0000263C0E90466C0E906660662044603F089
:1055F000C1F831460546204603F06AFB0543EDB28B
:10560000AD1B3146204618BF012503F087FBB04291
:105610000CBF2846012070BD005C0040885D8010F2
:105620002DE9F0432E4A2F4E2F4B33601368591C3F
:1056300097B011601BB1002017B0BDE8F083304671
:1056400003F041FB05460028F5D13422014609A8A4
:1056500010F0D1FD4FF0B0444FF48073089308A8C8
:105660004FF440130F9304F0D7F8E36C1F4843F056
:105670000403E364E36C03F00403012702934FF097
:1056800012094FF0040803A9029BCDF81C80CDE954
:105690000379CDE9057502F0EFFD022303A9134854
:1056A000CDF81C80CDE90339CDE9057502F0E4FDA4
:1056B000A36D43F40003A365A36D03F400030193FA
:1056C0003046019BFFF784FF014610B16FF00700E1
:1056D000B2E7304603F0FCFA0028ACD0F6E700BF92
:1056E000DCB70020E4B70020005C00400008004860
:1056F00040F201124FF47A63C1E900230020102325
:10570000C1E90230024B0B614B6100238B61704792
:105710000058D04510B44469007BA44610BC6047D3
:1057200010B40469007BA44610BC604710B590F823
:105730003130012B044608D090F83310203000F0AF
:1057400061FE20B9012384F83130002010BD4FF0F4
:10575000FF30FBE770B590F831500C46012D06463E
:105760004649204647D1FBF7FDFC00282BD1444990
:105770002046FBF7F7FC00282FD142492046FBF7D3
:10578000F1FC60BB40492046FBF7ECFC48BB3F49BD
:105790002046FBF7E7FC30BB3D492046FBF7E2FC27
:1057A00018BB3C492046FBF7DDFC00BB3A492046CC
:1057B000FBF7D8FCE8B939492046FBF7D3FC0028B1
:1057C00014BF09250A25294606F1200000F01AFE1B
:1057D000003818BF0120404270BD0225F3E70325C1
:1057E000F1E70425EFE70525EDE70625EBE70725BB
:1057F000E9E70825E7E7FBF7B5FC00282ED12049AB
:105800002046FBF7AFFC58BB1E492046FBF7AAFC1D
:1058100040BB1D492046FBF7A5FC28BB1B49204681
:10582000FBF7A0FC10BB1A492046FBF79BFCF8B91C
:1058300018492046FBF796FCE0B917492046FBF7CC
:1058400091FCC8B915492046FBF78CFC002814BF11
:1058500009230A2386F833300020BDE70123F9E746
:105860000223F7E70323F5E70423F3E70523F1E732
:105870000623EFE70723EDE70823EBE700004841A5
:105880000000D041000050420000D04200005043D0
:105890000000D043004050440040D04400405045F8
:1058A000022908B50DDD04290DDD0829CCBF012131
:1058B0000321203000F0A2FB003818BF0120404235
:1058C00008BD0021F5E70221F3E710B590F832306A
:1058D000012B044608D090F83410203000F032FE3E
:1058E00020B9012384F83230002010BD4FF0FF3082
:1058F000FBE7000070B590F832500C46012D0646CB
:105900004649204647D1FBF72DFC00282BD14449BE
:105910002046FBF727FC00282FD142492046FBF701
:1059200021FC60BB40492046FBF71CFC48BB3F49BB
:105930002046FBF717FC30BB3D492046FBF712FC25
:1059400018BB3C492046FBF70DFC00BB3A492046FA
:10595000FBF708FCE8B939492046FBF703FC0028AF
:1059600014BF09250A25294606F1200000F0EAFDAA
:10597000003818BF0120404270BD0225F3E703251F
:10598000F1E70425EFE70525EDE70625EBE7072519
:10599000E9E70825E7E7FBF7E5FB00282ED12049DA
:1059A0002046FBF7DFFB58BB1E492046FBF7DAFB1E
:1059B00040BB1D492046FBF7D5FB28BB1B492046B1
:1059C000FBF7D0FB10BB1A492046FBF7CBFBF8B91D
:1059D00018492046FBF7C6FBE0B917492046FBF7FC
:1059E000C1FBC8B915492046FBF7BCFB002814BF12
:1059F00009230A2386F834300020BDE70123F9E7A4
:105A00000223F7E70323F5E70423F3E70523F1E790
:105A10000623EFE70723EDE70823EBE70000484103
:105A20000000D041000050420000D042000050432E
:105A30000000D043004050440040D0440040504556
:105A400070B500F1200405460121204600F0EBFB73
:105A500010B14FF0FF3070BD0121204600F02FFC47
:105A60000028F6D10121204600F012FC0028F0D1D8
:105A70000121204600F023FC0028EAD10121204624
:105A800000F07EFB01460028E3D1204600F02EFC0A
:105A900001460028DDD1042685F83360204600F059
:105AA000B1FC01460028D4D1204600F0A7FA0146F7
:105AB0000028CED185F83460204600F043FD002850
:105AC000C7D10C21204600F0F4FA0028C1D10123EF
:105AD00085F83030BFE77D2908B514DDFA2914DDDB
