:020000040800F2
:1000000000000120CD5F0008354F0008374F000881
:10001000394F00083B4F00083D4F0008000000002A
:100020000000000000000000000000003F4F00083A
:10003000414F000800000000434F0008454F0008F2
:100040001D6000081D600008494F00081D60000881
:100050001D6000081D6000081D6000081D6000088C
:10006000554F00081D6000085B4F00081D60000828
:100070001D6000081D6000081D600008614F000839
:100080001D6000081D6000081D6000081D6000085C
:100090001D6000081D6000086D4F00081D6000080D
:1000A0001D6000081D6000081D6000081D6000083C
:1000B000854F0008914F00081D6000081D60000872
:1000C0001D6000081D6000081D6000081D6000081C
:1000D0001D6000089D4F00081D6000081D6000089D
:1000E0001D6000081D600008A94F00081D60000881
:1000F0001D6000081D6000081D6000081D600008EC
:100100001D6000081D600008B54F00081D60000854
:100110001D6000081D6000081D6000081D600008CB
:100120001D6000081D6000081D6000081D600008BB
:080130001D6000081D600008BD
:1001400010B5054C237833B9044B13B10448AFF311
:1001500000800123237010BDD4B5002000000000F2
:100160005087010808B5034B1BB103490348AFF39F
:10017000008008BD00000000D8B5002050870108AD
:1001800001F0FF01102A2BDB10F0070F08D010F848
:10019000013B013A8B422DD010F0070F42B3F6D14C
:1001A000F0B441EA012141EA014122F007047FF065
:1001B00000070023F0E80256083C85EA010586EABC
:1001C000010685FA47F5A3FA87F586FA47F6A5FAF8
:1001D00087F68EB9EED1F0BC01F0FF0102F0070204
:1001E00032B110F8013B013A83EA010313B1F8D1AF
:1001F0000020704701387047002D06BF3546033890
:10020000073815F0010F07D1013015F4807F02BFC8
:10021000013015F4C03F0130F0BC0138704700BF19
:10022000034613F8012B002AFBD1181A0138704736
:1002300081F0004102E000BF83F0004330B54FEA97
:1002400041044FEA430594EA050F08BF90EA020F04
:100250001FBF54EA000C55EA020C7FEA645C7FEA97
:10026000655C00F0E2804FEA5454D4EB5555B8BFBA
:100270006D420CDD2C4480EA020281EA030382EA2B
:10028000000083EA010180EA020281EA0303362DBD
:1002900088BF30BD11F0004F4FEA01314FF4801C90
:1002A0004CEA113102D0404261EB410113F0004FA2
:1002B0004FEA03334CEA133302D0524263EB430359
:1002C00094EA050F00F0A780A4F10104D5F1200EF7
:1002D0000DDB02FA0EFC22FA05F2801841F1000152
:1002E00003FA0EF2801843FA05F359410EE0A5F126
:1002F00020050EF1200E012A03FA0EFC28BF4CF057
:10030000020C43FA05F3C01851EBE37101F000450C
:1003100007D54FF0000EDCF1000C7EEB00006EEB19
:100320000101B1F5801F1BD3B1F5001F0CD34908A3
:100330005FEA30004FEA3C0C04F101044FEA4452FA
:1003400012F5800F80F09A80BCF1004F08BF5FEA81
:10035000500C50F1000041EB045141EA050130BD61
:100360005FEA4C0C404141EB0101013C28BFB1F573
:10037000801FE9D291F0000F04BF01460020B1FABE
:1003800081F308BF2033A3F10B03B3F120020CDA91
:100390000C3208DD02F1140CC2F10C0201FA0CF06F
:1003A00021FA02F10CE002F11402D8BFC2F1200CD4
:1003B00001FA02F120FA0CFCDCBF41EA0C0190408A
:1003C000E41AA2BF01EB0451294330BD6FEA0404D3
:1003D0001F3C1CDA0C340EDC04F11404C4F12002BE
:1003E00020FA04F001FA02F340EA030021FA04F3D0
:1003F00045EA030130BDC4F10C04C4F1200220FA27
:1004000002F001FA04F340EA0300294630BD21FA64
:1004100004F0294630BD94F0000F83F4801306BF2A
:1004200081F480110134013D4EE77FEA645C18BF1E
:100430007FEA655C29D094EA050F08BF90EA020FB5
:1004400005D054EA000C04BF1946104630BD91EAAD
:10045000030F1EBF0021002030BD5FEA545C05D1B0
:100460004000494128BF41F0004130BD14F58004EF
:100470003CBF01F5801130BD01F0004545F0FE4163
:1004800041F470014FF0000030BD7FEA645C1ABF98
:10049000194610467FEA655C1CBF0B46024650EACF
:1004A000013406BF52EA033591EA030F41F40021FB
:1004B00030BD00BF90F0000F04BF0021704730B581
:1004C0004FF4806404F132044FF000054FF0000156
:1004D00050E700BF90F0000F04BF0021704730B517
:1004E0004FF4806404F1320410F0004548BF4042EC
:1004F0004FF000013EE700BF42004FEAE2014FEA41
:1005000031014FEA02701FBF12F07F4393F07F4F1B
:1005100081F06051704732F07F4208BF704793F01E
:100520007F4F04BF41F40021704730B54FF4607431
:1005300001F0004521F000411CE700BF50EA010234
:1005400008BF704730B54FF000050AE050EA0102DD
:1005500008BF704730B511F0004502D5404261EB4D
:1005600041014FF4806404F132045FEA915C3FF48E
:10057000D8AE4FF003025FEADC0C18BF03325FEA2B
:10058000DC0C18BF033202EBDC02C2F1200300FADC
:1005900003FC20FA02F001FA03FE40EA0E0021FA01
:1005A00002F11444BDE600BF70B54FF0FF0C4CF4EF
:1005B000E06C1CEA11541DBF1CEA135594EA0C0FA1
:1005C00095EA0C0F00F0DEF82C4481EA030621EADC
:1005D0004C5123EA4C5350EA013518BF52EA033517
:1005E00041F4801143F4801338D0A0FB02CE4FF0C9
:1005F0000005E1FB02E506F00042E0FB03E54FF0F9
:100600000006E1FB03569CF0000F18BF4EF0010EF0
:10061000A4F1FF04B6F5007F64F5407404D25FEAEC
:100620004E0E6D4146EB060642EAC62141EA55519F
:100630004FEAC52040EA5E504FEACE2EB4F1FD0CE1
:1006400088BFBCF5E06F1ED8BEF1004F08BF5FEA5F
:10065000500E50F1000041EB045170BD06F0004611
:1006600046EA010140EA020081EA0301B4EB5C04BE
:10067000C2BFD4EB0C0541EA045170BD41F48011B6
:100680004FF0000E013C00F3AB8014F1360FDEBFDB
:10069000002001F0004170BDC4F10004203C35DAB7
:1006A0000C341BDC04F11404C4F1200500FA05F33A
:1006B00020FA04F001FA05F240EA020001F00042DB
:1006C00021F0004110EBD37021FA04F642EB060151
:1006D0005EEA430E08BF20EAD37070BDC4F10C047B
:1006E000C4F1200500FA04F320FA05F001FA04F23F
:1006F00040EA020001F0004110EBD37041F100012B
:100700005EEA430E08BF20EAD37070BDC4F1200535
:1007100000FA05F24EEA020E20FA04F301FA05F29D
:1007200043EA020321FA04F001F0004121FA04F245
:1007300020EA020000EBD3705EEA430E08BF20EA15
:10074000D37070BD94F0000F0FD101F0004640004F
:1007500041EB010111F4801F08BF013CF7D041EAD1
:10076000060195F0000F18BF704703F000465200D5
:1007700043EB030313F4801F08BF013DF7D043EAA6
:100780000603704794EA0C0F0CEA135518BF95EA5C
:100790000C0F0CD050EA410618BF52EA4306D1D1E3
:1007A00081EA030101F000414FF0000070BD50EA02
:1007B000410606BF1046194652EA430619D094EA8C
:1007C0000C0F02D150EA013613D195EA0C0F05D176
:1007D00052EA03361CBF104619460AD181EA0301CA
:1007E00001F0004141F0FE4141F470014FF0000082
:1007F00070BD41F0FE4141F4780170BD70B54FF01D
:10080000FF0C4CF4E06C1CEA11541DBF1CEA13559C
:1008100094EA0C0F95EA0C0F00F0A7F8A4EB05047E
:1008200081EA030E52EA03354FEA013100F0888075
:100830004FEA03334FF0805545EA131343EA12633E
:100840004FEA022245EA111545EA10654FEA0026F3
:100850000EF000419D4208BF964244F1FD0404F5AC
:10086000407402D25B084FEA3202B61A65EB030508
:100870005B084FEA32024FF480104FF4002CB6EBC5
:10088000020E75EB030E22BFB61A754640EA0C0045
:100890005B084FEA3202B6EB020E75EB030E22BF85
:1008A000B61A754640EA5C005B084FEA3202B6EBC6
:1008B000020E75EB030E22BFB61A754640EA9C0085
:1008C0005B084FEA3202B6EB020E75EB030E22BF55
:1008D000B61A754640EADC0055EA060E18D04FEA13
:1008E000051545EA16754FEA06164FEAC30343EAB3
:1008F00052734FEAC2025FEA1C1CC0D111F4801F80
:100900000BD141EA00014FF000004FF0004CB6E778
:1009100011F4801F04BF01430020B4F1FD0C88BF17
:10092000BCF5E06F3FF6AFAEB5EB030C04BFB6EB22
:10093000020C5FEA500C50F1000041EB045170BD15
:100940000EF0004E4EEA113114EB5C04C2BFD4EB42
:100950000C0541EA045170BD41F480114FF0000EC6
:10096000013C90E645EA060E8DE60CEA135594EA42
:100970000C0F08BF95EA0C0F3FF43BAF94EA0C0F45
:100980000AD150EA01347FF434AF95EA0C0F7FF4BA
:1009900025AF104619462CE795EA0C0F06D152EA0E
:1009A00003353FF4FDAE1046194622E750EA4106F2
:1009B00018BF52EA43067FF4C5AE50EA41047FF403
:1009C0000DAF52EA43057FF4EBAE12E74FF0FF3C68
:1009D00006E000BF4FF0010C02E000BF4FF0010C39
:1009E0004DF804CD4FEA410C7FEA6C5C4FEA430CB2
:1009F00018BF7FEA6C5C1BD001B050EA410C0CBF01
:100A000052EA430C91EA030F02BF90EA020F002062
:100A1000704710F1000F91EA030F58BF994208BFC9
:100A200090422CBFD8176FEAE37040F00100704786
:100A30004FEA410C7FEA6C5C02D150EA013C07D1DD
:100A40004FEA430C7FEA6C5CD6D152EA033CD3D028
:100A50005DF8040B704700BF8446104662468C4622
:100A60001946634600E000BF01B5FFF7B7FF002855
:100A700048BF10F1000F01BD4DF808EDFFF7F4FF7E
:100A80000CBF012000205DF808FB00BF4DF808ED09
:100A9000FFF7EAFF34BF012000205DF808FB00BF2C
:100AA0004DF808EDFFF7E0FF94BF012000205DF84E
:100AB00008FB00BF4DF808EDFFF7CEFF94BF012003
:100AC00000205DF808FB00BF4DF808EDFFF7C4FFFC
:100AD00034BF012000205DF808FB00BF4FEA410C45
:100AE0007FEA6C5C02D150EA013C0AD14FEA430C28
:100AF0007FEA6C5C02D152EA033C02D14FF0000065
:100B000070474FF0010070474FEA410212F50012A2
:100B100015D211D56FF47873B3EB625212D94FEA44
:100B2000C12343F0004343EA505311F0004F23FA2E
:100B300002F018BF404270474FF00000704750EA83
:100B4000013005D111F0004008BF6FF00040704740
:100B50004FF00000704700BF4FEA4102B2F1E0439E
:100B600024BFB3F5001CDCF1FE5C0DD901F0004C94
:100B70004FEAC0024CEA5070B2F1004F40EB8300E4
:100B800008BF20F00100704711F0804F21D113F110
:100B90003872BCBF01F00040704741F480114FEA49
:100BA0005252C2F11802C2F1200C10FA0CF320FAD2
:100BB00002F018BF40F001004FEAC1234FEAD323EF
:100BC00003FA0CFC40EA0C0023FA02F34FEA430359
:100BD000CCE77FEA625307D150EA01331EBF4FF0E2
:100BE000FE4040F44000704701F0004040F0FE40FD
:100BF00040F40000704700BF80F0004002E000BFFA
:100C000081F0004142001FBF5FEA410392EA030FF7
:100C10007FEA226C7FEA236C6AD04FEA1262D2EB41
:100C20001363C1BFD218414048404140B8BF5B4246
:100C3000192B88BF704710F0004F40F4000020F0DF
:100C40007F4018BF404211F0004F41F4000121F0F5
:100C50007F4118BF494292EA030F3FD0A2F101023F
:100C600041FA03FC10EB0C00C3F1200301FA03F17D
:100C700000F0004302D5494260EB4000B0F5000FA0
:100C800013D3B0F1807F06D340084FEA310102F15F
:100C90000102FE2A51D2B1F1004F40EBC25008BF11
:100CA00020F0010040EA03007047490040EB0000DB
:100CB000013A28BFB0F5000FEDD2B0FA80FCACF1DC
:100CC000080CB2EB0C0200FA0CF0AABF00EBC25009
:100CD00052421843BCBFD0401843704792F0000FF7
:100CE00081F4000106BF80F400000132013BB5E74A
:100CF0004FEA41037FEA226C18BF7FEA236C21D0C0
:100D000092EA030F04D092F0000F08BF0846704724
:100D100090EA010F1CBF0020704712F07F4F04D1F2
:100D2000400028BF40F00040704712F100723CBF05
:100D300000F50000704700F0004343F0FE4040F42F
:100D4000000070477FEA226216BF08467FEA2363ED
:100D50000146420206BF5FEA412390EA010F40F4D8
:100D6000800070474FF0000304E000BF10F0004324
:100D700048BF40425FEA000C08BF704743F096430B
:100D800001464FF000001CE050EA010208BF704726
:100D90004FF000030AE000BF50EA010208BF7047AD
:100DA00011F0004302D5404261EB41015FEA010CC2
:100DB00002BF84460146002043F0B64308BFA3F1BA
:100DC0008053A3F50003BCFA8CF2083AA3EBC2539C
:100DD00010DB01FA02FC634400FA02FCC2F12002BB
:100DE000BCF1004F20FA02F243EB020008BF20F0F2
:100DF0000100704702F1200201FA02FCC2F1200258
:100E000050EA4C0021FA02F243EB020008BF20EA4C
:100E1000DC7070474FF0FF0C1CEAD0521EBF1CEA7A
:100E2000D15392EA0C0F93EA0C0F6FD01A4480EA68
:100E3000010C400218BF5FEA41211ED04FF0006351
:100E400043EA501043EA5111A0FB01310CF000407D
:100E5000B1F5000F3EBF490041EAD3715B0040EAA3
:100E6000010062F17F02FD2A1DD8B3F1004F40EB73
:100E7000C25008BF20F00100704790F0000F0CF046
:100E8000004C08BF49024CEA502040EA51207F3A0A
:100E9000C2BFD2F1FF0340EAC250704740F40000E5
:100EA0004FF00003013A5DDC12F1190FDCBF00F0D6
:100EB00000407047C2F10002410021FA02F1C2F184
:100EC000200200FA02FC5FEA310040F1000053EA20
:100ED0004C0308BF20EADC70704792F0000F00F06E
:100EE000004C02BF400010F4000F013AF9D040EA74
:100EF0000C0093F0000F01F0004C02BF490011F408
:100F0000000F013BF9D041EA0C018FE70CEAD15305
:100F100092EA0C0F18BF93EA0C0F0AD030F0004C85
:100F200018BF31F0004CD8D180EA010000F0004039
:100F3000704790F0000F17BF90F0004F084691F0F7
:100F4000000F91F0004F14D092EA0C0F01D1420231
:100F50000FD193EA0C0F03D14B0218BF084608D1FA
:100F600080EA010000F0004040F0FE4040F4000044
:100F7000704740F0FE4040F4400070474FF0FF0CD7
:100F80001CEAD0521EBF1CEAD15392EA0C0F93EA1E
:100F90000C0F69D0A2EB030280EA010C49024FEA70
:100FA000402037D04FF0805343EA111143EA101329
:100FB0000CF000408B4238BF5B0042F17D024FF4E1
:100FC000000C8B4224BF5B1A40EA0C00B3EB510FBC
:100FD00024BFA3EB510340EA5C00B3EB910F24BFA5
:100FE000A3EB910340EA9C00B3EBD10F24BFA3EB2A
:100FF000D10340EADC001B0118BF5FEA1C1CE0D1F2
:10100000FD2A3FF650AF8B4240EBC25008BF20F0A4
:10101000010070470CF0004C4CEA50207F32C2BFF8
:10102000D2F1FF0340EAC250704740F400004FF095
:101030000003013A37E792F0000F00F0004C02BFC6
:10104000400010F4000F013AF9D040EA0C0093F090
:10105000000F01F0004C02BF490011F4000F013BEA
:10106000F9D041EA0C0195E70CEAD15392EA0C0F52
:1010700008D142027FF47DAF93EA0C0F7FF470AF8A
:10108000084676E793EA0C0F04D14B023FF44CAFCD
:1010900008466EE730F0004C18BF31F0004CCAD162
:1010A00030F000427FF45CAF31F000437FF43CAF9E
:1010B0005FE700BF4FF0FF3C06E000BF4FF0010CC0
:1010C00002E000BF4FF0010C4DF804CD4FEA4002A2
:1010D0004FEA41037FEA226C18BF7FEA236C11D0EC
:1010E00001B052EA530C18BF90EA010F58BFB2EB9F
:1010F000030088BFC81738BF6FEAE17018BF40F01F
:10110000010070477FEA226C02D15FEA402C05D1D2
:101110007FEA236CE4D15FEA412CE1D05DF8040B57
:10112000704700BF844608466146FFE70FB5FFF7EA
:10113000C9FF002848BF10F1000F0FBD4DF808EDA2
:10114000FFF7F4FF0CBF012000205DF808FB00BF93
:101150004DF808EDFFF7EAFF34BF012000205DF8ED
:1011600008FB00BF4DF808EDFFF7E0FF94BF01203A
:1011700000205DF808FB00BF4DF808EDFFF7D2FF37
:1011800094BF012000205DF808FB00BF4DF808ED7A
:10119000FFF7C8FF34BF012000205DF808FB00BF47
:1011A0004FEA40024FEA41037FEA226C02D15FEA34
:1011B000402C08D17FEA236C02D15FEA412C02D196
:1011C0004FF0000070474FF0010070474FEA4002B7
:1011D000B2F1FE4F0FD34FF09E03B3EB12620DD965
:1011E0004FEA002343F0004310F0004F23FA02F0CF
:1011F00018BF404270474FF00000704712F1610F76
:1012000001D1420205D110F0004008BF6FF000404C
:1012100070474FF00000704742000ED2B2F1FE4F0F
:101220000BD34FF09E03B3EB126209D44FEA0023B5
:1012300043F0004323FA02F070474FF0000070477C
:1012400012F1610F01D1420202D14FF0FF3070471D
:101250004FF00000704700BF53B94AB9002908BFDA
:1012600000281CBF4FF0FF314FF0FF3000F06AB98B
:10127000ADF1080C6DE904CE00F006F8DDF804E0ED
:10128000DDE9022304B070472DE9F047089D0C46C4
:10129000002B4ED194468C458646B2FA82F262D932
:1012A0004AB1C2F12003914020FA03F30CFA02FC88
:1012B000194300FA02FE4FEA1C471FFA8CF6B1FBF5
:1012C000F7F44FEA1E4307FB141143EA014304FB02
:1012D00006F199420AD91CEB030304F1FF3080F0B8
:1012E0001281994240F20F81023C6344591A1FFA5D
:1012F0008EF3B1FBF7F007FB101143EA014300FB4B
:1013000006F69E420AD91CEB030300F1FF3180F080
:10131000FC809E4240F2F980634402389B1B40EA05
:10132000044000211DB1D3400022C5E90032BDE8D0
:10133000F0878B4205D90DB1C5E9000100210846AF
:10134000F5E7B3FA83F1002946D1A34202D39042D4
:10135000C0F0F080861A64EB03030120002DE6D074
:10136000C5E90063E3E7002A40F09080A1EB0C049C
:101370004FEA1C481FFA8CF70121B4FBF8F64FEA3C
:101380001E4308FB164443EA044307FB06F0984259
:1013900008D91CEB030306F1FF3402D2984200F295
:1013A000CD8026461C1A1FFA8EF3B4FBF8F008FB1A
:1013B000104443EA044300FB07F79F4208D91CEBA3
:1013C000030300F1FF3402D29F4200F2B0802046B6
:1013D000DB1B40EA0640A5E7C1F120068B4022FA5C
:1013E00006F71F4320FA06FC04FA01F343EA0C0354
:1013F000F44000FA01F8380C4FEA1349B4FBF0FE50
:101400001FFA87FC00FB1E4449EA04440EFB0CF95A
:10141000A14502FA01F20AD93C190EF1FF3A80F017
:101420008480A14540F28180AEF1020E3C44A4EBE1
:1014300009041FFA83F9B4FBF0F300FB134449EAF3
:10144000044403FB0CFCA44507D93C1903F1FF300D
:1014500067D2A44565D9023B3C4443EA0E40A0FB59
:101460000293A4EB0C049C42CE469C4651D34ED032
:1014700055B1B8EB0E0364EB0C0404FA06F6CB404E
:101480001E43CC40C5E90064002150E7C2F12003AF
:1014900020FA03F10CFA02FC24FA03F394400C4303
:1014A0004FEA1C4800FA02FE1FFA8CF7B3FBF8F073
:1014B00008FB1031230C43EA014300FB07F199427A
:1014C00008D91CEB030300F1FF362CD299422AD92C
:1014D000023863445B1AA4B2B3FBF8F108FB113382
:1014E00044EA034401FB07F3A34208D91CEB0404BC
:1014F00001F1FF3613D2A34211D902396444E41A30
:1015000041EA004139E70446F0E6084606E7C845E7
:10151000AED2B9EB020E63EB070C0138A8E73146F7
:10152000EDE7034699E73046D4E7D6467FE76344C4
:1015300002384DE70646234608460FE7023E63445D
:1015400030E700BF704700BF0121402012F0F8BE15
:10155000F8B5154E154C338801339BB2B3F57A7F3D
:10156000338004D9E388A3800123E38033800025FE
:101570002F462278EBB29A4200D8F8BD637002334E
:1015800054F823309A8801329A803288B2F57A7FF3
:1015900024BFDA885A801A6928BFDF8012B11B7A0B
:1015A00003B190470135E4E7F2B50020F4B500201F
:1015B00073B500242246224B009441F28831214821
:1015C000214E13F03BF82246204B009440F6B831F0
:1015D0001F4813F033F8224621461E4B022012F01A
:1015E0009DFD00F07CFD00F0D7FD1B491B4A1C4B04
:1015F000126E01254D63284691F8301000F082FAF2
:1016000001F016F9174B00942A464FF4FA61304660
:1016100013F014F8304613F0BDF8134A2146402069
:1016200012F058FF2946402012F08AFE0F4B224646
:101630002146022002B0BDE8704012F06FBD00BF2D
:10164000A920000854B6002024B60020E520000898
:101650003CB60020D987010838B8002008B900201E
:1016600081210008F145000849150008FA870108A2
:101670000B4B0C4A196812780A441A601B68033332
:101680000CD9BFF34F8F0849084BCA6802F4E062D7
:101690001343CB60BFF34F8F00BFFDE7FFF758BF89
:1016A00004D7002070B3002000ED00E00400FA052C
:1016B00003680B4A934201D101F07EB9094A934273
:1016C0000DD1094A138801339BB2B3F57A7F138099
:1016D00005D3064BD98B59830021D98311807047DC
:1016E0000048014000440140F0B5002038B200201D
:1016F000042802D0102802D0704702F0C9BF00F0C1
:10170000EFBC00002DE9F043012891B005460E46DC
:1017100040F0948000230A93D5238DF82C304A4B57
:1017200008934A4B4A4C09934A4B0D934A4B0C93EE
:1017300008A94A4B0E93204605F09EF928B14FF0B8
:10174000FF39484611B0BDE8F0830DF10301204692
:1017500004F06BFF0028F2D19DF803306B2BEED123
:1017600001A9204604F04EFD9DF806309DF80410B6
:101770009DF80520DFF8E8803A4FC8F804409B0048
:1017800043EA4103384913434B60F007374B7B6012
:1017900009D5012A07D1364A36491B68D16020464F
:1017A00098470028CBD1B10726D47207C7D47B68ED
:1017B000D8F80400DB6808A998478146002840D182
:1017C0009DF82040631E5C425C419DF82130012B56
:1017D0009DF822304FEA440408BF44F00104012B75
:1017E00008BF44F00404032735EA060313D0013F81
:1017F0004FEA4505F8D1A4E79DF80430012BD4D178
:101800001B4B1D4A1A617B68D8F804001B68984777
:101810000028CAD093E735EA0403E8D1174B144AED
:1018200053F82530D8F80400033352F823301B68EE
:1018300098470028DBD06FF0040982E76FF00109B8
:101840007FE76FF006097CE735610008216000083A
:101850006CB60020A560000871600008D96000081F
:10186000CCB60020ACB60020A4B6002038B30020CF
:10187000B4B60020F0B2002014B300201C88010888
:1018800001280B4610B5114619D80E4A52F82020EF
:1018900003EA0204934312D10B4A52F8242000EBCE
:1018A00040031344094A52F82330094A1B6A52F88C
:1018B00020009847002818BF6FF0040010BD6FF09B
:1018C0000100FBE7A4B600201C880108B4B6002084
:1018D000CCB60020012808B508D1064B586805F0A1
:1018E000B0F8002818BF6FF0040008BD6FF00100C9
:1018F000FBE700BFCCB60020012808B508D1064B95
:10190000586805F0A8F8002818BF6FF0040008BD5B
:101910006FF00100FBE700BFCCB600202DE9F043DB
:101920000F4691B0002878D17F238DF82C303E4BA4
:1019300008933E4B3E4C09933E4B0D933E4B0A9011
:101940000C9308A93D4B0E93204605F06DFD28B180
:101950004FF0FF34204611B0BDE8F0830DF10701D0
:10196000204605F0E3FC0028F2D19DF80730A02BBB
:10197000EED102A9204605F02DFC314B9DF8082040
:10198000DFF8C080304D1A60F907304BC8F80040CE
:101990002B6009D5012A07D12D4A2E491B681160F9
:1019A000204698470028D3D12B68D8F80000DB6880
:1019B00008A99847044698BB9DF820506B1E5D42CD
:1019C0005D419DF82130012B9DF8223008BF45F084
:1019D0000205012B08BF45F004054FF0020901265E
:1019E00036EA070307D0B9F1010F4FEA4606B1D036
:1019F0004FF00109F4E736EA0503F4D1164BD8F8A5
:101A0000000053F82620124B53F822301B689847E9
:101A10000028E8D06FF004049CE76FF0010499E718
:101A20006FF0060496E700BF3561000821600008EA
:101A3000D4B60020A560000871600008D9600008D5
:101A40000CB700202CB7002014B700205CB3002096
:101A50001CB7002048B3002030880108012808B5D1
:101A600018D80E4B53F8203001EA0302994311D1E4
:101A70000B4B53F822300B4A03EB400352F8233050
:101A8000094A1B6852F820009847002818BF6FF0D9
:101A9000040008BD6FF00100FBE700BF0CB7002099
:101AA000308801081CB700202CB70020BFF34F8FEF
:101AB0000549064BCA6802F4E0621343CB60BFF3EA
:101AC0004F8F00BFFDE700BF00ED00E00400FA0506
:101AD00038B504460D4614F049F8291B013190FB36
:101AE000F1F303FB1100044414F040F8054603F041
:101AF0005BFB023005EB5000A4B214F009F820465D
:101B000038BD00002DE9F341884615461E460746BC
:101B100005F0FEFD254CC4F8E00005F0FFFDC4F81B
:101B2000E40005F001FED4E938325340C4F8E8007F
:101B3000584013F0EDFF002F1D4AC4F8F4600CBFAD
:101B40000123022313701B4A84F8DA7013701A4AB7
:101B50001A4BA4F8D88008BF134605F57A75002201
:101B6000C4F8EC50114600930220154B12F0D6FA3F
:101B7000144B1B7873B194F8DA30ABB9D4F8EC306D
:101B8000D4F8F02013600022009311460E4B02207F
:101B900012F0C4FA4FF47A716420FFF799FF02B093
:101BA000BDE8F04103F008BB0023E9E738B70020A7
:101BB000A4000020A50000204488010848880108EE
:101BC0004D88010834B700207988010810B50A4C07
:101BD0002378012B094B04BF44F620621A601B686E
:101BE0003BB9A0604EF660213220FFF771FFA36879
:101BF0000344A36010BD00BF38B70020A000002040
:101C000007B50B4B9B684EF66021B3FBF1F201FB6D
:101C100012334FF47A71B3FBF1F3CDE900230022C4
:101C2000044B1146022012F079FA03B05DF804FB70
:101C300038B70020A4880108074B10B5D3F8DC4062
:101C40003CB9064B22462146022012F067FA204694
:101C500010BD0120FCE700BF38B70020DF88010875
:101C6000034B91F909205A80022283F8F92070472A
:101C700038B7002030B5124B93F8D6400E2C1ED842
:101C8000651C83F8D650105593F8D600441C83F891
:101C9000D6400C0E145493F8D600441C83F8D6405A
:101CA0000C14145493F8D600441C83F8D6400C123C
:101CB000145493F8D600441C83F8D640115430BD18
:101CC00038B7002010B501231078984200D210BD1B
:101CD000C818D45C00F8014C0133DBB2F4E7000013
:101CE00037B5304D304CB5F90230626A9A4207D0B0
:101CF0002046042240F8243F4FF4816100F0EEF9C1
:101D000095F8F930D4F8C4209A4207D02748C4F88F
:101D1000C43004224FF4956100F0E0F995F8FA30F0
:101D2000D4F8C8209A4207D02148C4F8C830042209
:101D300040F2AC4100F0D2F9D5F8F03000221B6837
:101D4000009311461B4B022012F0E8F9AB79009387
:101D500000221146184B022012F0E0F9B4F92430A9
:101D6000009300221146154B022012F0D7F9D4F847
:101D7000C420134B142505FB0233002200931146A7
:101D8000104B022012F0CAF9D4F8C8200E4B05FB04
:101D900002330022009311460C4B022012F0BEF9D0
:101DA00003B030BD38B7002038B80020FCB80020A0
:101DB00000B90020FD88010827890108468901082B
:101DC000500000206289010800000020838901087A
:101DD00037B50546FFF730FF00283FD0204CB5B996
:101DE000022384F8F93042F21073A360A571D4F88D
:101DF000DC0012F081FCA168D4F8DC0012F004FDD4
:101E0000D4F8DC0003B0BDE8304012F0C3BC637905
:101E10000133DBB200226371114600930220114BA3
:101E200012F07CF963790E2B4FF0000510D9B4F84D
:101E3000D8300D4865715843FFF7C8FE012384F878
:101E4000F93084F8FA30FFF74BFFFFF7D9FECEE701
:101E500049F64040FFF7BAFE2B46F0E703B030BD2D
:101E600038B70020A489010880EE360073B55B4CBA
:101E70005B4AD4F8F030C4F8DC101968914205468A
:101E800008D900201860574B1B78012B5AD1D4F881
:101E9000F430984794F8F8202B78A12A40F08680F7
:101EA000002B00F09780032684F8F9606D7A002DEE
:101EB0004DD123790133DBB223712A4600932946A1
:101EC000494B022012F02AF923796580092B84F806
:101ED000FA6039D9434B25711B780226012B84F80F
:101EE000F96023D1D4E93B2329461A6030463F4BA1
:101EF0002A4612F013F9B4F8D8303D48A57158437A
:101F0000FFF764FEFFF7ECFEFFF77AFED4F8DC0083
:101F100012F0F2FBA168D4F8DC0012F075FCD4F8E2
:101F2000DC0012F037FCA06802B070BDFFF7D8FEED
:101F3000304B2A462946304612F0F0F84FF47A70BA
:101F400003F03AF9FFF7B2FD49F64040D8E7002523
:101F5000294B25712A462946022012F0DFF8A37981
:101F6000217B0133DBB20222994284F8FA20A3716B
:101F70000FD942F21073A3601A4B1B78012BC1D109
:101F8000D4F8F0301868C4F8EC00D4F8F43098476E
:101F9000B8E7012384F8FA301548B4F8D83084F84B
:101FA000F9205843A571FFF711FEE5E793B10D4BFA
:101FB0001B78012B04BFD4F8EC30EB600022A12386
:101FC00084F8F83011460D4B022012F0A7F8FFF705
:101FD00017FEA8E7002384F8F830A4E738B70020FC
:101FE000EED8FFFFA4000020C6890108E789010898
:101FF00080EE36000F8A0108398A01085F8A0108DD
:10200000F8B5274C012384F8D630264B5A6B1B6B4E
:10201000A4F8D830A37984F8DA200327012B0546E9
:102020000E4627731FD0022B2CD00BB10023A371B7
:1020300094F8F830A279A12B14BF0023032384F86D
:10204000F93094F8D630142101FB0242013BDBB297
:1020500093733370A07901FB00420E322946BDE82C
:10206000F840FFF72FBE04F1220202200021FFF703
:1020700001FEA279142303FB02420E323846FFF719
:10208000F9FDD5E704F1360204200021FFF7F2FD47
:10209000A279142303FB02420E320420EFE700BFB3
:1020A00038B7002038B8002010B5094C237873B138
:1020B000084812F021FB08480022202106F088FC85
:1020C00005480022802106F083FC0023237010BD08
:1020D00034B8002054B60020000400487047704710
:1020E00070470000002208B511460A4B022012F08A
:1020F00015F84FF4FA7003F05FF8BFF34F8F0649FD
:10210000064BCA6802F4E0621343CB60BFF34F8F03
:1021100000BFFDE77D8A010800ED00E00400FA053C
:1021200010B5144C20460FF04DFF04F1240100209F
:102130000FF0A8FE04F1140101200FF0A3FE04F13A
:10214000340109200FF09EFE04F1440108200FF035
:1021500099FE00221146084B022011F0DFFF0FF01C
:10216000CFFF0022BDE81040044B1146022011F0C1
:10217000D5BF00BF14B900209A8A0108C88A010897
:10218000044B43F8600F04224FF494711846FFF794
:10219000A5BF00BF08B90020034B012283F8DA2055
:1021A00000221A70FFF7BCBF38B700201749184B40
:1021B00090221A770A69097DB1B1082A12D008DC89
:1021C000022A0AD0042A0BD0002217210120FFF78F
:1021D00093BB102AF8D1042200E000221A76F3E71C
:1021E0000822FBE70C22F9E7082A0DD005DC022AB9
:1021F00008D0042A05D00122E7E7102AFBD10622E5
:1022000000E00A221A76F6E70E22FBE720060020FD
:10221000042200202DE9F8435A4D5B4CAE686378E8
:10222000B6F5806F30D2002B2CD0584F5849F86843
:10223000FEF7A4FEFEF760F902460B46D4E90C0156
:10224000FDF7FCFFC4E90C0151493869FEF796FE21
:10225000FEF752F902460B46D4E90E01FDF7EEFFF8
:10226000C4E90E014A497869FEF788FEFEF744F991
:1022700002460B46D4E91001FDF7E0FFC4E9100166
:102280000136AE60BDE8F883002BFBD0D4E90C0129
:10229000404B0022FEF788F93E4BC4E912010022B0
:1022A000D4E90E01FEF780F93A4BC4E9140100228B
:1022B000D4E91001FEF778F90222C4E916011621CB
:1022C0000120FFF719FB082215210120FFF714FB5D
:1022D000D4E91889D4E9120142464B46FEF78EFA3A
:1022E000FEF712FC46B242464B46D4E9140184F88C
:1022F0006860FEF783FAFEF707FC4B46424684F817
:102300006900D4E91601FEF779FAFEF7FDFBF2B297
:1023100084F86A0073210120FFF7EEFA94F869202F
:1023200074210120FFF7E8FA94F86A207521012052
:10233000FFF7E2FA7A225C210120FFF7DDFA134B66
:102340005B211A780120FFF7D7FA002256210120DD
:10235000FFF7D2FAC02258210120FFF7CDFAE02280
:102360005E210120FFF7C8FA0023AB6063700123F0
:10237000A3706B7C002B85D1BDE8F843064808F0BC
:1023800031BA00BF38B2002020060020042200200D
:1023900000007A440000503FA0D2002038B5284BFE
:1023A0001B69082B3BD004DC022B15D0042B25D055
:1023B00038BD102BFCD1234D234CB5F9000004F09F
:1023C000BBFBE060B5F9020004F0B6FB2061B5F993
:1023D000040004F0B1FB0FE01A4D1B4CB5F90000EE
:1023E00004F08CFBE060B5F9020004F087FB20618B
:1023F000B5F9040004F082FB6061D9E7114D124C7D
:10240000B5F9000004F084FBE060B5F9020004F0C7
:102410007FFB2061B5F9040004F07AFBECE7094D7D
:10242000094CB5F9000004F07DFBE060B5F902004D
:1024300004F078FB2061B5F9040004F073FBDBE7DE
:102440002006002038220020042200200000000086
:102450002DE9F843984E994CB568E378B5F5806F4F
:1024600028D22BB3D4F88830032B79DC944FF96849
:102470000846FEF7CFFC0146E06FFEF7C3FB396963
:10248000E0670846FEF7C6FC0146D4F88000FEF778
:10249000B9FB7969C4F880000846FEF7BBFC014629
:1024A000D4F88400FEF7AEFB0135C4F88400B560B3
:1024B000BDE8F883002BFBD0D4F88830032B4FDC29
:1024C0004FF06A51E06FFEF7A5FC16F007F84FF0E9
:1024D0006A5105462067D4F88000FEF79BFC15F092
:1024E000FDFF4FF06A5180466067D4F88400FEF724
:1024F00091FC15F0F3FF41460746284616F008F810
:102500000146384616F004F86E490546FEF734FEDB
:10251000002840F0B8806C492846FEF72DFE0028C0
:1025200040F0B38069492846FEF726FE002814BF14
:10253000042302232361A767C4F88C50FFF736FEFB
:102540005F4B1A7E1B7F10211A430120FFF7D4F93D
:10255000D4F888300133C4F88830E378002BA7D052
:10256000D4F88830042BA3D1A068FDF7C5FF4AA397
:10257000D3E90023FEF718F849A3D3E90023FEF7B7
:1025800013F88046894660685149FEF7F7FCFDF76D
:10259000B3FF42464B46FEF707F8FEF7DDFA054665
:1025A000A0612069FEF7E2FB01464FF08740FEF78D
:1025B000E5FC484907462846FEF72CFC014638460C
:1025C000FEF728FC38A3D3E90023054649464046D8
:1025D000FDF7EAFFFEF7C0FA13F0FEF901462846C0
:1025E000FEF718FCFDF788FF31A3D3E90023FEF7BF
:1025F00005F9FEF7B1FA4FF07E510546FEF7B2FD40
:10260000002844D134492846FEF7B6FD002840D1C1
:102610002846FEF701FE40F04003DBB2284F7A2245
:102620003B705C2100230120C4F88430C4F8803062
:10263000E367C4F88C30A367636723677D60FFF7A7
:102640005BF93A785B210120FFF756F90022562109
:102650000120FFF751F9C02258210120FFF74CF962
:10266000E0225E210120FFF747F90023B360E37009
:10267000C4F88830737C002B7FF41AAFBDE8F843B0
:10268000164808F0AFB8102354E7082352E7412357
:10269000C4E77F23C2E700BF0492B06F2711913FC8
:1026A00000000060FB211940000000C0E9A8233FA2
:1026B00005A3923A019D334038B200202006002045
:1026C00004220020002032450040CE4400803B44DC
:1026D00000007A44F304B53F00007C42A0D2002001
:1026E0002DE9F0473A4DDFF8ECA0DFF8EC9000243C
:1026F0004FF07E582046FEF739FB5146FEF78AFB25
:102700004946FEF73BFC13F0B3F901464046FEF79D
:1027100077FA4FF07C51FEF77DFB05F580470646C2
:102720000146B868FEF776FBB86005F500573146FC
:10273000B868FEF76FFBB860A8683146FEF76AFB21
:102740000134B4F5806F45F8080FD3D123492448EC
:10275000244F12F0F7FF2449214812F0F3FF2349D8
:102760001F4812F0EFFF22492246A1F5005013F056
:102770006FF820492246A1F5A04013F069F81E49E0
:102780002246A1F5004013F063F81C4B194CD3F816
:10279000B4014FF06C51FEF73DFB0026054657F89B
:1027A000040F2946FEF736FB386021682846FEF7FD
:1027B00031FB44F8040B2946D4F8FC0FFEF72AFB42
:1027C0000136B6F5806FC4F8FC0FE8D1BDE8F0879C
:1027D00038220020DB0FC94000C07F444062002047
:1027E000D8D100203C82002040420020402200201E
:1027F000408200204092002040A20020B000002033
:1028000070B1012814BF0320022059B1012914BF5F
:1028100003230223834206DD0A2202FB00307047B5
:102820000120F2E701230A2202FB030070470000A7
:102830002DE9F8430025584C5848A57001232A4635
:102840004FF4806112F05EF92580554CE58004F567
:102850001044237E0BB9607E10B10020BDE8F883E0
:102860000121FFF75BF800287FD10121FFF7F6F87F
:10287000003818BF01204000B0FA80F0637E4009A4
:102880002076002BE5D102210120FEF73BFF012538
:10289000002866D1434F444E3D75336B9847337FD4
:1028A000327E10211A432846FFF726F8B868FDF754
:1028B00023FE31A3D3E90023FDF776FE30A3D3E94D
:1028C0000023FDF771FE8046894678683749FEF798
:1028D00055FBFDF711FE42464B46FDF765FEFEF740
:1028E0003BF90546B8613869FEF740FA01464FF0FA
:1028F0008740FEF743FB2E4907462846FEF78AFA33
:1029000001463846FEF786FA1FA3D3E900230546A1
:1029100049464046FDF748FEFEF71EF913F05CF805
:1029200001462846FEF776FAFDF7E6FD18A3D3E93F
:102930000023FDF763FFFEF70FF94FF07E510546C8
:10294000FEF710FC98B91B492846FEF715FC80B924
:102950002846FEF761FC40F04003DBB2756033703F
:10296000002585F00105657673E7012084E74123A2
:10297000F4E77F23F2E700BF0492B06F2711913F85
:1029800000000060FB211940000000C0E9A8233FBF
:1029900005A3923A019D3340D4D10020D8D1002024
:1029A00038220020200600200422002000007A4463
:1029B000F304B53F00007C4237B5214CE38B94F81B
:1029C00026500133E38315BB637E012084F8260083
:1029D000D3B1A4F510420221FEF752FF08B3194803
:1029E00003F07CFB228C531C9BB2092A238410D950
:1029F000154B1648DD70258407F0F4FE144B2A466B
:102A00002946022011F08AFB002384F8263003B007
:102A100030BD00932A460F4B2946022011F07EFB61
:102A2000F2E70D4B0D4D2084DB6A9847EB69984720
:102A3000AB6A98472B6A98476B6A9847E4E700BFF0
:102A400038B20020B0D60020D4D10020A0D200207F
:102A5000F38A0108178B01080422002020060020B9
:102A60002DE9F8430E46244904461746FEF770FB4D
:102A700088BB2046FDF740FD19A3D3E90023044697
:102A80000D46FDF791FD22462B46FDF78DFD16A361
:102A9000D3E900238046894620462946FDF784FD78
:102AA00002460B4640464946FDF7C8FB10A3D3E952
:102AB0000023FDF7C1FB044638460D46FDF71CFD1B
:102AC00002460B4620462946FDF76EFDFEF744F808
:102AD0003060BDE8F8834FF07E50F9E7AFF3008037
:102AE000691D554D1075FF3E82E2C798BB96903F19
:102AF0003EE8D9ACFA5CFF3F00601F432DE9F84F78
:102B0000002481468A469346984600252646274655
:102B1000ABB298451DD84046FEF728F90146054658
:102B20003846FEF72BFA15F0D9FC0A9B29461860A7
:102B30003046FEF723FA15F0D1FC0B9B29461860AE
:102B40002046FEF71BFA15F0C9FC0C9B1860BDE887
:102B5000F88F59F835100846FEF75CF901463846FB
:102B6000FEF750F85AF8351007460846FEF752F9B6
:102B700001463046FEF746F85BF835100646084633
:102B8000FEF748F901462046FEF73CF801350446B9
:102B9000BEE70000000000002DE9F74F3A4B3B4C28
:102BA000D3F81C38019327686668A568DFF8E0A0B1
:102BB00000239B46019A934525D143B1009B636155
:102BC000C4F81890C4F81C8027606660A560266869
:102BD000304615F083FC67682062384615F07EFCAD
:102BE000A5686062284615F079FC3946A062304637
:102BF000FEF708F82946FEF705F815F06FFCE060CF
:102C000003B0BDE8F08F1EA3D3E90023FAE9020167
:102C1000FDF7F4FDFDF7A0FF19A3D3E90023009011
:102C2000DAE92001FDF7EAFDFDF796FF14A3D3E9E9
:102C300000238146DAE94001FDF7E0FDFDF78CFF56
:102C4000009980460846FEF7E5F801463846FDF74C
:102C5000D9FF494607464846FEF7DCF801463046AC
:102C6000FDF7D0FF414606464046FEF7D3F8014641
:102C70002846FDF7C7FF0BF1010B0546012399E735
:102C8000000000609EA0F63FD81900208CB90020FB
:102C9000B8000020000000002DE9F04F93B0124B67
:102CA000124A0493114B0393A2F1180A104B104AD5
:102CB000059300231191044610934FF00009A2F1EF
:102CC000100BDDE910128A4218DC53B1094B029A4D
:102CD000C3F808805F601E60074B5A60019A9D60D0
:102CE0001A6013B0BDE8F08FB80000206004002027
:102CF000880200207802002048040020206AFDF7A6
:102D0000FBFBA9A3D3E90023FDF74EFCFDF724FF4D
:102D10008046E069FDF7F0FBA3A3D3E90023FDF7AC
:102D200043FCFDF719FF0746A069FDF7E5FB9EA3ED
:102D3000D3E90023FDF738FCFDF70EFF049B0646A0
:102D4000F3E902010493FDF707FF049B6061019022
:102D5000D3E92001FDF700FF049B20610290D3E935
:102D60004001FDF7F9FE9249E06005464046FEF756
:102D700051F8019A01461046FEF700F90190FDF75F
:102D8000BBFBCDE90601DDE9062303993846C1E91D
:102D90004A238749FEF73EF8029B01461846FEF794
:102DA000EDF80290FDF7A8FBCDE908010399DDE9F4
:102DB00008233046C1E926237D49FEF72BF801465A
:102DC0002846FEF7DBF80546FDF796FBCDE90A013C
:102DD000DDE90A230399E1E9022340460391FDF767
:102DE0008BFB02460B46DDE90601FDF707FDCDE949
:102DF0000C01DDE90C2305993846C1E94A23FDF7AA
:102E00007BFB02460B46DDE90801FDF7F7FC059B5D
:102E100007468846C3E926783046FDF76DFB024633
:102E20000B46DDE90A01FDF7E9FCCDE90E01DDE91C
:102E30000E230599E1E90223002205914FF4801346
:102E4000DDE90601FDF722FE08B1CDF80490DDE9C9
:102E5000080100224FF48013FDF718FE08B1CDF8E9
:102E60000890DDE90A0100224FF48013FDF70EFE01
:102E700000B14D46DDE90C0100224FF48013FDF74F
:102E800005FE002840F087804A4B0022DDE90C0156
:102E9000FDF78AFBFDF760FE064600224FF4801323
:102EA00038464146FDF7F2FD002876D1414B00221D
:102EB00038464146FDF778FBFDF74EFE0746DDE953
:102EC0000E0100224FF48013FDF7E0FD002866D1CB
:102ED000384B0022DDE90E01FDF766FBFDF73CFEF5
:102EE000804601990846FDF795FFFDF705FB024670
:102EF0000B46DAE94E01FDF7A1F9CAE94E01029944
:102F00000846FDF787FFFDF7F7FA02460B46DAE9B8
:102F10002A01FDF793F9CAE92A0129462846FDF757
:102F200079FFFDF7E9FA02460B46DAE90601FDF7FB
:102F300085F9CAE9060131463046FDF76BFFFDF71A
:102F4000DBFA02460B46DBE94C01FDF777F9CBE9EA
:102F50004C0139463846FDF75DFFFDF7CDFA0246D4
:102F60000B46DBE92801FDF769F9CBE92801414669
:102F70004046FDF74FFFFDF7BFFA0B460246DBE97F
:102F80000401FDF75BF9109B01331093CBE90401B9
:102F90003034012395E64E467FE74F468FE7C8461B
:102FA0009FE700BFAFF30080182D4454FB21194068
:102FB000F304B53F00408F402DE9F04FB84BB94CBA
:102FC000586ADFF8E4B287B0FDF7CCFE0146FDF7A2
:102FD00019FE4FF06A51FDF71DFF06462068FDF708
:102FE000C5FE4FF07C51FDF715FF3146FDF712FF8E
:102FF0000546E0606068FDF7B9FE4FF07C51FDF7D3
:1030000009FF3146FDF706FF20618146A068FDF704
:10301000ADFE4FF07C51FDF7FDFE3146FDF7FAFEA7
:10302000A249606180462846FEF7B0F800284CD0DF
:103030002846FDF761FA98A3D3E90023FDF7B4FA17
:10304000FDF78AFDDBE94E23DFF864A2CDE900231A
:10305000DAE94C23CDE90223964B04460146D86AAF
:10306000FDF78CFFFDF748FA06460F462046CBE9F0
:103070005067FDF741FA02460B4630463946FDF7E8
:10308000BDFB04460D4632463B46CAE94E45304636
:103090003946FDF789FADDE90023FDF7CFF8864BC5
:1030A000CBE94E01002220462946FDF77DFA224653
:1030B0002B46FDF779FA804B0022FDF775FADDE922
:1030C0000223FDF7BBF8CAE94C0178494846FEF7F0
:1030D0005DF800284CD04846FDF70EFA6EA3D3E900
:1030E0000023FDF761FAFDF737FDDBE92A34DFF84D
:1030F000C091CDE90034D9E92834CDE902346D4BD3
:1031000006460146186BFDF739FFFDF7F5F9044651
:103110000D463046CBE92C45FDF7EEF902460B464D
:1031200020462946FDF76AFB06460F4622462B46F7
:10313000C9E92A6720462946FDF736FADDE900236A
:10314000FDF77CF85C4BCBE92A010022304639467A
:10315000FDF72AFA32463B46FDF726FA564B002287
:10316000FDF722FADDE90223FDF768F8C9E9280135
:103170004E494046FEF70AF800284AD04046FDF77F
:10318000BBF9DFF82CA144A3D3E90023FDF70CFA27
:10319000FDF7E2FCDAE90423CDE90023454B0446C0
:1031A0000146586BFDF7EAFEFDF7A6F906460F4605
:1031B0002046CBE90867FDF79FF902460B463046EB
:1031C0003946FDF71BFBDBE9068904460D4632460E
:1031D0003B46CAE9064530463946FDF7E5F9424621
:1031E0004B46FDF72BF8344BCBE906010022204675
:1031F0002946FDF7D9F922462B46FDF7D5F92E4B86
:103200000022FDF7D1F9DDE90023FDF717F8CAE93F
:103210000401DFF894B0DFF898A0DBE9508942465A
:103220004B4640464946FDF7BFF902460B46DBE9EF
:103230004E01FDF703F8DBE92C45CBE94E012246B0
:103240002B4620462946FDF7AFF902460B46DBE93F
:103250002A01FCF7F3FFDBE90823CBE92A0120462A
:103260002946CDE90423FDF79FF902460B46DBE929
:103270000601FCF7E3FFDAE94E23CBE9060110462D
:103280001946CDE90023FDF78FF902460B46DAE92E
:103290004C0113E0AFF30080182D4454FB2119407A
:1032A0000422002074B90020480400200000484097
:1032B000780200208CB9002000408F40FCF7BEFF50
:1032C000DAE92A23CAE94C0110461946CDE902235E
:1032D000FDF76AF902460B46DAE92801FCF7AEFF72
:1032E000DAE90667CAE9280132463B4630463946E4
:1032F000FDF75AF902460B46DAE90401FCF79EFF96
:103300001D4BCAE90401002240464946FDF74CF92D
:10331000194BCBE95001002220462946FDF744F91C
:10332000154BCBE92C010022DDE90401FDF73CF946
:103330000FA3D3E90023CBE90801DDE90001FDF784
:1033400033F90BA3D3E90023CAE94E01DDE90201F9
:10335000FDF72AF906A3D3E90023CAE92A0130467A
:103360003946FDF721F9CAE9060107B0BDE8F08F3B
:103370000000000080842E4100408F402DE9F04F76
:103380008DB000AF1C46BB6D7A60073323F0070396
:10339000ADEB030DC7E90210BA6DC7F828D00021C4
:1033A000684613F07EF904F540733B61BB6D1E3B2C
:1033B0003B607B6803F10C0ABB6803F10C09FB68F6
:1033C000002503F10C0800230426BD61FD62FB61AA
:1033D0003B627B624EE0731C7B61BB6A9B5D002B92
:1033E00041D1D8F804B0796A5846FDF7CFFE70B1E4
:1033F000D8F800105846FDF7C9FE40B1D8F80810BB
:103400005846FDF7C3FE10B1FE62C7F824B0D9F8E4
:1034100004B0396A5846FDF7B9FE70B1D9F800100A
:103420005846FDF7B3FE40B1D9F808105846FDF7ED
:10343000ADFE10B1BE61C7F820B0DAF804B0F9698A
:103440005846FDF7A3FE70B1DAF800105846FDF7B4
:103450009DFE40B1DAF808105846FDF797FE10B10E
:103460003546C7F81CB07E690AF1040A09F104095F
:1034700008F104083B68B342ADD87B6AA3603B6A9D
:103480006360FB692360FB6AE362BB69BA69F96A3E
:10349000C4E90953FB6A023D023B023A0331002BA7
:1034A00005DBB86D9842C2BFB86A0126C654002A2F
:1034B00005DBB86D9042C2BFB86A01268654002D64
:1034C00005DBB86DA842C2BFB86A01264655013374
:1034D000994205F1010502F10102E0D13B69303466
:1034E0009C427FF466AF3437BD46BDE8F08F0000E4
:1034F0002DE9F04F8FB0454C454A46494648DFF824
:103500001CB14FF400730093454BFFF737FF606A1F
:10351000FDF728FC0146FDF775FBA062404CDBF887
:103520002838DBF82498DBF820A8DBF81C58089032
:1035300000260393A04637460399D8F80800FDF704
:1035400025FE68B1D8F804004946FDF71FFE38B1E2
:10355000D8F800005146FDF719FE08B101350126E3
:103560000137102F08F13008E6D10EB1CBF81C5806
:10357000DBF81C3813B90123CBF81C38294B039313
:1035800000230793254B079AD3F81C38264E934205
:1035900052D8234CE36A206A03F50053023356F8ED
:1035A0002320224B1A60A36A03F5E053023356F836
:1035B00023201F4B1A60636A03F5C053023356F889
:1035C00023201C4B1A60FCF797FF02460B46D4E9F8
:1035D000C401FCF733FEC4E9C401E069FCF78CFFC9
:1035E00002460B46D4E9C601FCF728FEC4E9C60131
:1035F000A069FCF781FF02460B46D4E9C801FCF73D
:103600001DFEC4E9C8010FB0BDE8F08F0422002000
:10361000D4B90020D4C10020D4C90020D81900207A
:10362000B0060020B800002038220020D0B90020C9
:10363000CCB90020C8B90020E76A07F50053013370
:1036400056F8238007F500530333404656F82350BD
:103650002946FDF7D5FA09903846FDF783FB014668
:103660008146FDF7CFFA01464046FDF7C9FA2946E3
:10367000FDF7C8FA01460998DFF8EC82FDF77EFCF9
:103680004FF07C51FDF7C6FBA36A049303F5E053AA
:103690000133C8F8040356F823B0049B03F5E05344
:1036A0000333054656F823A058465146FDF7A8FABD
:1036B0000A900498FDF756FB01460D90FDF7A2FA1B
:1036C00001465846FDF79CFA5146FDF79BFA014624
:1036D0000A98FDF753FC4FF07C51FDF79BFBD4F8A3
:1036E00024A0C8F808030AF5C0520AF5C0510331F6
:1036F000013256F821B056F822200590594610465E
:103700000C92FDF77DFA0AF5C05102310B9056F884
:103710002130069319461846FDF774FA0C9A0146B3
:103720001046FDF76DFA5946FDF76CFA01460B9805
:10373000FDF724FC4FF07C51FDF76CFB4FF06A5114
:10374000C8F80C0383460898FDF764FB064601465B
:103750002846FDF75FFB314680464846FDF75AFB99
:1037600001464046FDF74EFA3146814620620598F3
:10377000FDF750FB0D9B804631461846FDF74AFB8E
:1037800001464046FDF73EFAE0610C905046FDF7D9
:10379000E9FA3146FDF73EFB314682465846FDF7D1
:1037A00039FB724E01465046FDF72CFAD6F8BC8123
:1037B000A06182464246311D4846FFF751F90C9BF5
:1037C0004246184606F10801FFF74AF9424606F15B
:1037D0000C015046FFF744F996F8C03183B1F06808
:1037E000FCF78AFE0B4602465DA1D1E90001FDF718
:1037F00005F8FDF7B1F90023C6F8BC0186F8C03121
:1038000007F50057DFF868A1023730345AF827006F
:10381000FCF772FE064609980F46FCF76DFE554B05
:103820000022FCF7C1FE804628468946FCF764FE6C
:1038300002460B4640464946FCF7B6FE02460B469A
:1038400030463946FCF7F8FC484D06460F464A48D4
:103850006968FDF7D5F94849FDF790FBFCF74CFE88
:1038600002460B4630463946FCF7C8FF039BE3E9A6
:1038700002010393049B03F5E05302335AF823003B
:10388000FCF73AFE80460A988946FCF735FE394B2C
:103890000022FCF789FE064605980F46FCF72CFE31
:1038A00002460B4630463946FCF77EFE02460B4682
:1038B00040464946FCF7C0FC06460F462E48A9681C
:1038C000FDF79EF92C49FDF759FBFCF715FE024662
:1038D0000B4630463946FCF791FF039BC3E92001B4
:1038E0000698FCF709FE06460B980F46FCF704FE07
:1038F000204B0022FCF758FE804658468946FCF7CC
:10390000FBFD02460B4640464946FCF74DFE02468B
:103910000B4630463946FCF78FFC039B06460F46A4
:10392000C3E94067D5E94401FDF716F9E968C5F830
:10393000AC011148FDF764F90F49FDF71FFBFCF7D7
:10394000DBFD0B46024639463046FCF757FF039B2A
:10395000C3E94001079B0133079313E6AFF30080EF
:1039600090A0F831E62E1940B0060020B0000020EB
:10397000382200200000D03F0000C8422DE9F84F57
:103980000546061FDFF8A8A0D0F8FC078946904638
:10399000002440F2FF1B56F8041F5C450CBF2F6843
:1039A0007768FDF72FF93946FDF72CF95146FDF7F9
:1039B000E5FA48F824000134B4F5007F05D03068FA
:1039C000E9E7214617E0204629E0002500244FF0D2
:1039D0007E5A00272646EB1BC3F30803214658F8FE
:1039E00023B05846FDF7D2FB0028EAD0594650468E
:1039F000FDF7C4FA01463046FDF704F90137332FCD
:103A00000646E8D10B49FDF7B9FA21460646FDF70F
:103A1000BDFB0028D7D031465046FDF7AFFA49F834
:103A200025000135B5F5007FD3D1BDE8F88F00BF83
:103A30000000404000004C422DE9F0412C4A2D4945
:103A40002D482C4CFFF79AFF2C4A2D492D48FFF7A3
:103A500095FF2D4A2D492E48FFF790FF00254FF482
:103A600000782E462F4654F8041B3846FDF7CAF856
:103A7000D4F8FC1707463046FDF7C4F8D4F8FC1F0D
:103A800006462846FDF7BEF8B8F101080546EAD11A
:103A9000204C4FF06C51E760266160613846FDF7BD
:103AA000B9F94FF06C51206007463046FDF7B2F986
:103AB0004FF06C51606006462846FDF7ABF9164999
:103AC000A06005463846FDF7A5F904F58054124973
:103AD000C4F828083046FDF79DF90F49C4F82408BA
:103AE0002846FDF797F9C4F82008BDE8F08100BF2B
:103AF000D4C90020F009002040A20020D4C1002039
:103B0000F011002040920020D4B90020F0190020CC
:103B100040820020D80900200000704238B5184CBF
:103B20004FF400552A460021204612F0BAFD2A46DD
:103B30000021A4F5005012F0B4FD2A4600214FF4F4
:103B40008055A4F5804012F0ACFD2A46002104F512
:103B5000005012F0A6FD2A46002104F5405012F054
:103B6000A0FD2A46002104F5804012F09AFD054B85
:103B700000229A605A601A60034B00229A6038BD96
:103B8000406200208CB9002038B200202DE9F04FAF
:103B90008FB006460193189B0893199B09931A9BB3
:103BA0000A934B4B059018684A4B0091069119688F
:103BB0000C91904607920B90FDF7CAFA041E18BFAD
:103BC00001240EAB03EB840353F80C1C424B186822
:103BD000FDF7DCFA002875D184F0010A4FF00209E4
:103BE0000EAB03EB840503EB890755F8182C57F847
:103BF000181C03921046FDF703F820F000430293CF
:103C00000EAB03EB8A0B039A5BF8181C1046FCF70B
:103C1000F7FF324920F00040FDF7A4FA029BA8B953
:103C20002E4955F8246C1846FDF79CFA00283AD125
:103C3000304614F053FC2A49FDF7ECF80546002CF9
:103C40003ED0012C14BF0320022029E0234918464E
:103C5000FDF788FAA0B100993046FCF7D3FF414642
:103C6000FCF7D0FF14F03AFC1D49FDF7D3F80546E8
:103C70001C48019B1D601C4B18610FB0BDE8F08F04
:103C80005BF8241C55F8240CFCF7BCFF14F026FC50
:103C90001349FDF7BFF8514605462046FEF7B0FD33
:103CA000FDF764F8E5E757F8241C3046FCF7AAFF57
:103CB00014F014FC0A49FDF7ADF849460546ECE757
:103CC0000120EDE74FF0000A02244FF0010987E7D9
:103CD000D0B90020CCB90020C8B900200000A04015
:103CE00000007A440000F642480400202DE9F04F1D
:103CF000DFF8B0A0DAE9064587B029462046FCF790
:103D00002BFF059014F0EAFB2749FDF783F8FCF739
:103D1000F3FBDAE92A67CAE9280139463046FCF79D
:103D20001BFF834614F0DAFB1F49FDF773F8FCF71D
:103D3000E3FBDAE94E89CAE94C0149464046FCF703
:103D40000BFF049014F0CAFB1749FDF763F8FCF76A
:103D5000D3FB164B059ACAE9700199690291D9699A
:103D600001911B6A0498009359460AF10C03FFF76E
:103D70000DFF42464B4630463946FCF75FFA224675
:103D80002B46FCF75BFAFCF7E7FE14F0A7FB0649AD
:103D9000FDF740F8FCF7B0FBCAE9720107B0BDE8D7
:103DA000F08F00BF4804002000007A44B0060020D5
:103DB0002DE9F04FDFF8B0A0DAE9044587B02946D5
:103DC0002046FCF7C9FE059014F088FB2749FDF753
:103DD00021F8FCF791FBDAE92867CAE926013946A0
:103DE0003046FCF7B9FE834614F078FB1F49FDF717
:103DF00011F8FCF781FBDAE94C89CAE94A01494626
:103E00004046FCF7A9FE049014F068FB1749FDF743
:103E100001F8FCF771FB164B059ACAE96E01996926
:103E20000291D96901911B6A0498009359460AF1DD
:103E30000C03FFF7ABFE42464B4630463946FCF7D3
:103E4000FDF922462B46FCF7F9F9FCF785FE14F044
:103E500045FB0649FCF7DEFFFCF74EFBCAE97001A3
:103E600007B0BDE8F08F00BF7802002000007A4460
:103E7000B00600202DE9F04F914E924DB36895B0F9
:103E8000D6E900980027059306971297002405F5B8
:103E9000804A2146DAF808B05846FDF76DF928B196
:103EA000DAF810002146FDF753F950B9214658467B
:103EB000FDF74EF950B1DAF810002146FDF75CF934
:103EC00020B1059B013305930123129305F5005A98
:103ED0002146DAF808B05846FDF74EF928B1DAF86D
:103EE00010002146FDF734F950B921465846FDF738
:103EF0002FF948B1DAF810002146FDF73DF918B165
:103F0000012308F101080693D5F808A02146504680
:103F1000FDF732F920B128692146FDF719F948B9B2
:103F200021465046FDF714F938B128692146FDF7BE
:103F300023F910B109F101090127634B08359D42AE
:103F4000A5D10FB1C6F80090069B0BB1C6F804804E
:103F5000129B0BB1059BB3605C4B5D4CB3F81C1816
:103F60005C485D4EFFF728F8E36A05935B4B059AC2
:103F70001A60236B12935A4B129A1A60594BD4F859
:103F800034B0C3F800B0D6E94E23CDE90623D6E914
:103F90002A23CDE90823D6E90623CDE90A23484B95
:103FA000DDE90A01DF68D3F81080D3F81490FCF73C
:103FB000D3FD8246DDE90801FCF7CEFD0546DDE9CB
:103FC0000601FCF7C9FD2946474DCDF8089006F1DA
:103FD0000C035246CDF804800097FFF7D7FDD5E9D2
:103FE0004C23CDE90C23D5E92823CDE90E23D5E9CF
:103FF000042319461046CDE91023FCF7ADFD1390BC
:10400000DDE90E01FCF7A8FD8246DDE90C01FCF7B5
:10401000A3FD139ACDF8089005F10C035146CDF895
:1040200004800097FFF7B2FD59465846FCF7F2FEB0
:10403000129983460846FCF7EDFE0599824608462C
:10404000FCF7E8FE04F110035A465146CDF80890FB
:10405000CDF804800097FFF799FD20692349FCF70C
:104060008DFFDDE908232061DDE90601FCF7E6F8B4
:10407000DDE90A23FCF7E2F8FCF76EFD14F02EFAF6
:104080001A49FCF7C7FEFCF737FADDE90E23C6E94B
:104090007201DDE90C01FCF7D1F8DDE91023FCF732
:1040A000CDF8FCF759FD14F019FA1049FCF7B2FEEF
:1040B000FCF722FAC5E9700115B0BDE8F08F00BF2A
:1040C00074B900203822002030420020D819002086
:1040D0008CB90020B006002048040020D0B9002090
:1040E000CCB90020C8B900207802002000007A4432
:1040F0002DE9FF41FEF7F4FA2B4D2C4CFFF79CFC09
:10410000FFF7F6F9FEF748FD294B2846B3F81C18CF
:10411000FEF7C2FDA16A666AD4F820800846FCF763
:1041200079FE314607463046FCF774FE41460646A6
:104130004046FCF76FFEAB690293EB6901932B6A73
:1041400000933A4604F110033146FFF71FFD194969
:104150002069FCF713FF2061FFF7C8FDFFF728FE79
:10416000154B1A69154B082A1CD012DC022A14D0F0
:10417000042A15D01A7E1B7F10211A430120FDF757
:10418000BBFB00221721012004B0BDE8F041FDF780
:10419000B3BB102AEED1042200E000221A76E9E730
:1041A0000822FBE70C22F9E7B00600208CB90020BA
:1041B000D819002000007A442006002004220020A4
:1041C000F8B5274C94F8903194F89151012B19D1FE
:1041D0004FF08043C4F8B431D4F8AC112148FCF757
:1041E0000FFD204920F00040FCF7C8FE05F16406F1
:1041F00004EB860601350023706084F8915184F841
:104200009031F8BD022B28D10023D4F8B001164F0D
:104210001E46AE421ADB0BB1C4F8B0012846FCF7CB
:10422000A5FD0146D4F8B001FCF7A8FE0146FCF755
:10423000E9FC4FF08041FCF7E5FC0023C4F8B03105
:104240000023C4F8B401A4F89031DAE757F8041F4A
:10425000FCF7D8FC01360123DBE7052DD1D1D3E7EC
:10426000B0000020F304354040020020F0B50022E9
:10427000474B85B0114602200FF050FF454B9B681D
:10428000B3F5806F72D1444C0294221F0192A4F1C5
:1042900008020092414A343CA2F50051A1F50050B9
:1042A000FEF72CFCE16A276B666B0846FCF7B2FD53
:1042B000394605463846FCF7ADFD01462846FCF771
:1042C000A1FC314605463046FCF7A4FD01462846D0
:1042D000FCF798FC324D14F001F92B7DA063002B04
:1042E00046D0FFF7C7FD2F49606BFCF74FFFB0B119
:1042F0002A690023082A2B752B4B47D03FDC022A62
:1043000042D0042A3FD01A7E1B7F10211A4301207D
:10431000FDF7F2FA012217211046FDF7EDFAFFF73B
:10432000FDFB2248224900242C70C0F81C48214D76
:1043300021482C6000220023C1E90623C1E92A2379
:10434000C1E94E23C0E90423C0E92823C0E94C2376
:10435000C5E90144C0E90623C0E92A23C0E94E2388
:10436000C1E90823C1E92C23C1E9502305B0F0BD00
:10437000FFF7BEFEFFF724FF01232B75B3E7102ADA
:10438000C1D1062200E00A221A76BCE70E22FBE722
:10439000408B010838B20020C0B9002040620020E4
:1043A000200600200000C84204220020D819002066
:1043B0004804002074B90020780200202DE9F0475D
:1043C000344D354B05F510471B78BE68B6F5806F48
:1043D00039D2B3B3DFF8C4803149D8F80C00FCF708
:1043E000CDFD3049FCF716FD740004F102092C499B
:1043F00045F82900D8F81000FCF7C0FD2949FCF762
:1044000009FD04F60209264945F82900D8F81400E8
:10441000FCF7B4FD2349FCF7FDFC41F20209631CE3
:1044200004EB090AE11C4B4404F60304002245F89E
:104430002A00013645F8212045F8242045F823209C
:10444000BE60BDE8F087002BFBD07A225C21012002
:10445000FDF752FA114B5B211A780120FDF74CFA57
:10446000002256210120FDF747FAC02258210120E1
:10447000FDF742FAE0225E210120FDF73DFAFFF749
:10448000F5FE7B7C002BDCD1BDE8F047064806F04A
:10449000A9B900BF382200202006002004220020F5
:1044A00000007A440AE81C41A0D200202DE9F04F18
:1044B000DFF8188198F8033089B0002B70D0444B96
:1044C0001A78002A6CD15A78002A69D1DB780593D2
:1044D000002B65D13F4D0DF11F0205F510461B2144
:1044E0000120FDF7F7F99DF81F30B46883F0100341
:1044F000C3F30013B4F5806F337454D2364F374989
:10450000F868FCF73BFD3649FCF784FC640004F1D5
:104510000208324945F828003869FCF72FFD304978
:10452000FCF778FC04F602092C4945F82900786963
:10453000FCF724FD2A49FCF76DFC41F2020B631CD9
:104540005B4404EB0B0A002245F82A00E11C45F805
:10455000232004F6030445F8212045F8242055F8CB
:104560002A001E49FCF756FCFCF730FE029055F875
:1045700029001A49FCF74EFCFCF728FE0190174968
:1045800055F82800FCF746FCFCF720FE059A154B71
:104590000090114602200FF0C1FDB3680133B360F3
:1045A00009B0BDE8F08FFFF761FE347C002CF7D135
:1045B0000D4888F80340747406F014F90B4B22463A
:1045C000214602200FF0AAFDEAE700BFD4D1002067
:1045D00020060020382200200422002000007A4417
:1045E0000AE81C416A8B0108A0D20020F38A010866
:1045F00010B5254C236833F47F0344D0637823B38C
:10460000A37813B3002216210120FDF775F90022CB
:1046100015210120FDF770F9002273210120FDF71B
:104620006BF9002274210120FDF766F90022752143
:104630000120FDF761F900230022C4E91023C4E939
:104640000E23C4E90C230023A37000225C21012067
:10465000FDF752F900225B210120FDF74DF9002200
:1046600056210120FDF748F9002258210120FDF7CD
:1046700043F900225E210120FDF73EF9BDE810401C
:10468000024806F089B810BD20060020A0D2002004
:10469000F7B51F4D00F088FD2B6898421BD31D4FC6
:1046A000FE787EBB00F080FD2B681B4C6433984283
:1046B00088BF26702678731C237076B900F074FDCD
:1046C000237800F5FA702860324600933146134B88
:1046D00002200FF023FD03B0F0BD00252A46104B49
:1046E0002570294602200FF019FDFFF717FA0D4B30
:1046F0000D485D610122FA705A7403B0BDE8F040C4
:1047000006F04AB800F050FD00F57A702860E2E744
:10471000A8000020D4D1002070B90020768B0108B9
:10472000A58B010838B20020A0D200201348144AFB
:1047300008B54FF00043C0E9002304224261012282
:104740000023C2614FF480510722C0E90233C0E95F
:104750000933C0E90C1203610383837680F82030AB
:1047600080F82C30826380F83C30C36403F050F84A
:1047700018B1BDE8084000F03FBB08BDECD10020F7
:10478000002401400268084B9A4282B00AD14FF0DF
:10479000B0431A6E42F400721A661B6E03F4007383
:1047A0000193019B02B07047002401400268054B51
:1047B0009A4201BF4FF0B042136E23F400731366A8
:1047C000704700BF0024014030B585B00024054685
:1047D000CDE901440394FFF7A9FF144803F0ACFBB3
:1047E00008B100F009FB1148039401A9CDE9015477
:1047F00003F06CF908B100F0FFFA0C4803F0C6FAB8
:1048000008B100F0F9FA4FF0FF31084803F000F961
:10481000064803F073FB054803F054F904460348C7
:1048200003F016FB204605B030BD00BFECD10020E0
:10483000014B024A1A607047ECD10020002401406D
:1048400008B50948FFF7C0FF68B1084BB3F8AA30B4
:104850004FF6FF72934216BF40F6E442044B5343B7
:10486000B3FBF0F398B208BD002000B40075FF1F41
:10487000D8084C0013B50023ADF80630FFF7E0FF71
:1048800004461948FFF7A0FF184BB3F8C820B3F847
:10489000A8108A4204FB00F018D040F6E443B0FBB5
:1048A000F3F364205B1A4343521A93FBF2F31E3373
:1048B0001BB2ADF80630BDF806305BB21B02ADF896
:1048C0000630BDF8060000B202B010BD4FF47A7297
:1048D00040F6FF73B0FBF3F35343A3F53923A3F57D
:1048E0000C6340F6C412E0E7001000B00075FF1F33
:1048F0004FF0B04307B59A6C42F004029A649A6C88
:1049000002F004020192019A9A6C42F001029A6448
:104910009B6C002203F00103009311460F20009BC3
:1049200003F0A8FB0F2003B05DF804EB03F0D4BB49
:1049300008B503F04DFE10B16FF0040008BD064B42
:104940009A6942F040429A614CF2FA321A6103F0DD
:1049500051FE0028F2D0EFE700400058F0B585B0D6
:1049600000230D4600930646A8B3FFF7E1FF044677
:1049700070BB03F02DFE88BB1A481B4A022301932B
:10498000D0F8E01506F1784302EA8121B3FBF1F794
:1049900001FB1733DB0A0293D0F8E00505F17841FB
:1049A0000139314402EA8022B1FBF2F002FB10111E
:1049B000C3EBD1230133694601A8039303F09AFEA8
:1049C00020B1022814BF6FF00104012403F012FE8D
:1049D000204605B0F0BD6FF00504F9E76FF0040460
:1049E000F6E700BF0070FF1F00FCFF03014B1860DB
:1049F0000020704750D200202DE9F04FB0F1006F39
:104A000089B006460F469046C0F0C080DFF890910E
:104A1000644DD9F8E03505EA832303F10063013BD7
:104A2000984200F2B380002900F0B38040EA02030C
:104A30005B0740F0AE80FFF77BFF044690BB03F0BE
:104A4000C7FD002840F0A880D9F8E015009705EAD6
:104A5000812106F17842B2FBF1F301FB132208F148
:104A60007843013B3344B3FBF1F001FB1033DB0A25
:104A700001334FEAD22AA3EBD222012A039388BF43
:104A8000C6F30A050AF58037C6F108038CBFC5F5E1
:104A900000654546FF02B3460693039B9A4505D33E
:104AA00003F0A8FD204609B0BDE8F08FA6F1080389
:104AB000069A1A4495421CD8009B04950193CDF8A0
:104AC00014B04FF00009059B09EB0301049B9945C5
:104AD0003DD3009BAB442B44A8EB0505B5F5006F17
:104AE000009328BF4FF400650AF1010A07F500673B
:104AF000D3E753F8081F5A68B2F1FF3F08BFB1F17E
:104B0000FF3FD5D0284B186810B96FF00504C7E7F0
:104B100027B14FF4006239460FF006FCDFF88890A9
:104B20000099D9F80030CBF30A001844AAB20FF06C
:104B3000FBFB4FF400613846FFF710FF00BBD9F8CC
:104B4000003001934FF4006305970493B9E7019B8C
:104B500007914B4402930120D3E9002303F084FD25
:104B600088B90799019BD1E9000259F80310029B0B
:104B70005B689A4208BF884205D109F10809A2E79B
:104B80006FF001048CE76FF0030489E74FF0FF3406
:104B900088E76FF0050485E76FF0040482E700BF43
:104BA0000070FF1F00FCFF0350D20020B1F1006F26
:104BB00070B510D30B4BD3F8E0650B4B03EA86239B
:104BC00003F10063013B994205D838B192B20FF06E
:104BD000ABFB002070BD4FF0FF30FBE76FF005002E
:104BE000F8E700BF0070FF1F00FCFF03B0F1006F8B
:104BF00010B40DD3084BD3F8E045084B03EA8423E7
:104C000003F10063013B984202D810BCFFF7A6BE37
:104C10004FF0FF3010BC70470070FF1F00FCFF0317
:104C20004FF0B04382B0DA6C0243DA64DB6C0340CD
:104C30000193019B02B07047F0B587B014220021A8
:104C400001A811F02EFD0420FFF7EAFF0220374DE6
:104C5000FFF7E6FF0120FFF7E3FF8020FFF7E0FF0B
:104C6000202100222846002403F0B2FE03264FF63E
:104C70004A6301A92846CDE90136039403F088FD73
:104C800042F2440301A92A480394CDE9013603F016
:104C90007FFD48F2F37301A94FF09040CDE9013652
:104CA0000827039403F074FD01A922480394CDE979
:104CB000017603F06DFD022604224FF4041301A9CE
:104CC0002846CDE90123039603F062FD4FF48813D3
:104CD0004FF4C871CDE90113284601A9039603F0EA
:104CE00057FD01232020CDE9010301A92846CDE984
:104CF000036403F04DFD22462146384603F0BAF91D
:104D0000384603F0E9F9224621460A2003F0B2F9B9
:104D10000A2003F0E1F922462146162003F0AAF901
:104D2000162003F0D9F907B0F0BD00BF0004004819
:104D300000080048001C004800B59BB04822002134
:104D400008A811F0AEFC1C22002101A811F0A9FC5A
:104D500004F01CFA4FF0B0420120D2F8903023F05A
:104D60001803C2F89030D2F8003423F4C06343F43F
:104D70000073C2F80034D2F8003403F4C063009327
:104D8000009B2423089381230B930023CDE9100378
:104D9000B02208A8CDE9122304F070FB08B172B666
:104DA000FEE74F23CDE90130CDE9030005900790E0
:104DB000022101A804F0FCFD08B172B6FEE71BB0A9
:104DC0005DF804FB08B502F07FFCFFF7B5FFFFF7C5
:104DD00033FF00F073FD00F097FA00F07BFA4FF418
:104DE000FA7000F0E9F9034805F0D6FC00F06DFD1B
:104DF000FCE700BFECD2002072B6FEE700B58DB034
:104E00002C22002101A811F04CFC1748174B03601D
:104E10001F2383604FF080420023C0E90433C0E9C0
:104E2000072383614FF48073436205F081F808B172
:104E3000FFF7E2FF0C4805F0A7F908B1FFF7DCFF28
:104E40004FF0005300220793074808924FF48073F5
:104E500001A9029206920B9305F0CAF808B1FFF778
:104E6000CBFF0DB05DF804FB54D2002000280040B9
:104E700010B5044690B03822002102A811F011FCB0
:104E80002268194B9A422CD14FF48033029302A826
:104E90004FF480730F9304F0C9FE08B1FFF7ACFF25
:104EA0004FF0B0430220D3F8902042F40042C3F800
:104EB00090209A6D42F480629A659B6D002203F403
:104EC000806311460193019B03F0D4F8022003F0A4
:104ED00003F900222A20114603F0CCF82A2003F01F
:104EE000FBF810B010BD00BF002800407047000064
:104EF00008B502F0FFFB044B0120C3F88800BDE8B1
:104F0000084004F09BB900BF0004005802F0F9BB50
:104F100008B502F0F6FBBDE8084000F069BC08B532
:104F200002F0E8FBBDE808400121002004F036B99A
:104F300070477047FEE7FEE7FEE7FEE7FEE77047D3
:104F400070477047FCF794BB014805F043B900BFB8
:104F500054D20020042003F059BD102003F056BDA8
:104F6000014803F0A3BA00BF40D3002008B5802059
:104F700003F04CFDBDE80840014803F0FDBA00BF56
:104F8000E8B20020014805F049BC00BFECD2002087
:104F9000014805F043BC00BFA0D20020014805F045
:104FA00035BE00BFA0D30020014804F047BF00BFBA
:104FB00054D20020014805F036BB00BF8CD200203F
:104FC000054808B50823036005F04AF918B1BDE8A3
:104FD0000840FFF711BF08BD8CD200204FF0B0434E
:104FE00007B55A6E42F001025A665B6E002203F06A
:104FF0000103019311463220019B03F03BF832205C
:1050000003B05DF804EB03F067B800000CB407B51B
:10501000054A05AB102101930FF052FC03B05DF877
:1050200004EB02B0704700BFE48B010830B585B0D7
:10503000044602A80D460FF0BBFABDF90C30064A33
:1050400000931021029B2046FFF7E0FF2046FBF76C
:10505000E7F8288005B030BDE48B01084FF0B0427E
:1050600010B5936823F4004393600FF0DDFA0E4B04
:1050700001241C7000F0A6F80EF0E6FF0B480EF0BD
:10508000FDFF0B4B4FF400421A6102200EF0FCFFB3
:10509000FFF7CEFB00F0C4F80FF0F0F821462046F1
:1050A000BDE810400FF00AB998D200202D5000083A
:1050B000004000580FF018B908B5FFF7C1FB40F6E3
:1050C000B83398420CD8B0F5E16F0BD3FE23A0F5AE
:1050D000E16058434FF49663B0FBF3F0C0B208BDF3
:1050E000FE20FCE70020FAE77FB5684600F07CF878
:1050F0000198FCF76BF800B207B05DF804FB000004
:10510000194A38B5D2F88035591C044619D102F035
:10511000FFFA054602F008FB054402F0FFFA2B0EE9
:10512000E3712B0CA3712B0A6371030EE370C0F3C0
:105130000742C0F307232571C0B2A27063702070CC
:1051400038BD190AC3718171190C1B0E41710371AD
:10515000D2F88435C370D2F88405C0F30722C0F3B7
:105160000743000EE9E700BF0070FF1F38B5094B89
:10517000D3F8803503600133054609D102F0C8FA3F
:10518000044602F0CBFA444002F0CEFA44402C60D0
:1051900038BD00BF0070FF1F012102200FF078B85A
:1051A000002102200FF074B8024B187808B100F00B
:1051B0003FB9704798D2002082B00190019802B0A8
:1051C00000F0D2B9074A08B5D2F8903043F48043D2
:1051D000C2F8903002F0AEFA02F0B4FABDE808402E
:1051E00002F0B8BA0008005810B50446FFF742FBB9
:1051F000074BA36040F30F20FBF7B8FD054B064AB1
:105200002360064B6060C4E90323002010BD00BF8B
:105210000000484200007A440D093E00AB0305003F
:10522000002070470120704708B511F08DFA162351
:1052300003604FF0FF3008BD08B511F085FA162362
:105240000360FEE770B50D4614460E46731B9C4284
:1052500001DC204670BDAFF3008006F8010BF5E7D6
:1052600070B50D4614460E46731B9C4201DC204669
:1052700070BD16F8010BAFF30080F5E74FF0FF307B
:1052800070474FF400534B60002070470120704777
:10529000002070470B4A116810B5034609B90A4946
:1052A0001160106809490A4C0344091B8B4206D956
:1052B00011F04AFA0C2303604FF0FF3010BD136069
:1052C000FCE700BF9CD20020E8F500200000012090
:1052D000000800000A480B4A08B52F23C0E9002344
:1052E000002340F2E732C0E90232C0E904338361AF
:1052F00005F076FB18B1BDE80840FFF77DBD08BD9D
:10530000ECD20020004401400E4B0F480F4A596A6E
:105310002F2310B5C0E900230D4B00224C00A3EB56
:105320004103B3FBF4F3043BC0E903328023826002
:105330004261836105F054FB18B1BDE81040FFF7EE
:105340005BBD10BD04220020A0D200200048014017
:1053500040420F0007B50368184A934215D14FF039
:10536000B0431C201A6E42F400321A661B6E0022F3
:1053700003F4003300931146009B02F07BFE1C20D7
:1053800003B05DF804EB02F0A7BE0D4A934211D1C1
:105390004FF0B0431D201A6E42F480221A661B6E35
:1053A00003F48023019300220521019B02F062FE99
:1053B0001D20E5E703B05DF804FB00BF0044014099
:1053C00000480140014B1868704700BF38D30020E7
:1053D0000320704708B501464FF47A72002380021B
:1053E000890DFBF739FF08BD4FF47A73A0FB030367
:1053F000800A40EA83507047034B98689A6890424D
:10540000FBD1C043704700BF0028004008B5FFF73C
:10541000F3FF014B186008BD38D3002008B5FFF733
:10542000EBFF024B1B68C01A08BD00BF38D3002039
:10543000024B187808B1FFF7DFBF70473CD300205C
:1054400010B5074B074C0122DA654FF480712046F6
:1054500004F0BAFC4FF0FF332363002010BD00BFFF
:105460000028004054D2002002460021014804F0E8
:10547000C2BE00BF54D2002002460121014804F000
:10548000BABE00BF54D2002010B58CB02C2200212F
:10549000044601A811F005F9FFF7D2FF0C4B0D48A7
:1054A0001B681C440023089306934FF00053E44309
:1054B000079301224FF4807301A902940B9304F027
:1054C00097FD08B1FFF798FC00200CB010BD00BF9D
:1054D00038D3002054D2002038B50546FFF78CFFA2
:1054E00002210446074804F08DFEC4F309024FF47C
:1054F0007A71A2FB0121920AA30A2A8043EA805012
:1055000038BD00BF54D200200148002104F07ABE0B
:1055100054D200200148012104F074BE54D200206E
:10552000F8B50F4D2E78CEB90E4C4FF0FF372763EC
:10553000FFF764FCFFF784FF4FF48071204604F00E
:1055400043FC2046276304F001FE32462046022138
:1055500004F051FEFFF75AFF01232B700020F8BD25
:105560003CD3002054D20020014610B54FF47A728B
:1055700000238002890DFBF76FFE0146FFF73CFF19
:105580000446FFF739FF031B8B4200D310BD00BF59
:10559000F7E70FF051B9000010B5064C0221204684
:1055A00004F030FE0221421C2046BDE8104004F009
:1055B00022BE00BF54D200201648174A08B54FF447
:1055C0001653C0E9002300230C22C0E90233C0E9CE
:1055D0000523C0E90733C0E90933036106F0FFF88A
:1055E00008B1FFF709FC0B48002106F070FA08B17A
:1055F000FFF702FC0748002106F089FA08B1FFF71F
:10560000FBFB044806F043FA18B1BDE80840FFF779
:10561000F3BB08BDA0D300200044004030B597B0D4
:1056200005461422002103A811F03BF8382200217E
:1056300008A811F036F82A682C4B9A4253D102235D
:10564000089308A82A4B0A9304F0F0FA08B1FFF770
:10565000D3FB4FF0B04301219A6D264C42F4003247
:105660009A659A6D02F400320292029ADA6C42F064
:105670000102DA64DB6C03F0010301930C22019B4D
:105680000223CDE903230323CDE905134FF0904016
:10569000072303A9079303F07BF817481423C4E9F1
:1056A00000034FF0100C002380222046C4E902C3FF
:1056B000C4E90423C4E90633236202F081FD08B182
:1056C000FFF79AFB0B48102102F046FF08B1FFF7E5
:1056D00093FB00222520EC671146A56202F0CAFC6C
:1056E000252002F0F9FC17B030BD00BF0044004097
:1056F00004000C0040D300205800024002680C4B0C
:105700009A4210B5044612D14FF0B0420C21936D6D
:1057100023F4003393654FF0904003F0E5F8E06F19
:1057200002F0C0FDBDE81040252002F0E3BC10BD32
:105730000044004008B50A460146024805F0CAF98F
:10574000002008BDA0D3002013B5114B114C1860E8
:105750004FF40013009302AB13E90600204606F055
:105760003AF92368DA69D103FCD4DA695202FCD52C
:105770009A68084842F480029A6006F072F9064975
:105780000448012206F0E0F8002002B010BD00BF7E
:1057900034D40020A0D300203CD4002008B5074B0F
:1057A0001860FFF7A5F8FFF707FF054AD2F8803029
:1057B00043F00063C2F88030002008BD38D40020D8
:1057C0000008005808B54FF0B04308489A6B42F4FF
:1057D00000329A639A6B22F400329A63FFF78EFFCD
:1057E0000F2002F087FC002008BD00BFA0D30020DE
:1057F00008B5074805F0F3FF08B1FFF7FDFA0548C3
:1058000002F0DEFC18B1BDE80840FFF7F5BA08BDAC
:10581000A0D3002040D300200268044B9A4203D159
:10582000034B00201B681847704700BF004400402E
:1058300038D4002002680B4B9A4210B504460FD1B1
:10584000094B1B682BB1D0F8902012B907480121F1
:10585000984720460549BDE81040012206F074B87B
:1058600010BD00BF0044004034D400203CD40020D0
:10587000014B00221A7070473DD40020014B18786C
:10588000704700BF3DD4002010B5034C0349227877
:105890000EF04AFD207810BD3DD400203ED40020FB
:1058A00010B504490446F2220348FCF7A9FB204640
:1058B00010BD00BF3DD400203ED4002008B5FFF746
:1058C000CDFBBDE8084000F087BA4FF0FF300EF086
:1058D0006FBD704770470000014BD870704700BF24
:1058E0006CB20020014B1874704700BF6CB20020EE
:1058F00007B5064B00221B5C00931146044B0220A7
:105900000EF00CFC03B05DF804FB00BF5A8C0108DC
:10591000408C010808B5022000210EF011FDBDE801
:10592000084001480EF036BF84D600200021012037
:105930000EF006BD10B54EF66023084C002818BFC7
:105940000346074823600EF0D7FE216804480EF096
:105950005BFFBDE8104002480EF01CBF68B200209B
:1059600084D600201FB50446002837D00378002BCA
:105970002ED01F480EF00EFF002211461D4B0220B4
:105980000EF0CCFB94F91830039394F90A3002938B
:10599000237C0193E368009300221146164B0320F9
:1059A0000EF0BCFB0022154B114602200EF0B6FB98
:1059B000237A012B14D1617A114A124B002918BFA6
:1059C00013460022009311460F4B02200EF0A6FB57
:1059D0000E492046FCF74AFA0D4B186004B010BD82
:1059E00000220C4B114602200EF098FBF0E700BF9E
:1059F00060D50020638C0108948C0108C58C0108D7
:105A00005F8C01085E8C0108D28C010884D60020CE
:105A100068B20020E38C010837B5044628B390F93A
:105A2000065025BB13480EF067FE134B2A46294645
:105A300002200EF073FBE379012B0CBF0F4B104BD0
:105A40000022114602200EF069FB94F90600FCF7D3
:105A5000BFF994F90530019394F9043000930022C2
:105A6000084B114603200EF059FB03B030BD064B26
:105A7000E6E700BF30D50020F18C0108068D010853
:105A8000238D0108578D0108408D01080A46014900
:105A9000FFF78CB800F0030838B51B480EF02CFE59
:105AA00006F09EFC044650B10022184B114602201D
:105AB0000EF034FBBDE8384015480EF06BBE154BB8
:105AC000154D0246014602200EF028FB134B1B78B1
:105AD000012B11D10220124B2870224621460EF0D4
